:020000040000fa
:04007c00a80e0000ca
:020000040000fa
:0400b000a80e000096
:020000040000fa
:04014000a80e000005
:020000040000fa
:04010400a80e000041
:020000040000fa
:04014400a80e000001
:020000040000fa
:04007000a80e0000d6
:020000040000fa
:04007400a80e0000d2
:020000040000fa
:04013400a80e000011
:020000040000fa
:04011400a80e000031
:020000040000fa
:04011800a80e00002d
:020000040000fa
:04020800a80e00003c
:020000040000fa
:04020c00a80e000038
:020000040000fa
:04023000a80e000014
:020000040000fa
:04023400a80e000010
:020000040000fa
:04023800a80e00000c
:020000040000fa
:0400e000a80e000066
:020000040000fa
:04011c00a80e000029
:020000040000fa
:04013800a80e00000d
:020000040000fa
:04013c00a80e000009
:020000040000fa
:04020000a80e000044
:020000040000fa
:04020400a80e000040
:020000040000fa
:04001c00a80e00002a
:020000040000fa
:04001000a80e000036
:020000040000fa
:04021c00a80e000028
:020000040000fa
:04022400a80e000020
:020000040000fa
:04022c00a80e000018
:020000040000fa
:04024400a80e000000
:020000040000fa
:04024c00a80e0000f8
:020000040000fa
:04025400a80e0000f0
:020000040000fa
:04025c00a80e0000e8
:020000040000fa
:04002c00a80e00001a
:020000040000fa
:04003c00a80e00000a
:020000040000fa
:0400bc00a80e00008a
:020000040000fa
:0400c000a80e000086
:020000040000fa
:0400c400a80e000082
:020000040000fa
:0400c800a80e00007e
:020000040000fa
:04008000a80e0000c6
:020000040000fa
:04008400a80e0000c2
:020000040000fa
:04019c00a80e0000a9
:020000040000fa
:04026000a80e0000e4
:020000040000fa
:0401b800a80e00008d
:020000040000fa
:0401bc00a80e000089
:020000040000fa
:0401c000a80e000085
:020000040000fa
:0401c400a80e000081
:020000040000fa
:0401c800a80e00007d
:020000040000fa
:0401cc00a80e000079
:020000040000fa
:0401d000a80e000075
:020000040000fa
:0401d400a80e000071
:020000040000fa
:0401d800a80e00006d
:020000040000fa
:0401dc00a80e000069
:020000040000fa
:0401e000a80e000065
:020000040000fa
:0401e400a80e000061
:020000040000fa
:0401e800a80e00005d
:020000040000fa
:0401ec00a80e000059
:020000040000fa
:0401f000a80e000055
:020000040000fa
:0401f400a80e000051
:020000040000fa
:0401f800a80e00004d
:020000040000fa
:0401fc00a80e000049
:020000040000fa
:04023c00a80e000008
:020000040000fa
:04012400a80e000021
:020000040000fa
:04012800a80e00001d
:020000040000fa
:04014800a80e0000fd
:020000040000fa
:04015000a80e0000f5
:020000040000fa
:04015800a80e0000ed
:020000040000fa
:04015c00a80e0000e9
:020000040000fa
:04016000a80e0000e5
:020000040000fa
:04016400a80e0000e1
:020000040000fa
:04016800a80e0000dd
:020000040000fa
:04017800a80e0000cd
:020000040000fa
:04017c00a80e0000c9
:020000040000fa
:0401b000a80e000095
:020000040000fa
:0401b400a80e000091
:020000040000fa
:04026400a80e0000e0
:020000040000fa
:04006c00a80e0000da
:020000040000fa
:0400f000a80e000056
:020000040000fa
:04006400a80e0000e2
:020000040000fa
:04021800a80e00002c
:020000040000fa
:04022000a80e000024
:020000040000fa
:04022800a80e00001c
:020000040000fa
:04024000a80e000004
:020000040000fa
:04024800a80e0000fc
:020000040000fa
:04025000a80e0000f4
:020000040000fa
:04025800a80e0000ec
:020000040000fa
:04003000a80e000016
:020000040000fa
:04004000a80e000006
:020000040000fa
:04008c00a80e0000ba
:020000040000fa
:04009000a80e0000b6
:020000040000fa
:0400cc00a80e00007a
:020000040000fa
:0400d000a80e000076
:020000040000fa
:0400d400a80e000072
:020000040000fa
:0400d800a80e00006e
:020000040000fa
:04019800a80e0000ad
:020000040000fa
:0400dc00a80e00006a
:020000040000fa
:0401a000a80e0000a5
:020000040000fa
:0401a400a80e0000a1
:020000040000fa
:0401a800a80e00009d
:020000040000fa
:0401ac00a80e000099
:020000040000fa
:04014c00a80e0000f9
:020000040000fa
:04010c00a80e000039
:020000040000fa
:04011000a80e000035
:020000040000fa
:04015400a80e0000f1
:020000040000fa
:04012000a80e000025
:020000040000fa
:04002400a80e000022
:020000040000fa
:04006800a80e0000de
:020000040000fa
:0400ec00a80e00005a
:020000040000fa
:04004c00a80e0000fa
:020000040000fa
:04005000a80e0000f6
:020000040000fa
:0400a800a80e00009e
:020000040000fa
:0400ac00a80e00009a
:020000040000fa
:04019000a80e0000b5
:020000040000fa
:04019400a80e0000b1
:020000040000fa
:04021000a80e000034
:020000040000fa
:04021400a80e000030
:020000040000fa
:04002000a80e000026
:020000040000fa
:04005800a80e0000ee
:020000040000fa
:0400a400a80e0000a2
:020000040000fa
:04016c00a80e0000d9
:020000040000fa
:04017000a80e0000d5
:020000040000fa
:04017400a80e0000d1
:020000040000fa
:04018400a80e0000c1
:020000040000fa
:04018800a80e0000bd
:020000040000fa
:04018c00a80e0000b9
:020000040000fa
:080000000002040000000000f2
:020000040000fa
:100400002fb725000ebf27000e0188000000000056
:10041000000020000000e000020032000001200087
:1004200020028800140007004b0607000000e000cf
:1004300003003a0000eb2900010020000200370011
:100440000000200001002000810f70000100320038
:100450000f000700100020000000e0000200320042
:10046000fa0202000000000060ab02000000000081
:100470000040da000000fe00a01820000000e000ac
:1004800002003200002020009001880000000600d9
:10049000a1028800800478000000eb001f003700f4
:1004a000e284440054a0b4009905ba00e2844400f8
:1004b00054a0b4009906ba00e284440054a0b400e9
:1004c0000006eb00476fde00fd07b200ae018800ba
:1004d000636ce10003003a000ad801000000eb0061
:1004e0000e003700606ce10008003a00004deb00a0
:1004f0000a05e800020039003420ec000af0a000f0
:100500008b05e900f9ff3e00040037006168e10057
:10051000010032000086eb000b00070019c7ba008b
:100520000e04e0001905ba0003003a000a00e000da
:10053000dbff3a0000000600fe07b200ae028800b2
:100540008a047800f5ff37000cd0a300e20f4d00bd
:100550001c00390089027800354dba000a05e80010
:10056000020039003420ec000af0a0008b05e900fd
:100570000f003200254dba000a05e80002003900dc
:100580003420ec000af0a0008b05e90008003200de
:100590000c00e0000600320015cdba000a05e800a4
:1005a000020039003420ec000af0a0008b05e900bd
:1005b0008984e80054a0b4000b00e000e2ff3a0098
:1005c000000006009902ba00055d78008b05e9007d
:1005d000f7ff3200c82ade00055d78008b05e900d0
:1005e000f3ff32000c00e000f1ff320019ddba0029
:1005f000eeff370043520700635407000000060077
:10060000007804000000000076a70400000000004d
:10061000061304000000000000a0fe003600f800f1
:10062000849fbe00869fbe003200f8003400f800b0
:1006300014002000a40188000420200094018800f8
:10064000000000000000fa00ac4d07000008a900ff
:100650008e0778004f0778004440a9003400f90065
:100660003200f900801f7800000e20004220b70001
:100670004f0078004f03be004f02be003600f90065
:100680000080fe000040060000a0fe003600f800da
:10069000849fbe00869fbe003200f8003400f80040
:1006a00014002000a4018800042020009401880088
:1006b000000000000000fa00fb5107000288a900ba
:1006c0008e0778004f0778004440a9003400f900f5
:1006d0003200f900801f7800000e20004220b70091
:1006e0004f0078004f03be004f02be003600f900f5
:1006f0000080fe000040060000a0fe003600f8006a
:10070000849fbe00869fbe003200f8003400f800cf
:1007100014002000a4018800042020009401880017
:10072000000000000000fa007e4d070003a8a900a9
:100730008e0778004f0778004440a9003400f90084
:100740003200f900801f7800000e20004220b70020
:100750004f0078004f03be004f02be003600f90084
:100760000080fe000040060000a0fe003600f800f9
:10077000849fbe00869fbe003200f8003400f8005f
:1007800014002000a40188000420200094018800a7
:10079000000000000000fa00674d070006a8a9004d
:1007a0008e0778004f0778004440a9003400f90014
:1007b0003200f900801f7800000e20004220b700b0
:1007c0004f0078004f03be004f02be003600f90014
:1007d0000080fe000040060000a0fe003600f80089
:1007e000849fbe00869fbe003200f8003400f800ef
:1007f00014002000a4018800042020009401880037
:10080000000000000000fa00504d070006c8a900d3
:100810008e0778004f0778004440a9003400f900a3
:100820003200f900801f7800000e20004220b7003f
:100830004f0078004f03be004f02be003600f900a3
:100840000080fe00004006003600f800809fbe00d9
:10085000829fbe00849fbe00869fbe003200f800cb
:100860003400f80010002000a001880000202000c3
:1008700090018800000000000000fa000b21070032
:100880008e0778004f0778004440a9003400f90033
:100890003200f900801f7800000e20004220b700cf
:1008a0004f0078004f03be004f02be004f01be0054
:1008b0004f00be003600f900004006003600f80088
:1008c000809fbe00829fbe00849fbe00869fbe00a8
:1008d0000000fa000000eb0087530700c028a900c1
:1008e0000000fe008e0778004f0778004440a90002
:1008f000801f7800000e20004220b7004f007800d3
:100900004f03be004f02be004f01be004f00be00ad
:100910003600f900004006003600f800809fbe0057
:10092000829fbe00849fbe00869fbe000000fa002a
:100930001000200070530700c068a9000000fe00ee
:100940008e0778004f0778004440a900801f780088
:10095000000e20004220b7004f0078004f03be0079
:100960004f02be004f01be004f00be003600f9002e
:10097000004006003600f800809fbe00829fbe0047
:10098000849fbe00869fbe000000fa002000200069
:1009900059530700c048a9000000fe008e077800e8
:1009a0004f0778004440a900801f7800000e200007
:1009b0004220b7004f0078004f03be004f02be0038
:1009c0004f01be004f00be003600f9000040060097
:1009d0003600f800809fbe00829fbe00849fbe004c
:1009e000869fbe000000fa0030002000425307003e
:1009f000c088a9000000fe008e0778004f0778002d
:100a00004440a900801f7800000e20004220b7005b
:100a10004f0078004f03be004f02be004f01be00e2
:100a20004f00be003600f9000040060000a0fe00a6
:100a30003600f800849fbe00869fbe003200f8009a
:100a40003400f80014002000a401880004202000d5
:100a500094018800000000000000fa0080818000fe
:100a6000000001000068a9008e0778004f07780099
:100a70004440a9003400f9003200f900801f7800da
:100a8000000e20004220b7004f0078004f03be0048
:100a90004f02be003600f9000080fe000040060054
:100aa00000a0fe003600f800849fbe00869fbe00b6
:100ab0003200f8003400f80014002000a40188007f
:100ac0000420200094018800000000000000fa00cb
:100ad000908180000000010000e8a9008e077800e6
:100ae0004f0778004440a9003400f9003200f900b3
:100af000801f7800000e20004220b7004f007800d1
:100b00004f03be004f02be003600f9000080fe0019
:100b10000040060000a0fe003600f800849fbe00e2
:100b2000869fbe003200f8003400f8001400200058
:100b3000a401880004202000940188000000000027
:100b40000000fa00a0818000000001000108a90057
:100b50008e0778004f0778004440a9003400f90060
:100b60003200f900801f7800000e20004220b700fc
:100b70004f0078004f03be004f02be003600f90060
:100b80000080fe000040060000a0fe003600f800d5
:100b9000849fbe00869fbe003200f8003400f8003b
:100ba00014002000a4018800042020009401880083
:100bb000000000000000fa00b08180000000010089
:100bc0000368a9008e0778004f0778004440a90009
:100bd0003400f9003200f900801f7800000e200078
:100be0004220b7004f0078004f03be004f02be0006
:100bf0003600f9000080fe000040060000a0fe0064
:100c00003600f800849fbe00869fbe003200f800c8
:100c10003400f80014002000a40188000420200003
:100c200094018800000000000000fa00c0818000ec
:100c3000000001000388a9008e0778004f077800a4
:100c40004440a9003400f9003200f900801f780008
:100c5000000e20004220b7004f0078004f03be0076
:100c60004f02be003600f9000080fe000040060082
:100c700000a0fe003600f800849fbe00869fbe00e4
:100c80003200f8003400f80014002000a4018800ad
:100c90000420200094018800000000000000fa00f9
:100ca000d08180000000010005e8a9008e077800cf
:100cb0004f0778004440a9003400f9003200f900e1
:100cc000801f7800000e20004220b7004f007800ff
:100cd0004f03be004f02be003600f9000080fe0048
:100ce0000040060000a0fe003600f800849fbe0011
:100cf000869fbe003200f8003400f8001400200087
:100d0000a401880004202000940188000000000055
:100d10000000fa00e0818000000001000608a90040
:100d20008e0778004f0778004440a9003400f9008e
:100d30003200f900801f7800000e20004220b7002a
:100d40004f0078004f03be004f02be003600f9008e
:100d50000080fe000040060000a0fe003600f80003
:100d6000849fbe00869fbe003200f8003400f80069
:100d700014002000a40188000420200094018800b1
:100d8000000000000000fa00f08180000000010077
:100d90000668a9008e0778004f0778004440a90034
:100da0003400f9003200f900801f7800000e2000a6
:100db0004220b7004f0078004f03be004f02be0034
:100dc0003600f9000080fe000040060000a0fe0092
:100dd0003600f800849fbe00869fbe003200f800f7
:100de0003400f80014002000a40188000420200032
:100df00094018800000000000000fa0000828000da
:100e0000000001000688a9008e0778004f077800cf
:100e10004440a9003400f9003200f900801f780036
:100e2000000e20004220b7004f0078004f03be00a4
:100e30004f02be003600f9000080fe0000400600b0
:100e40003200f8003400f800881f780018002000f5
:100e5000a8018800082020009801880000000000f8
:100e60004f0478000000fa000088a9008e0778007f
:100e70004f0778004440a9003400f9003200f9001f
:100e8000801f7800000e20004220b7004f0078003d
:100e9000004006003200f8003400f800881f780097
:100ea00018002000a8018800082020009801880070
:100eb000000000004f0478000000fa0001c8a900fb
:100ec0008e0778004f0778004440a9003400f900ed
:100ed0003200f900801f7800000e20004220b70089
:100ee0004f007800004006003200f8003400f8009f
:100ef000881f780018002000a80188000820200022
:100f000098018800000000004f0478000000fa00fb
:100f10000308a9008e0778004f0778004440a90015
:100f20003400f9003200f900801f7800000e200024
:100f30004220b7004f007800004006003200f80061
:100f40003400f800881f780018002000a8018800ed
:100f50000820200098018800000000004f0478005d
:100f60000000fa000488a9008e0778004f07780077
:100f70004440a9003400f9003200f900801f7800d5
:100f8000000e20004220b7004f007800004006000d
:100f900000a0fe003600f800849fbe00869fbe00c1
:100fa000889fbe008a9fbe008c9fbe003200f80062
:100fb0003400f80014002000a40188000420200060
:100fc00094018800000000001c00fa00402080000e
:100fd0005120800000407800e1806000f043b200c2
:100fe0000080fb00000f78000100e00001003200eb
:100ff0000a04a90050208000620060000000e000a8
:10100000fa0032001e00780004e027004400dd00f2
:10101000050020006100b80000f0a70001202000ba
:10102000930180000001d0000403d00006004100bd
:101030004220a800858048004200a9004220ae005e
:101040004200a8000080d3000101780092018800ce
:101050000000000000007800100078009301880074
:10106000000000004200de00100798001e00900003
:101070007d1907000004e000da0032001e0078004d
:1010800001e02700010f98004400dd00020020006d
:10109000120f98006100b80000f0a70001202000a6
:1010a000930180000e0a90009e0a90000003d00079
:1010b0000401d000020043004220a80085804800bf
:1010c0004200a9004220ae004200a8000080d300e8
:1010d0000101780092018800000000000000780003
:1010e000100078009301880000000000c200de00bc
:1010f0001e007800210798004400dd0003e027006f
:10110000230f98006400400004002000340f980072
:101110006100b80000f0a7000120200092018000cb
:101120002e0a9000be0a90000003d0008401d00077
:10113000030043004220a800858048004200a90027
:101140004220ae004200a8000080d3008101780058
:101150009301880000000000000078001000780073
:10116000920188000000000001ff2f003e01900066
:1011700000407800810161006f4060009e007800af
:101180006f406000c408dd006f406000e6804000f2
:101190000081fb006108b80000f0a70001202000da
:1011a0006f01610004e02700440f98000301710003
:1011b00005002000550f9800320798004e09900056
:1011c000de0990000002d0008202d000050042003b
:1011d0004220a800838048004200a9004220ae00bf
:1011e0004200a8000080d3009201800081017800b5
:1011f0009301880000000000000078009000780053
:1012000092018800000000001e007800410798004d
:101210004400dd000ce02700680040000d002000c5
:101220006100b80000f0a7000120200092018000ba
:101230000003d0008c01d000030043004220a8002e
:101240008d8048004200a9004220ae004200a80064
:101250000080d30081017800930188000000000025
:1012600000007800900078009201880000000000e3
:101270001e007800510798004400dd000ae02700b6
:101280006a0040000b0020006100b80000f0a700d9
:1012900001202000920180000002d0008a02d000cc
:1012a000050042004220a8008b8048004200a900af
:1012b0004220ae004200a8000080d30081017800e7
:1012c0009301880000000000000078009000780082
:1012d00092018800000000001e007800610798005d
:1012e0004400dd0008e027006c00400009002000f9
:1012f0006100b80000f0a7000120200093018000e9
:101300000003d0000801d000020043004220a800e2
:10131000898048004200a9004220ae004200a80097
:101320000080d300010178009201880000000000d5
:101330000000780010017800930188000000000090
:10134000e400470043828000a0392500ec1ab90070
:101350008401780000804100311878002110780065
:10136000e4804000640040003118780021107800cb
:10137000e48040007207980064004000f2032000ff
:1013800031187800211078001e007800418280001a
:101390008100e8008280600041828800ef0f5000e9
:1013a00008003c0000218000120020009e00780010
:1013b0008110dd008180ea0000806000002188004b
:1013c00008003700102180009e027800f080520053
:1013d000120020008110dd008180ea0000806000a2
:1013e00010218800000000000a24a900512080007c
:1013f00000042000008060000000e00001003200d6
:101400000ac4a900000000000468a9000a24ef0033
:101410008e0778004f0778004440a9003400f90097
:101420003200f900801f7800000e20004220b70033
:101430004f0078004f06be004f05be004f04be00af
:101440004f03be004f02be003600f9000080fe00d0
:101450000040060000a0fe003600f800849fbe0099
:10146000869fbe00889fbe008a9fbe008c9fbe00e4
:101470003200f8003400f80014002000a4018800b5
:101480000420200094018800000000001c00fa00e5
:10149000402880005128800000407800e1806000f2
:1014a000f043b2000080fb00000f78000100e00074
:1014b000010032000a05a900502880006200600087
:1014c0000000e000fa0032001e00780004c027008f
:1014d0004400dd00050020006100b80000f0a70016
:1014e00001202000930180000001d0000403d000ff
:1014f000060041004220a800858048004200a90063
:101500004220ae004200a8000080d3000101780014
:1015100092018800000000000000780010007800b0
:1015200093018800000000004200de0010079800d0
:101530001e009000591d07000004e000da00320090
:101540001e00780001c02700010f98004400dd0054
:1015500002002000120f98006100b80000f0a70000
:1015600001202000930180000e0a90009e0a900046
:101570000003d0000401d000020043004220a80074
:10158000858048004200a9004220ae004200a80029
:101590000080d30001017800920188000000000063
:1015a000000078001000780093018800000000001f
:1015b000c200de001e007800210798004400dd0014
:1015c00003c02700230f980064004000040020009f
:1015d000340f98006100b80000f0a700012020003f
:1015e000920180002e0a9000be0a90000003d000f5
:1015f0008401d000030043004220a80085804800f9
:101600004200a9004220ae004200a8000080d300a2
:10161000810178009301880000000000000078003c
:1016200010007800920188000000000001ff2f00e8
:101630003e01900000407800810161006f40600031
:101640009e0078006f406000c408dd006f406000bd
:10165000e68040000081fb006108b80000f0a700b0
:10166000012020006f01610004c02700440f980092
:101670000301710005002000550f98003207980003
:101680004e099000de0990000002d0008202d000d6
:10169000050042004220a800838048004200a900c3
:1016a0004220ae004200a8000080d30092018000da
:1016b000810178009301880000000000000078009c
:1016c0009000780092018800000000001e00780061
:1016d000410798004400dd000cc02700680040006e
:1016e0000d0020006100b80000f0a70001202000dc
:1016f000920180000003d0008c01d0000300430061
:101700004220a8008d8048004200a9004220ae007f
:101710004200a8000080d300810178009301880076
:10172000000000000000780090007800920188001e
:10173000000000001e007800510798004400dd0002
:101740000ac027006a0040000b0020006100b800ba
:1017500000f0a70001202000920180000002d000cc
:101760008a02d000050042004220a8008b80480079
:101770004200a9004220ae004200a8000080d30031
:1017800081017800930188000000000000007800cb
:101790009000780092018800000000001e00780090
:1017a000610798004400dd0008c027006c0040007d
:1017b000090020006100b80000f0a700012020000f
:1017c000930180000003d0000801d0000200430014
:1017d0004220a800898048004200a9004220ae00b3
:1017e0004200a8000080d300010178009201880027
:1017f00000000000000078001001780093018800cc
:1018000000000000e400470023828000a0092500ba
:10181000ec1ab9008401780000804100311878008a
:1018200021107800e4804000640040003118780006
:1018300021107800e48040007207980064004000a6
:10184000f203200031187800211078001e00780083
:10185000218280008100e80082806000218288006f
:10186000ef0f500008003c0000298000120020000b
:101870009e0078008110dd008180ea000080600019
:101880000029880008003700102980009e02780097
:10189000f0805200120020008110dd008180ea00fb
:1018a0000080600010298800000000000a25a900bf
:1018b0005128800000042000008060000000e0004b
:1018c000010032000ac5a900000000000708a900b5
:1018d0000a25ef008e0778004f0778004440a900e2
:1018e0003400f9003200f900801f7800000e20005b
:1018f0004220b7004f0078004f06be004f05be00e3
:101900004f04be004f03be004f02be003600f90078
:101910000080fe000040060000a0fe003600f80037
:10192000849fbe00869fbe003200f8003400f8009d
:1019300014002000a40188000420200094018800e5
:10194000000000000000fa00f32e070001a8a90023
:101950008e0778004f0778004440a9003400f90052
:101960003200f900801f7800000e20004220b700ee
:101970004f0078004f03be004f02be003600f90052
:101980000080fe000040060000a0fe003600f800c7
:10199000849fbe00869fbe00881f78003200f8003a
:1019a0003400f80014002000a40188000420200066
:1019b00094018800000000000000fa00101180006f
:1019c000680060000000e00003003200308f250056
:1019d00011c0b3000148780010118000640060005d
:1019e0000000e00003003200408f250011c0b3006a
:1019f000014878006882800010002000ff3a07004c
:101a00000168a900618280008002fb000101e800fa
:101a100088014400a17d2500f0a02e000182410034
:101a20000010b800630420004608de00050a7800b4
:101a30008380b90000005100608288008e07780022
:101a40004f0778004440a9003400f9003200f90043
:101a5000801f7800000e20004220b7004f00780061
:101a60004f0478004f03be004f02be003600f9005d
:101a70000080fe000040060000a0fe003600f800d6
:101a8000849fbe00869fbe00881f78003200f80049
:101a90003400f80014002000a40188000420200075
:101aa00094018800000000000000fa0090118000fe
:101ab000680060000000e00003003200708f250025
:101ac00011c0b300014878009011800064006000ec
:101ad0000000e00003003200808f250011c0b30039
:101ae000014878008882800020002000c33a070067
:101af00003c8a900818280008002fb000101e80088
:101b00008801440061862500f0a02e00018241007a
:101b10000010b800630420004608de00050a7800c3
:101b20008380b90000005100808288008e07780011
:101b30004f0778004440a9003400f9003200f90052
:101b4000801f7800000e20004220b7004f00780070
:101b50004f0478004f03be004f02be003600f9006c
:101b60000080fe000040060000a0fe003600f800e5
:101b7000849fbe00869fbe00881f78003200f80058
:101b80003400f80014002000a40188000420200084
:101b900094018800000000000200fa00101180008b
:101ba000620060000000e0001c003200218f250070
:101bb00012c0b3000000eb0082487800000f7800ec
:101bc0001200370068828000100020008b3a070066
:101bd0001e0fe800618280008002fb000101e80026
:101be00088014400a17d2500f0a02e000182410063
:101bf0000010b800630420004608de00050a7800e3
:101c00008380b90000005100608288001e007800c7
:101c1000e30f5000ebff34002222a9000828a9009e
:101c20008e0778004f0778004440a9003400f9007f
:101c30003200f900801f7800000e20004220b7001b
:101c40004f0078004f0478004f03be004f02be00e3
:101c50003600f9000080fe000040060000a0fe00f3
:101c60003600f800849fbe00869fbe00881f780063
:101c70003200f8003400f80014002000a4018800ad
:101c80000420200094018800000000000200fa00f7
:101c900090118000620060000000e0001c00320033
:101ca000618f250012c0b3000000eb00824878006d
:101cb000000f78001200370088828000200020008a
:101cc0004e3a07001e0fe800818280008002fb0070
:101cd0000101e8008801440061862500f0a02e0083
:101ce000018241000010b800630420004608de00b5
:101cf000050a78008380b9000000510080828800c6
:101d00001e007800e30f5000ebff34003222a900e0
:101d10000848a9008e0778004f0778004440a900c2
:101d20003400f9003200f900801f7800000e200016
:101d30004220b7004f0078004f0478004f03be00e8
:101d40004f02be003600f9000080fe000040060091
:101d50000040da000000fe00000005005400f8001a
:101d60004239880050398800613988000500fc003c
:101d70005105200071398800a10a200071398800be
:101d800029e7a80000000000000000005400f9004e
:101d9000000006000400a100010037000400a000bc
:101da0005400f8005039880061398800a00f2000e5
:101db000a00288000000eb002100240041398800c7
:101dc000f10f20003208bb000400a700b200780029
:101dd0000198bb002ca7ec008301e900f9ff3a0051
:101de000680151000400a70068015100680050001c
:101df0001208bb00ddff3700f30f20005400f8008d
:101e00005039880061398800a1028800110024003f
:101e1000413988000208bb000388bb00d3ff3700ac
:101e20005400f80040398800d0ff3700f30f20003d
:101e3000f50f20005400f8005039880061398800ff
:101e4000a00f2000a00288000000eb000208bb00e9
:101e50000398bb000408bb000598bb0011002400d8
:101e600041398800c1ff37005400f800a102880002
:101e700080027800620040003549ba00e0804800e6
:101e80003204e0000410a700100032008301e900d2
:101e90000e0032002549ba003204e0000410a70009
:101ea0000a0032008301e900080032000408a300a0
:101eb000eeff320015c9ba003204e0000410a7009a
:101ec000020032008301e900e8ff3a005400f90003
:101ed0000000060003f0a200889fbe008a9fbe009b
:101ee0008c1f7800f8000700ff0033006450e10009
:101ef0004f0032006420e1005200320003826c0087
:101f000007003b000905d0000306d000820f5400f3
:101f10000c065d00020039000200320089017800e1
:101f2000030678008582550004003d000003fd0093
:101f30008103fd008502ea008b854200840f720058
:101f400002003b0060001000e08018006011b80043
:101f50000005eb007a28e1000a003900060078004d
:101f6000c75ddd00f707b200878075002d003700e0
:101f7000828171000a017800610560008180d100d2
:101f80000080d3008502e900f9ff3b000604400011
:101f90008784480002003b0060041400e0841c00b9
:101fa0000988a300070032008a81710082817100d4
:101fb000610164008904d1000884d3008b05e80026
:101fc000170037000978a30013003a000b00e00067
:101fd000130034008b05e9000804440089844c0098
:101fe0000a4474000978a3000d003a000b00e000d9
:101ff000070034008b05e9000804440089844c0084
:1020000001003a000b0020000978a300f7ff32001e
:102010000001eb0002003700828171000a017800a4
:102020006e0007000cf0a70001f0a000b700370019
:102030006420e10002003a00838f6c00b700330097
:102040000801be000200be00b0003700889fbe003d
:102050008a9fbe008c1f78009b000700a2003300ff
:1020600003866c006450e1002e0032006420e10021
:10207000330032006150e1002f0032006120e100a6
:102080003100320085855500eb07b00009002000c3
:1020900008042000050037000804440089844c002f
:1020a0000a0031000603430087834b000001530000
:1020b00081815b00f8ff33000203be000800a0002e
:1020c0000804440089844c00f6ff3900c639dd005d
:1020d0008301730001003200130020008904d10045
:1020e0000884d3000998a300050032000800a70067
:1020f0000300a0008904d1000884d3008b05e80008
:102100008904d1000884d3000001eb000281d200d1
:102110003200070001f0a1000cf0a70001f0a000c0
:102120007a0037006420e1007c0032000801be0024
:102130000200be00f7ff37006120e10077003200a7
:102140006000b800f3ff37000000200001f827000e
:10215000f0ff370014002000b70037000001be0078
:10216000440007000470a70003f0a10003f8a300d7
:1021700013003a006509b100100032000900350073
:102180006928e10002003500010028000000050078
:1021900000004000818048008502e900fcff3a0011
:1021a00000000600f88f4200050035008100d100d4
:1021b0000080d3008502e800fcff3a000000060022
:1021c0008000eb00000005004f89de0082017800ee
:1021d000b40037006011b800c20037008100200051
:1021e000618055000b003d000b00200061fe2f00b8
:1021f0000100e1001d003400828171006101640072
:102200008904d1000884d3000000e800faff3a00f6
:102210007100200061006400030070000200600093
:102220000900320061044400e0844c000988a500e4
:10223000050032008b05e8006808e10002003a0062
:102240008904d1000884d300f20f20000258e10075
:1022500005003d00c75ddd00f907b200898075000b
:1022600008007800000006000bf827008b007800bb
:1022700000000500c70ade00f107b200f50fb2004a
:1022800008003200e1cf4200020032000170a000dd
:1022900024000500810f70000100320004080500d1
:1022a00044000500810f700002003a001400050090
:1022b0008502e9000000400081c04800fcff3b00af
:1022c0000170a000240005000004be00e9ff070023
:1022d0000003be000405be000200be00e5ff0700cb
:1022e000844f7500000006000200be006450e1004b
:1022f000050036006420e100020036000968a300f2
:1023000001003a000800be000160a0004f067800fe
:102310004f05be004f04be0000000600f0ff2f0076
:10232000f1ff2700f9ff3700889fbe008a9fbe009b
:102330008c1f7800e4ff0700ebff330003866c007e
:102340006450e100240032006420e10027003200e4
:102350006150e100220032006120e10021003200e2
:102360008b854200eb07b1000134b800003ab80099
:102370000804420089844a00013ab8000030b800dd
:102380008880400009014a0004003300000040003a
:1023900081804800020149008b05e900c909dd0080
:1023a000830170000100320013002000c814de0019
:1023b0004814dd004709de001200b200c808de0044
:1023c0000884700085ff070001f0a1000cf0a70051
:1023d00001f0a000cdff37006120e100cfff320007
:1023e0000801be000200be00f7ff37006150e100a7
:1023f000fcff3a00c9ff37006022b8000602200047
:102400000000d0008180d2000482d2008582d200f8
:102410000000a0000202520083825a000300310033
:102420000202420083824a000000a1000603e90084
:10243000f3ff3a0000000600889fbe008a9fbe009e
:10244000841f7800a0ff07004f00780011003300c0
:10245000f0ff2f00838f6c0006003b000405650031
:102460000a00a7000800370009f0a60010002000ad
:1024700008003700820f5400838f5c00030039008e
:102480001000200001003e000000200009f0a7001d
:102490000000ea004f05be004f04be000000e0004f
:1024a00000000600881f7800030478000300e000a5
:1024b00007003d0060001000e08018006001190076
:1024c000e081190002003b0001f02d0003003700fd
:1024d0000400070008f0a70001f0a0004f047800f6
:1024e00000000600889fbe008a9fbe000082700028
:1024f0000402710004827100260032000004be0054
:102500000200be006011b8006b0920009502200097
:102510000182cf000a0039000541b1000082cf00de
:10252000070039000541b1000982cf0004003900dd
:102530000541b1000882cf00010039000541b1001a
:1025400005425200120032000a003b0082817100f5
:10255000610164008100d1000080d3008984d30030
:102560000884d3008b05e8000442e800f7ff3a0036
:10257000070037000804440089844c00000048002c
:10258000818048008b05e9000442e900f9ff3a0028
:1025900012ff07004f05be004f04be0000000600fa
:1025a000800078001104b100030035009101b100f2
:1025b00001003c000050a0000000060080017800ef
:1025c00002003700b15978000201e9000200e00082
:1025d000fcff3a000000060080017800020037008e
:1025e000815978000201e9000200e000fcff3a0096
:1025f0000000060080007800010178003104e0004e
:10260000fdff3a000000510000000600881f78001e
:102610000204780008017800e8ff07000800400085
:102620004f04780000000600881f7800000478003e
:102630008201780001017800880078006030210074
:10264000060007000000e00002003500000444001e
:10265000004ceb004f047800000006006200fa0016
:10266000889fbe008a1f78000005780081047800ea
:10267000020478008300780080f92f000f004000ea
:10268000390207009a979f00a9979f000000eb006e
:10269000b09f9f001885fb008a04fb000a05ea0032
:1026a0004f55de0050022000808f54000d00320094
:1026b000e10f55000b003a000a017800880078000d
:1026c0002f9097009f91970003000100a0979f0013
:1026d0000000e0008e0032003f9897000000e80004
:1026e000b09f9f000a04440050022000808f5400d5
:1026f000040032000900e000e6ff3a003f9897002e
:10270000840037000000eb00909f9f00809f9f0097
:10271000f0979f00e0979f00d0979f00c0979f0081
:1027200007003700c1b6250001005000000040003e
:1027300001b62500808040005f989700110070006e
:10274000d09f9f00880478000904780038457800fd
:102750008a00fb00c0b62500f60107000000e0007b
:10276000f0ff3a00a1c2b300814f55000e003a00bd
:10277000cf8897000180e900c08f9f00100078008b
:10278000c09f9f000000e00005003d000000ea003f
:10279000c09f9f005f9897000020a000d09f9f00df
:1027a0000904e8000f003700c09f9f000000eb0005
:1027b00005003700f2ff2700820f500002003200b0
:1027c000ea00b9000080400009047800880478001d
:1027d000b900fb000103b100e98f5000f5ff36009e
:1027e000c09f9f00e0c2b300984f1000020032006b
:1027f0000080eb0019003700a0c2b300d84f1000d2
:1028000007003a00cf8897000180e900c08f9f0041
:1028100010007800a09f9f000804e8001000370017
:102820000000eb00a09f9f008800780005003700a3
:10283000f3ff2700830f500002003200ea00b900c6
:102840000000410001047800880078003101fb009d
:102850000203b100e90f5100f5ff3600a09f9f0071
:10286000984478008900fb0080b52500b10107007d
:102870000000e000020032000804e8000100370018
:102880008044eb00c97f9f0080c6b30080cf540016
:1028900004003a0098cf14000a003a006640500045
:1028a00006003700c0c6b30080cf540005003a00d0
:1028b00098cf140003003a0065404000c07f9f009d
:1028c0000804e800e3fb2f008f81410018417800e5
:1028d00081f92f008f804000a0f92f000f004000e9
:1028e000100007000000e00009003a00e1fb2f00a3
:1028f0008f804000a0f92f000f0040000e05070058
:102900000000e000020035000804e80061ff370025
:102910000080eb004f0578004f04be000080fa00f5
:1029200000000600889fbe008a1f7800000478001f
:10293000824478000305780070c6b30080cf54004d
:1029400021003c0000c0e90080cf5400e6003d00bb
:102950007240500080cf5400530132000d003c0003
:102960006c40500080cf540066013c0000c0e9007c
:1029700080cf5400dc003d0050c2b30080cf540033
:102980005d0132007c40400080cf54005d013a0080
:10299000d500370010c6b30080cf5400d2003200fb
:1029a00004003c006940500080cf540055013a00bb
:1029b0007300370030c6b30080cf540018003200d7
:1029c0000040e8000900370000c7b30080cf540082
:1029d0002701320008003c0000c0e90080cf54000d
:1029e000f000320066003c006540500080cf54008b
:1029f00044013a001000370050c7b30080cf5400a4
:102a00005f0032006340400080cf54005c00320021
:102a10006540500080cf54003a013a00220137004f
:102a20001181e900820878007800900000054500d7
:102a3000124d78003901370028609000c2c6b300fb
:102a4000824f500008003a001101780064005100e4
:102a50008008780090009000100078004f89de0018
:102a6000820178001600370012c7b300824f500071
:102a700003003a0011027800680052000500370098
:102a8000a2c6b300824f500008003a0091027800bd
:102a9000688052008008780090009000200190002b
:102aa000b001900010007800050037001180e900a7
:102ab0008008780010007800cf80de006109b9003e
:102ac000009cbe000294be002862900085c6b30040
:102ad000854f52000d00320025c6b300854f5200cd
:102ae00004003a000000fb00cf80de006109b9005d
:102af0000800370045c7b300854f5200030032007d
:102b0000e6c24200854f520004003a00cf80de004a
:102b10006109b900009cbe000294be001802780052
:102b20009802900028039000b8039000780090006d
:102b3000e00f5200e08f5a00e00f5b00e08f5b0077
:102b400003003d0080004500d2c2b3000a003700f8
:102b5000881090000118a300030032008000450097
:102b6000b2c2b300040037000108a30059003200cc
:102b70008000450002c2b30082487800530037004d
:102b800028609000c2c6b300824f500009003a008e
:102b90001103780064005300800878001002780068
:102ba000900290006033b8000400be000601be0031
:102bb0001600370012c7b300824f500003003a00de
:102bc000910278006880520005003700a2c6b30069
:102bd000824f500008003a0011037800680053004b
:102be000800878009000900020019000b0019000d3
:102bf00010007800050037001180e9008008780097
:102c0000100078008000eb006011b800009cbe004e
:102c10000294be002862900085c6b300854f520022
:102c20000d00320025c6b300854f520004003a0063
:102c30000080fb008000eb006011b8000800370046
:102c400045c7b300854f520003003200e6c2420080
:102c5000854f520004003a008000eb006011b8007c
:102c6000009cbe000294be00081090000038a30033
:102c70001800320018007800980090002801900099
:102c8000b8019000e00f5000e08f5800e00f5900ad
:102c9000e08f59000f00320080c7b30080cf54008e
:102ca0000300320080c5b30080cf540009003a0011
:102cb000780090008000450002c3b300824878008d
:102cc0000000e80080004500894878000000e80026
:102cd0007004980078009000000545006a04980090
:102ce000894078006d00370028619000c0c4b300af
:102cf000804f510008003a0091037800688053002b
:102d0000800878009000900020019000b0019000b1
:102d100010007800060037001101780064005100af
:102d20008008780090009000100078009507070058
:102d3000009cbe000294be00b80090007800900095
:102d40000100e00003003d0080004500d2c2b30056
:102d50000a003700881090000118a3000300320019
:102d600080004500b2c2b300040037000108a30090
:102d7000050032008000450002c2b300824878009e
:102d80000000e800700498007800900000054500fd
:102d90006a04980089407800080078007e000700e7
:102da0006000370028619000c3c6b3001180e900bd
:102db000834f5100220032000a003c00e4c1510060
:102dc000834f51002500320083c1e800834f51003a
:102dd00013003200e8c15100834f51001e003a0039
:102de0000a00370043c7b300834f51001b00320075
:102df000e6c14100834f510018003200e9c1510083
:102e0000834f510014003a00050037008008780015
:102e100010007800485c90000848780041003700b6
:102e20008008780010007800680a9000cfa2de00c9
:102e3000612bb9000498be000690be00390037002f
:102e4000800878001000780068099000cf91de00bb
:102e50000288be00330037001180e9008008780046
:102e600010007800680c9000080878002d003700ea
:102e70001180e9008008780010007800cf80de0023
:102e80006109b900009cbe000294be007800900069
:102e9000000545006a04980081c7b3000800780067
:102ea000680207001f0037001180e90080087800e1
:102eb000100578006a049800d80c90000900e00022
:102ec00004003d000a007800cafd07008004780075
:102ed00007003700090178008000eb000a00780045
:102ee000230007000000e000010032008a045000c7
:102ef000190c98000b003700780090000005450081
:102f00000500370078009000000545000904e00046
:102f100001003a0059c2b300094d78000000e800f2
:102f2000700498000000eb004f0578004f04be00cd
:102f3000000006008001eb00030037008301e80079
:102f40000404e00005003200030140001242780052
:102f5000814f5200f9ff3a00010037000001eb00f9
:102f6000020078000000060001087800000006005a
:102f700003003700b0cf1000050032000201e90065
:102f8000800178000200e000faff3a00000005002e
:102f90000300780000000600cf04b000889fbe0048
:102fa0008a9fbe008c9fbe008e1f780000067800ae
:102fb000814678001c0078009c0090002c01900055
:102fc000bc019000d0979f00e1979f00f2979f006f
:102fd000839f9f0010c6b30080cf560012003200be
:102fe00010c4b30080cf56000f0032005c08900080
:102ff0000000e00002003d006000200009003700f2
:103000000000e00008003a0070c6b30080cf560010
:103010000300320070c4b30080cf560002003a00b3
:1030200010002000500e98008c00780080fa2f00cd
:103030000f004000d9010700e20f50000f003a00d6
:1030400030002000100e980000aa250011c6b30021
:1030500081cf560019003200e4c0400081cf5600f5
:103060001600320040aa25008140e80081cf5600ba
:1030700012003a0000aa2500100037000000e0000e
:103080001400340030002000100e980080aa2500a3
:1030900011c6b30081cf560008003200e4c04000e2
:1030a00081cf560005003200c0aa25008140e8000b
:1030b00081cf560001003a0080aa2500ec00900064
:1030c000b0487800b06878001040780090409800d0
:1030d000ac01370011c6b30081cf560003003200a7
:1030e00011c4b30081cf56000e003a00ec009000ee
:1030f00002c3b300825878006106980082c5b3000d
:1031000013c6b30083cf560001003a0082c7b30054
:103110008258780061069800fc0090008180e800e9
:10312000710698000000e00005003a00c0979f007b
:103130008001eb0022fb2f000f0141008d013700c1
:1031400010c6b30080cf56000600320010c4b30092
:1031500080cf56009c003a0011ac2500d1b79f00eb
:103160000200370002ab2500d2b79f005c08900038
:103170001b0220000000e000010035008005e8008f
:103180000b05e8006022b8006033b8005f9097003c
:10319000ef9097007f9197008f999700c1050700e6
:1031a000000278001c0078009c0090002c01900028
:1031b000bc0190000400e00001003d0003f0a2000b
:1031c000d0979f00e1979f00f2979f00839f9f00f9
:1031d000cf919700e4815100c3979f000040eb001e
:1031e000a0779f003efb2f000f07470031003700fc
:1031f000c201200003002000a0fa2f000f004000b1
:10320000ea0307005f909700ef9097007f91970087
:103210008f99970090b79f00a1b79f00b2b79f000a
:10322000c3b79f00760607000004be00670555007f
:103230004240a9000c0034009d0607000002be00b9
:103240000203be001fb09700afb097003fb19700d8
:10325000cfb1970010070700d0979f00e1979f001c
:10326000f2979f00839f9f00670747007000200030
:10327000050037006f676400cc48dd004444de0081
:1032800008847000c4ccde00e00f5400e08f5c00c6
:10329000050034000000e900e10f4000f5ff3a00ae
:1032a000010037000067eb000000e900fdff3b0074
:1032b000670747000a00e000090034006022b800f8
:1032c0006033b8005f909700ef9097007f91970070
:1032d0008f999700780507000000e000c4ff3c00cc
:1032e00032fb2f000f014100020757008e017800ca
:1032f0008b0f5700010034008b0178000300e000c1
:103300002b0035000040eb008e8f51000a003d007d
:1033100082fa2f000f01410003004100b0489000e5
:10332000f0c0b300e7cf500003003c000040eb00ca
:1033300001003700810178008300e90034fb2f0091
:103340000f0242000101420012427800804f5200f9
:10335000f8ff3200ef4f500001003a000449e80046
:103360000100e00007003d008301e800cf929700d4
:10337000e4824200c5979f0022fb2f000f0141000d
:103380000200370032fb2f000f0141008300410093
:1033900003007800040037004102fb00dfb2970011
:1033a00004824200944878000000e900faff3b00e4
:1033b0005c0890000000e000ee003d000300e90022
:1033c000500e9800eb0037005f949700ef94970041
:1033d0007f9597008f9d97006022b8006033b800fa
:1033e0000800be000a01be002e0507000000e00034
:1033f00005003d000bf0a200d8979f00e9979f00c1
:10340000fa979f008b9f9f0070592700cf909700dd
:103410000088b900026a2800130020008505070013
:1034200064045000c8979f0017003b006304140019
:10343000c0ff2f00000464000800ea00c0979f004e
:103440005f909700ef9097007f9197008f9997007a
:103450002aad2500090037000808a3000500320046
:103460001a0278009a0290002a039000ba03900092
:10347000130607000884d100680545000800e00035
:10348000f5ff3c001c0037000800e0001e00320081
:10349000c0ff2f0000046400c8979f002aad2500dc
:1034a0006000b8000200200003ff2300090037007d
:1034b0000808a300050032001a0278009a02900062
:1034c0002a039000ba039000fd0507000884d1008c
:1034d000680545000800e000f5ff3c000002be0062
:1034e0000203be005f909700ef9097007f919700d6
:1034f0008f999700f5040700d0979f00e1979f00f0
:10350000f2979f00839f9f005c0f900060c6b300fe
:1035100080cf5600040032006000200061c4b30078
:1035200081cf560002003a00cf9097006a80400099
:103530000e074000f30f5700010034003e01200049
:1035400000c3b300a0779f003bfb2f008f85450091
:10355000350037005fb09700efb097007fb197005c
:103560008fb99700a60507000004be006807570042
:103570004240a90010003400cd0507000002be0043
:103580000203be005fb09700efb097007fb19700d5
:103590008fb99700400607006022b80046782d00da
:1035a00077192400c6050700d0979f00e1979f0078
:1035b000f2979f00839f9f00e88545008a002000c6
:1035c0000801be000c003700a40020000500200008
:1035d000a0fd2f000f004000930207005fa8970096
:1035e000efa897007fa997008fb1970004c3b3009d
:1035f000846541000001be00e00f5100e08f5900da
:10360000060034000a05e900e10f4500eeff3a002c
:103610000200370000c3b300806578000a05e900a6
:10362000fcff3b00e88545000e00e0000d00340083
:103630005f909700ef9097007f9197008f99970088
:10364000d0b79f00e1b79f00f2b79f0083bf9f00f4
:103650006022b8006033b800970407000000e00063
:10366000bcff3c0031fb2f008f804000818555005e
:103670004f91970067004100c0979f0002003700fc
:103680008b05e9000000e900010178008200780064
:1036900003c3b300b1cf1100f9ff3200c0979f0000
:1036a000dc09900061c6b30081cf560003003200f0
:1036b00061c4b30081cf560002003a000000e80068
:1036c000090037001000200051c6b30081cf56001a
:1036d000050032000d40780050c4b2000080fb00ad
:1036e0000000e9004f00de00830140008b8f510095
:1036f000010034008b0178000300e0001d0035005c
:1037000000c3b3008b8f510006003d00030241004f
:103710006940400041c3b30094cf100001003c0059
:10372000694050008300e90081004100010037003a
:10373000840178000302e90001037800a1427800c7
:1037400080cf5200faff320091c3b300814f500086
:1037500001003a00054be8000400e00005003d00d0
:103760000201e9008301e8004f9297000402e8009b
:10377000c4979f004f9297008d4078000c0078000e
:10378000050307004f0778004f06be004f05be0037
:103790004f04be00cf04b10000000600889fbe00a9
:1037a00000047800e68440001900d0004500de00e7
:1037b000f27f2000820f500010003a00000ceb0056
:1037c000990478006f816400200020001b003a00fb
:1037d000210190000200e00018003a001101900061
:1037e0000200e00015003a00100020001100e00087
:1037f0001200320020002000100037000000e0001e
:1038000004003a00010078001c0207000000e000fc
:1038100008003c00f20028001901610001fe2300ad
:10382000810c710021c02f00010c40000080eb00d2
:1038300002003700000ceb000000eb004f04be005c
:1038400000000600fc874700889fbe008a9fbe00dc
:103850008c9fbe008e1f78000006780080c5b300e4
:1038600080cf50000a0032007740400080cf5000e7
:103870000a0032006940400080cf50000b00320047
:10388000509e250080bf9f00ae0020000a00370038
:10389000429d250082bf9f0006003700539e2500f1
:1038a00083bf9f008e00200003003700549e250038
:1038b00084bf9f000e0120001c0278009c02900033
:1038c0002c039000bc0390000605be000404be005b
:1038d00040c6b30080cf5000030032006540400076
:1038e00080cf50000b003a00e00f5200e08f5a00ea
:1038f000e00f5b00e08f5b0006003d006000b80059
:103900006011b80004045000858458000605590071
:1039100087855900e80f570004003200400020005e
:10392000f00f57003c003a00010037003000200043
:10393000e00f5400e08f5c00e00f5d00e08f5d0061
:1039400004003a00dc0890008d0120000100e00036
:10395000070032008e00e900888060008fba97006f
:103960008180420091407800f1ef9f007d012000ae
:10397000800078008100e900050033008b05d1004c
:103980000a85d3008984d3000884d300f9ff370067
:10399000089ebe000a96be00130037008d06e9009f
:1039a0008e00e900848060000fb99700810041001b
:1039b0001141780083fd2f008d81410082f779004d
:1039c000800178008301e900050033008783d1007e
:1039d0000683d3008582d3000482d300f9ff370029
:1039e000049ebe000696be001c0278009c02900059
:1039f0002c039000bc039000e00f5200e08f5a00af
:103a0000e00f5b00e08f5b00930034000d00e000ee
:103a1000e2ff3c00900037002c60900081c6b300ac
:103a2000814f50000b00320006003c000004e00013
:103a300008003200e6c05000814f500052003a00aa
:103a400004003700c1c6b300814f50004e003a0059
:103a5000230037000800e00004003a005c089000f2
:103a60008d0120000000e000070032001100090075
:103a70000e84d8000fba9700010042001040780071
:103a8000f0ef9f007d012000110009000e84d80096
:103a90000b003700110009000e04d8008d06e90064
:103aa0008e81b900020454008fb89700088440004a
:103ab0009841780082fd2f000d0141008377790045
:103ac000000478000800e000020032000d00e00071
:103ad000f0ff3c00cfc4de00614db9002700370085
:103ae000e00f5400e08f5c0004003a005c08900096
:103af0008d0120000000e000080032006171b90073
:103b00000800be00e60407000fba970080004200dc
:103b100091407800f1ef9f007d0120006171b900b4
:103b20000800be0034fa07000c0037006171b900cc
:103b30000800be00bf0307008d06e90080f1b90050
:103b4000020454008fba970008844200984178001c
:103b500082fd2f000d014100837779000004be0033
:103b6000e00f5000e08f5800020032000d00e0002e
:103b7000eeff3c004fcdde008a057800089ebe00b7
:103b80000a96be0034003700e00f5400e08f5c005e
:103b9000e00f5d00e08f5d0004003a005c089000db
:103ba0008d0120000000e0000a0032006172b900bf
:103bb000612bb9000800be000a01be0063050700c2
:103bc0000fba97008000420091407800f1ef9f000b
:103bd0007d0120006172b900612bb9000800be00b0
:103be0000a01be00520507000e0037006172b900dd
:103bf000612bb9000800be000a01be00570507008e
:103c00008d06e90080f2b900040454008fba9700d1
:103c1000088442009842780084fd2f000d02420083
:103c200085777a00009ebe000296be001c047800d4
:103c30009c0490002c059000bc059000e00f5400ff
:103c4000e08f5c00e00f5d00e08f5d00020034005b
:103c50000d00e000e5ff3c00e80f570010003a00bf
:103c60000c1090000038a3000d003200f78f5600b2
:103c700006003e0080fd2f000d004000ef40780060
:103c800000c3b30080cf50000500320002c3b30070
:103c900071fd2f008d8040008d06e90082f77800cd
:103ca00078811600120e98006c00900083fd2f00a2
:103cb0008f8141008d80410040fa07001c08900070
:103cc000dc089000810f500006003d00008050008d
:103cd000000e98000c1090000040a1000016980003
:103ce0000f0037000100e0000d003d008c10900037
:103cf000f4806000f08f500009003a007c099000c9
:103d0000fc009000810051000c099000828050005e
:103d1000008050004240a90001003400000e9800cd
:103d20004f0778004f06be004f05be004f04be008f
:103d3000cf01b100000006000400fa00889fbe0019
:103d40008a9fbe008c1f780000047800010678006e
:103d5000f80d9000780090008085550008089000cc
:103d6000808555001808900080855500280890002f
:103d700080855500380890008085550048089000df
:103d8000808555000002220090bf9f0000032300a1
:103d9000a0bf9f00081090000028a30015003a0063
:103da0000b00e000130034000b0578008a04780053
:103db000e20f55000100360029002000c8019000e4
:103dc00009017800ee8057005800900003000100c0
:103dd000500498000000e0008c0032006808900059
:103de00009004000600c9800090555004240a900f8
:103df000eeff3c00780190000200e0000c0034006f
:103e0000c80190008c007800580090000300010069
:103e1000500498008080eb000000e0007c0032003d
:103e2000e80890007800900000804000600c980046
:103e3000880c90000900e0001100340009057800aa
:103e4000e28f5400010036002a002000c8019000d3
:103e50000a017800ec805700580090000300010030
:103e6000500498000000e0006800320068089000ec
:103e70000a004000600c98008a845400edff37006f
:103e8000180990000200e0000c003400c801900006
:103e9000e8009000580090000300010050049800d2
:103ea0008080eb000000e00059003200e80890003c
:103eb0001808900000804000600c9800a80c90004a
:103ec0000900e0001100340009057800e28f540079
:103ed000010036002a002000c80190000a01780085
:103ee000ec80570058009000030001005004980037
:103ef0000000e00045003200680890000a00400021
:103f0000600c98008a845400edff37003809900057
:103f10000200e0000e003400e80090001808900055
:103f200080804000c801900058009000030001000c
:103f3000500498008080eb000000e0003400320064
:103f4000e80890003808900000804000600c98005d
:103f5000c80c90000900e000110034000905780049
:103f6000e28f5400010036002a002000c8019000b2
:103f70000a017800ec80570058009000030001000f
:103f8000500498000000e000200032006808900013
:103f90000a004000600c98008a845400edff37004e
:103fa000081090008000eb000028a30018003200e9
:103fb0000b00e000160034008b047800090578003f
:103fc000e28f5400010036002a002000c801900052
:103fd0000a017800ee8057005800900003000100ad
:103fe000500498000000e0000800320068089000cb
:103ff0000a004000600c98008a8454004240a900e6
:10400000eeff3c008000eb00010037008080eb00f9
:10401000010078004f0678004f05be004f04be0037
:104020000080fa0000000600881f78008a9fbe000a
:104030008c9fbe00000478000205be000406be008e
:104040000401be000a00be007a020700008cbe0018
:104050000c01be00950307000005550081855d0039
:104060002a0498003b049800080078004f06be0020
:104070004f05be004f04780000000600e600400037
:104080001101780005002800850261006f016100c0
:104090008208780002003200120020001100370070
:1040a000a0019000120020000300e0000d003a0083
:1040b000900190000300e0000a003a001000e000c8
:1040c00008003a0036003700640340009608780084
:1040d00080017800530b780090097800040878007c
:1040e00070015100110278000400e000f6ff320078
:1040f0001300370064024000140378004f33de00e1
:10410000838141008308730080017800d303780025
:10411000cf3bde001403780006034300068a7300d9
:104120001302780004024200100378004f33de00cf
:104130008609720090017800038841000201e900bd
:1041400091017800ef8f5100eaff36001000370030
:1041500080017800530378004f33dd001002d10056
:10416000040873006402400094037800cf3bdd0034
:104170001303d10086897300110378004f33dd00eb
:104180009401d100030a73009108d1000201e800f4
:1041900091017800ff8f5100edff3e00ef88610034
:1041a0009188720002007800000006000400fa0006
:1041b000889fbe0000047800e604440019007800df
:1041c0008000d000c508de00f47f2000848f5000fe
:1041d0000e003a00ef006000200020006b003a0063
:1041e000a80090000100e00068003a0098009000ec
:1041f0000100e00065003a00100020001800e00017
:104200006200320020002000600037000100e00062
:104210000a003a0008007800c2bf9f00d3bf9f0089
:1042200096ff0700800078000000eb004fb9970070
:10423000dfb997000100e00054003c004f88de0029
:104240000281400083014800e07f2000800f510080
:10425000e08f59000d0034001900e00004003d001b
:104260006000b8000200200003ff2f0003003700a9
:104270006000b8000200200003ff2700009cbe0081
:104280000294be001000200040003700e00f5100f3
:10429000e08f5900050034004411dd00f0002800d3
:1042a00019006000800c7100370037001900780099
:1042b00004002800040260006f0060000040a000bd
:1042c000800c7800d0fc2f00f1ff2f00800f5100f0
:1042d000818f590006003d00840c78000000eb003f
:1042e0002004980010049800000ceb002700370011
:1042f0006f0141000600370008007800500c78007c
:10430000e40044001108780099087800800ceb0064
:10431000700051007001410001fe2f0082804000ba
:10432000ef8f4000f4ff35000000ea001500320076
:104330008800780070011000d1027800822add0028
:10434000980178008019de00038c72006404440038
:1043500098027800822add00910178008019de0041
:1043600083887200990078000209dd0098007800c7
:104370008008de00010c7100990078000008de0062
:10438000800c7800990c72000080eb004f04be0096
:104390000080fa0000000600f0874700889fbe00fa
:1043a0008a9fbe008c9fbe008e1f7800000478009c
:1043b000814478000205be00040678000b00e0008e
:1043c00002003c001b0020006a9f250060c6b3006d
:1043d00080cf54000e00320060c4b30080cf540080
:1043e0000b00320070c6b30080cf540003003200cf
:1043f00070c4b30080cf54009d003a00e40f460023
:104400008300350058089000800f560080003d0062
:104410000c06e80060c6b30080cf540010003200e4
:1044200060c4b30080cf54000d003200081090002b
:104430000038a30004003a0058089000808f55000f
:1044400001003d005b0c9800580890000c005000e3
:10445000500c980002003b000000eb00500c98004c
:1044600098089000680090000c00e00028003c00d4
:104470000100400002c3b300024878008100e80058
:10448000110c9800580890000000e00003003c0068
:10449000081090000038a300060032006800900069
:1044a00001004000e2c2b300024878008100e80049
:1044b000110c9800580890008c00ea00810f500001
:1044c00001003d000006ea008c00ea00210c980083
:1044d000000646005c0c98008b0f5600010034006b
:1044e0000b0678003c0c9800e8009000180890003b
:1044f000008040000c0178008a0078002ff8070047
:10450000580890000c0650004c0c9800c200370070
:104510008c8f550019003d00010040000b01780010
:104520008a00780025f807001808900000804500f0
:10453000100c98008b0556002b0c9800d8089000a2
:104540000100e00003003c00881090000138a30047
:1045500007003200e800900000804000e1c2b30094
:1045600001487800380890000000e800300c9800fe
:1045700058089000400c9800a70037000100400048
:104580000c0178008a0078000cf8070018089000e9
:1045900000004600100c98008c855500d80890004b
:1045a0000100e00003003c00881090000138a300e7
:1045b00006003200e800900080804000e2c2b300b4
:1045c000824878000000e800100c9800580890001d
:1045d000808f55000100340080057800e8009000cd
:1045e00018089000008040008c0045000b01780006
:1045f000f2f70700180890000b004000100c98001c
:10460000580890008b0550002b0c98008200370052
:1046100070c6b30080cf54000300320070c4b300f2
:1046200080cf540012003a0058089000808f550047
:1046300004003d00081090000038a30001003a007b
:104640005b0c9800580890000000e900500c98009e
:1046500002003b000000eb00500c980070c6b30055
:1046600080cf540009003a0059c6b3000c0037004f
:1046700010c6b30080cf54000600320010c4b3004f
:1046800080cf540006003a000400370059c4b3003c
:104690000300370009c7b3000100370009c5b300a4
:1046a00018089000e8009000808040009a48780048
:1046b0000000e800100c9800d80890000100e0000d
:1046c00003003c00881090000138a300060032006f
:1046d000e800900080804000e2c2b3008248780089
:1046e0000000e800100c9800580890000000e0005e
:1046f000100034008b05e900808f55000100340064
:1047000080057800e80090001808900000804000c4
:104710008a00e8000b017800a8f70700180890004d
:104720000b004000100c9800580890008b055000ba
:104730002b0c9800e80090001808900000804000c2
:10474000095878000005e8000c00e000040035007e
:10475000b1c2b300014878008a067800040037002f
:10476000d1c2b300014878008a0678000c06ea003e
:10477000fd8557000007eb0009003700a20020006c
:104780008c007800728057003b0007007fb09700d4
:104790008fb89700816d7800000678000e07e8005a
:1047a0000c00e000f5ff3c00e10f570013003c0057
:1047b00050c6b30080cf54000300320050c4b30091
:1047c00080cf540003003a008a06780000c3b3008b
:1047d000805e78000e00e00008003a0000c3b300dd
:1047e000805e7800050037000e07e900fc80570066
:1047f0000e80400001c3b30090de40000e00e000d8
:10480000f9ff3c00e800900018089000008040008c
:10481000808656003d0c98000810900074006000df
:10482000f00f50000e003a009808900078009000b9
:1048300000804000a808900001004000b8089000e7
:1048400001004000c808900001004000f8089000f6
:10485000810f500002003d0000805000000c9800c5
:104860004f0778004f06be004f05be004f04be0044
:104870000f01b100000006008002780001037800fb
:10488000110009000203d80080017800830a780033
:104890008299b900820053009102980005007800c7
:1048a000000006008f1fd100090307008f87e90071
:1048b0000000e00000000600809feb0004030700fa
:1048c0008f87e9000000e000000006002800fa00e1
:1048d000889fbe008a9fbe008c9fbe0003866b002f
:1048e0008f0007006400e100440032006408e1002a
:1048f0004a0032006100e100460032006108e10038
:1049000049003200ec0647006000b8003d02be00de
:104910003d03be00f48657006011b8003d04be00a0
:104920003d05be007d0320000b0037000000a00005
:104930008d06e900130032000402420085824a001d
:1049400006034b0087834b00000040008180480035
:1049500002014900838149000802520089825a00fd
:104960000a035b008b835b00f0ff3b000802420000
:1049700089824a000a034b008b834b008d06e900b5
:10498000edff3a008482720086827200f707b2005f
:104990008782720001003200150020001e04900082
:1049a0003e0b900006035400e63fb0000368a300ee
:1049b000070032000000a7000500a0008301d1001d
:1049c0000281d3008180d3000080d3000603e80079
:1049d0008301d1000281d3008180d3000080d30005
:1049e0000002eb000482d2002100070003f0a100c6
:1049f0000cf0a70003f0a0005d0037006402470040
:104a00006408e100570032003400be003401be00eb
:104a1000f6ff37006108e100520032006011b80073
:104a20006000b800f1ff370003ff270002002000fc
:104a3000fbff3700839f68000100e00002003d009b
:104a400060001000e08018000300e00002003d005c
:104a500060011100e081190067f607004f00e000d7
:104a600002003b0060001000e0801800000006001b
:104a70001800200057002000080453000d003d00de
:104a80000600200097fc2f000740e1001e003400c4
:104a900084827200610260008301d1000281d30030
:104aa0008180d3000080d3000804e800f8ff3a00ba
:104ab00047002000610460000504740004046400e1
:104ac0000d00320061004000e080480060014900b4
:104ad000e081490003b8a500070032000603e800a2
:104ae0006538e10004003a008301d1000281d3005f
:104af0008180d3000080d300f87f20000830e100df
:104b000003003500080378006000b8006011b800a9
:104b10004433dd00f300b20083017300000006009f
:104b2000680447000294be000094be00fc044700e5
:104b30008694be008494be0009007800ae0207008f
:104b400008007800ac02070099007800814f7000df
:104b50000b003b000800be00860207004f00b100ba
:104b600003003700f3ff2700f2ff2f006110b900a8
:104b70004f06be004f05be004f04be000080fa0085
:104b80000000060081037800baf507000001be00ae
:104b90006000b8000478a30013003a006220e1002e
:104ba00015003e000d0039008301d1000281d300c1
:104bb0008180d3008301d1000281d3008180d300a2
:104bc0008301d1000281d3008180d3000538b00079
:104bd000c42add00f300b2008381720007f0a70051
:104be00003f0a00000000600f3ff2700f2ff2f00f3
:104bf0006110b900fbff370003ff2700f7ff370004
:104c00001400fa00889fbe008a9fbe008c9fbe00e1
:104c10000004be000205be00680047000a90be0006
:104c20000890be00740207000070a7000bf0a100fe
:104c3000304320009e02900080825200b0fe2f0080
:104c40000028e10011003d00b0fc2f000028e10029
:104c5000150034001e0990008e0890007e00900020
:104c60000501b0000201d1008180d3000080d30093
:104c70008502e800fbff3a000b00e000bcff3b00b0
:104c800060001000e0801800b9ff3700f0ff2f002f
:104c9000f1ff27000b00e000b5ff3b0001002800fa
:104ca00000002000b2ff37006000b800b0ff3700fe
:104cb0004f89de0082017800760237000000000094
:104cc0002800fa00889fbe008a9fbe008c9fbe000d
:104cd00003866b0092ff07000028a30064003a00df
:104ce0000128a30068003a000008a30062003a000f
:104cf0000108a30066003a001e009000be08900064
:104d000081064000ed3fb100f4805700ee019000b5
:104d1000111ab8008e099000311bb8009e0990004e
:104d2000311cb800511db800f4855700460007003b
:104d3000fe0190003a0007008b85e8003e00070066
:104d40008e09900040000700ee019000340007003b
:104d50008b85e800380007008e09900040000700ae
:104d60009e0990001b18b800890440000a8548007d
:104d7000fe019000340007008b85e8003800070032
:104d8000ee019000300007008e0990001b18b8005b
:104d9000890440000a8548000a98a30008003a00e8
:104da0000402420085824a0006034b0087834b00c1
:104db00008044c0089844c000a054d008d06e9006a
:104dc00084827200850273004c3add008502720015
:104dd0000100320015002000443ade001400b20049
:104de0004538de00cb45dd000b007000c540de001d
:104df000cb4ddd008b8070004549de00cb55dd00da
:104e00000b017100c551de000d03780018ff07008b
:104e100003f0a1000cf0a70003f0a00054ff37003e
:104e20001b18b8008502400006834800e0834b0051
:104e300060044c00070037001b18b8000603400050
:104e400087834800faff37001b18b800870340002b
:104e500008844800e0844c0060054d000000060016
:104e60001b18b8000804400089844800faff370086
:104e70000108a3003bff3a005800be0000000000fc
:104e80005801be00e2ff37000008a30035ff3a00da
:104e900009047800f8ff370007f0a2000e01370080
:104ea00055f507000400be0000000600020ab90024
:104eb000001bb9000200b8008100420081004300dd
:104ec00000000600889fbe008a9fbe00300442009a
:104ed000b0844a0030054b0090854b006000b10063
:104ee0000898be000a90be000440e10005c8e10039
:104ef00006d0e10007d8e100020031006800400060
:104f00001008e8004f05be004f04be000000060078
:104f1000889fbe008a9fbe00100478009004900015
:104f200020059000b00590000418540005985c001e
:104f300006185d0007985d00110020000440e100a4
:104f400005c8e10006d0e10007d8e1000100390002
:104f50008000eb00108810004f05be004f04be001b
:104f6000000006001200fa00889fbe008a9fbe0063
:104f70008c9fbe00e0b79f00f1b79f0082bf9f00eb
:104f800093bf9f000605be000404be000000eb00b6
:104f9000d0b79f00c0b79f00b0b79f00a0b79f00d9
:104fa00090b79f000006eb005fb19700cfb097006d
:104fb000820141003fb097000200e00004003d0084
:104fc000370007007e805700beff07000300370050
:104fd000330007007e805700cdff0700dfb6970043
:104fe0000d00e0000c0035006fb29700ffb2970093
:104ff0000fbb97009fbb970010002000010020000e
:105000006011b80000027200818272000203730016
:10501000838373001b0007000c06e80001042000d6
:10502000810f5600e0ff3a000d00e00004003d0053
:105030000802be000a03be007e805700a1ff0700e1
:105040005fa897000000e00005003a001fb297003b
:10505000afb297003fb39700cfb3970009000700a6
:105060006fb09700ffb097000fb997009fb99700f6
:105070004f06be004f05be004f04be000080fa0080
:10508000000006000100070000000600a4b79f0012
:10509000b5b79f00c6b79f00d7b79f0000000600b6
:1050a0004f09de0082817100b3b79f004f01de001f
:1050b0008180400082807000a1b79f008fb0970070
:1050c0004f09de00000040000200700090b79f0012
:1050d0007fa897004f01de00818040008280700031
:1050e00081b79f000d0007004f3ade00000040002e
:1050f00004007000f0af9f000800070004024200a7
:1051000085824a0006034b0087834b00dfff0700c0
:105110000802be000a03be00000006002fb297007e
:10512000bfb297004fb39700dfb3970000000600af
:10513000881f780018002000881f780089ff07006a
:105140008f87e9004f04780000000600801feb0005
:1051500084ff07008f87e90000000600889fbe00db
:105160008a9fbe00e00f5000e08f5800e00f59000a
:10517000e08f59000c003d006044b8006055b80055
:105180000000540081805c0002015d0083815d00ad
:10519000180020001500070008003d001800070057
:1051a0000004eb00050037000004eb000f000700cf
:1051b00002003d001200070018002000dcff07007d
:1051c0000800e000060032006022b8006033b8003a
:1051d0000000520081805a0002015b0083815b0065
:1051e0004f05be004f04be0000000600e00f520055
:1051f000e08f5a00e00f5b00e08f5b0000000600cc
:105200006044b8006055b8000402540085825c0018
:1052100006035d0087835d0000000600889fbe00d6
:105220008a9fbe008c1f7800e00f5000e08f58006e
:10523000e00f5900e08f59000d003d006044b800b8
:105240006055b8000000540081805c0002015d00e0
:1052500083815d001c0020000820e10009a8e10016
:105260000ab0e1000bb8e1000d003d000800370076
:105270000006eb00e00f5200e08f5a00e00f5b00e9
:10528000e08f5b0006003d006044b8006055b80048
:105290000402540085825c0006035d0087835d0084
:1052a000aaff07000c00e000060032006022b800f0
:1052b0006033b8000000520081805a0002015b0098
:1052c00083815b004f0678004f05be004f04be008f
:1052d00000000600000000002800fa00889fbe00c1
:1052e0008a9fbe008c9fbe000706780087866900f3
:1052f0000c003b00030478008704780008f0a1004c
:1053000009f0a100840f5000858f5800860f5900c6
:10531000890f5c00030033000cf0a20001003a008a
:105320000cf0a100fefd07006400e1005f00320008
:10533000780147006408e100610032006c01470019
:10534000748557003200be001201be003a04be0050
:105350001a05be001e039000be0a9000850353008c
:1053600006003d000004fd008104fd000205fd0073
:105370008305fd008703ea00050378000df8a3000c
:105380000400320060041400e0841c0060051d006d
:10539000e0851d006022b8007d0320000d38e1008b
:1053a0008006eb000b0039004433dd00f300b2004f
:1053b0008301730039003700848272000d02780087
:1053c000e10664008b85d1000a85d3008984d3006f
:1053d0000884d3008703e900f7ff3b000800400082
:1053e000898048000a0149008b81490004003b0084
:1053f00060001000e080180060011900e0811900d1
:105400000358a300090032008d827200848272006a
:10541000610260008301d1000281d3008180d3004a
:105420000080d3000603e8001b0037000348a300f8
:1054300017003a000600e000170034000603e900f8
:105440000d00a300000048008180480002014900cf
:10545000838149000348a3000f003a000600e000e2
:10546000090034000603e900000040008180480084
:10547000020149008381490001003a000003eb006a
:105480000348a300f5ff32006022b8000200370095
:10549000848272006182660075fd070003f0a1003e
:1054a0000cf0a70003f0a000b1fd37006401470035
:1054b0006408e10002003a000df8a300a9fd3a00db
:1054c00032007800b20078001201be00a8fd37005b
:1054d000889fbe008a9fbe008c9fbe000404be0051
:1054e0000605be00809fbe00829fbe003000070000
:1054f000040678000800be000a01be002c00070068
:10550000840678004f03be004f02be008d4f760028
:105510007fb0970013003300f0ff2f008b8f6b00dc
:1055200006003b000d0666000c00a7000a003700cd
:1055300007f0a600100020000a003700880f520074
:10554000898f5a008a0f5b008b8f5b000300390044
:105550001000200001003e000000200007f0a7001e
:105560000000ea004f06be004f05be004f04be001b
:1055700000000600e48240001078a300070032001b
:10558000640240001178a3003400be001401be0084
:10559000050032000330a700000006003500780047
:1055a000b50078001501be000330a0000000060021
:1055b00005ff270005826100070032000428e10092
:1055c00001003200240005000600070001003a0037
:1055d000440005000408050002000700f9ff3a0036
:1055e000140005006f826100810270008502710065
:1055f00085027200000006005002be00e400500068
:105600005003be004439de00f700b200f37f2000f3
:1056100003016100090032000218e10016003a009f
:1056200085017200830173008381730000082000ec
:1056300015003a0040002000130037008501720079
:10564000830173008381730005003a0004a8be0043
:1056500006a8be00100020000b0037000201e90080
:105660000402420085824a0006034b0087834b00f8
:105670000748a300f9ff32000740a00004a8be00bd
:1056800006a8be002000200080009800920098002c
:1056900000000600881f7800030478000300e00083
:1056a00007003d0060001000e08018006001190054
:1056b000e081190002003b0001f02d0003003700db
:1056c0000400070008f0a70003f0a0004f047800d2
:1056d00000000600889fbe00008270000402710076
:1056e000048271002400320036432000c5002000ef
:1056f0008383cf000a0039000541b1008283cf00c7
:10570000070039000541b1008183cf000400390052
:105710000541b1008083cf00010039000541b1008f
:1057200085c353006022b800120032000a003b001b
:1057300084827200610260008301d1000281d30083
:105740008180d3000080d3000603e8008743e8008f
:10575000f7ff3a0007003700000040008180480052
:1057600002014900838149000603e9008743e900fb
:10577000f9ff3a00befc07004f04be00000006001f
:020000040000fa
:0200000401f009
:04000800cfff000026
:020000040000fa
:040028000c030000c5
:020000040000fa
:04007800440300003d
:020000040000fa
:04009c007c030000e1
:020000040000fa
:0400fc00b403000049
:020000040000fa
:04010000ec0300000c
:020000040000fa
:040180002404000053
:020000040000fa
:040008005e04000092
:020000040000fa
:04000c008c04000060
:020000040000fa
:04001400ba0400002a
:020000040000fa
:04001800e8040000f8
:020000040000fa
:0400340016050000ad
:020000040000fa
:040044005005000063
:020000040000fa
:040048008a05000025
:020000040000fa
:04009400c40500009f
:020000040000fa
:04009800fe05000061
:020000040000fa
:0400e40038060000da
:020000040000fa
:0400e800720600009c
:020000040000fa
:0400f400ac06000056
:020000040000fa
:0400f800e606000018
:020000040000fa
:04003800200700009d
:020000040000fa
:040060004a0700004b
:020000040000fa
:0400880074070000f9
:020000040000fa
:0400b8009e0700009f
:020000040000fa
:0400b400c807000079
:020000040000fa
:040108002a0a0000bf
:020000040000fa
:04005c008c0c000008
:020000040000fa
:04005400c40c0000d8
:020000040000fa
:0400a0003c0d000013
:020000040000fa
:04012c00b40d00000e
:020000040000fa
:040130002e0e00008f
:020000040000fa
:0200000401f009
:04002000cfffff000f
:020000040000fa
:0200000401f009
:04001c00dcffff0006
:020000040000fa
:0200000401f009
:04001800faffff00ec
:020000040000fa
:0200000401f009
:04001400ffffff00eb
:020000040000fa
:0200000401f009
:040010005effff0090
:020000040000fa
:0200000401f009
:04000c0078ffff007a
:020000040000fa
:1057800012010000000200000200000000080000fa
:10579000d80400000a00000000010000010200001f
:1057a00000010000090200004300000002010000a7
:1057b00000c00000320900000400000000010000e9
:1057c000020200000100000005240000001000009b
:1057d000010400002402000002050000240600006d
:1057e0000001000005240000010000000107000086
:1057f0000581000003080000000200000904000009
:1058000001000000020a0000000000000007000084
:105810000502000002400000000000000705000033
:1058200082020000400000000000000004030000ad
:1058300009040000340300004d000000690000006e
:1058400063000000720000006f00000063000000b1
:1058500068000000690000007000000020000000e7
:1058600054000000650000006300000068000000b4
:105870006e0000006f0000006c0000006f00000070
:1058800067000000790000002000000049000000cf
:105890006e000000630000002e00000034030000d2
:1058a000430000004400000043000000200000000e
:1058b00052000000530000002d00000032000000e4
:1058c000330000003200000020000000450000000e
:1058d0006d000000750000006c0000006100000019
:1058e00074000000690000006f0000006e000000fe
:1058f0002000000044000000650000006d00000072
:105900006f000000d2ab000016ac00001aac000023
:105910004eac0000300000003100000032000000fa
:1059200033000000340000003500000036000000a5
:1059300037000000444300005500000054450000bb
:105940000044000041530000480000004c4f00009c
:105950004747000045520000005300005445000036
:1059600045520000494e0000475f000057480000c4
:10597000454500004c000000415200004d00000071
:10598000424d0000535f00004d41000053540000a1
:1059900045520000004200004d5300005f560000d9
:1059a00045520000424f00005345000000490000ee
:1059b0004942000000540000454c0000454d0000e5
:1059c000455400005259000000530000555000009b
:1059d0004f5400005f460000524f00004e5400003c
:1059e00000530000555000004f5400005f5200006b
:1059f00045410000520000004148000052530000a1
:105a0000004900004d5500000047000050530000c1
:105a100000430000435500000054000049520000bc
:105a200045540000454d0000500000005354000054
:105a300045450000520000003236000000320000f0
:105a4000370000003238000000320000390000004a
:105a50005741000054450000525f000054450000cb
:105a60004d500000004900004e5400004552000017
:105a700046410000434500000000000040100000c7
:105a800004010000080700000605000004030000f0
:045a9000020100000f
:020000040000fa
:105a94000200fa00881f7800000f78001e007800ca
:105aa4000000e00002003a000080eb0044003700f0
:105ab4001e007800c1ff2f002001900081006100ca
:105ac4000100a000210098001e0178001e02780049
:105ad40000242400f100200033fe2f00008abe00c1
:105ae40022009000030060000030a0002001980014
:105af4001e007800f2f12f00a001900001062000a2
:105b04000281610082807000210098001e007800ec
:105b1400f18f2f0020019000810061000190a0000e
:105b2400210098001e007800f2ff2800a0009000d9
:105b340001b0a100210098001e0078000100260099
:105b4400a001900002816100828070002100980011
:105b54001e00780001fe2f00300190006800200034
:105b640081006100660020000130a00014002000c4
:105b7400310098000001eb009e0378009e0278003b
:105b84009e0178001e0078009e007800c8039800eb
:105b9400d6029800e40198007200980012002000d8
:105ba4001e007800a20898008000eb000001eb00c2
:105bb400310898000000eb009e007800b2189800ad
:105bc400000000004f0478008e0778004f0778002b
:105bd4004440a900000006000a00fa00881f78006b
:105be400200798002e009000310798004207980083
:105bf400200090004200de00674060000080fb004f
:105c0400e80f500007003c002e0090002000900098
:105c14004200de00674060000080fb000000e000fe
:105c240002003c000080eb00880037002e0090004a
:105c3400200090004500de00674060000080fb000b
:105c4400e80f500007003c002e0090002000900058
:105c54004500de00674060000080fb000000e000bb
:105c640002003c000080eb00780037002e0090001a
:105c7400200090004800de00674060000080fb00c8
:105c8400e80f500007003c002e0090002000900018
:105c94004800de00674060000080fb00e10f500018
:105ca40002003c000080eb00680037002e019000e9
:105cb400ae0090002e00900022019000a100900000
:105cc400200090004211de00c508de00674161003b
:105cd400e7c060004800de0081404100674060008a
:105ce40000c04000004fe8001e407800f94f50000b
:105cf40003003e001e407800e74f500002003e00c3
:105d0400d0ff2f005100370000000000ae009000cb
:105d1400000000001e80fb0000000000110378005a
:105d2400910390000000400002002900033d200080
:105d34006102b9000620b80086acb90084bab90083
:105d4400040444000104440088007800a9f1070019
:105d5400000078000000e900100798001e00900081
:105d6400e10f500002003400e0ff2f00370037003d
:105d7400000000001e009000e10f500003003a00f4
:105d84003e0090008000eb00010878000000000055
:105d94003e00900000000000100078000000e000c9
:105da40014003200ae0090001e80fb001103780046
:105db400910390000001400000002900013d2000f3
:105dc4006112b9000621b80086acb90084bab900e2
:105dd40004044400030444008801780085f10700aa
:105de4004e019000000078000000e90000097800ee
:105df40015003700000000002e0090000000000095
:105e04001e82fb008002eb000000000010037800fb
:105e14009003900000002900013d20000621b800f5
:105e240086acb90084bab9000404440003044400f5
:105e3400880178006ff107004e019000000078009f
:105e44000000e900000978000000eb0000000000f9
:105e54004f0478008e0778004f0778004440a9006b
:105e6400000006000000fa0001cba900f2fc2f009c
:105e740001aba800c5ff2f00035880006404200074
:105e84000281610073002000020378000650a00024
:105e9400224420000658880000e0270006588000ad
:105ea4000100200085026300055888000000780086
:105eb40014588800f5cf2f0073588800c4ff2f00b2
:105ec40062588800f3cf2f0020588800f2cf2f00ab
:105ed400062bef00c1ff2f000088a900f0cf2f0090
:105ee4002088a90030e4a80031e4a80032e4a80026
:105ef40033e4a80034e4a80035e4a80036e4a8009c
:105f040037e4a800862180003600b300862188008b
:105f140086218000850263000590a0008521880009
:105f240095218000048262000400a000942188006e
:105f3400942180008301620093218800a3218000c2
:105f44003300b300a3218800a321800002816100f3
:105f54000290a000a2218800b2218000810061008b
:105f64000100a000b1218800b12180000080600000
:105f7400b021880001eba8008e0778004f07780055
:105f84004440a900000006000000fa0011cba9005b
:105f9400f2fc2f0011aba900c5ff2f00835880002d
:105fa40024022000028161007300200002037800b3
:105fb4000650a000024420008658880000e0270014
:105fc40086588000010020008502630085588800ff
:105fd4000000780094588800f3588800e25888003c
:105fe400a0588800162bef0011eba8008e0778004c
:105ff4004f0778004440a900000006000000fa00a2
:1060040021cba900f0fc2f0021aba800c4ff2f0076
:106014000159800073042000008060007200200099
:106024000050a000215420000059880000c027001f
:10603400055980000600200004826200f5cf2f007d
:1060440004598800c4ff2f0013598800f3cf2f0090
:1060540072598800f2cf2f0061598800c1ff2f00c8
:1060640020598800f0cf2f00365988000308a90072
:106074002308a90030e5a80031e5a80032e5a8000e
:1060840033e5a80034e5a80035e5a80036e5a80006
:1060940037e5a800862980003600b30086298800e9
:1060a40086298000850263000590a0008529880068
:1060b40095298000048262000400a00094298800cd
:1060c400942980008301620093298800a329800019
:1060d4003300b300a3298800a32980000281610052
:1060e4000290a000a2298800b229800081006100ea
:1060f4000100a000b1298800b1298000008060005f
:10610400b029880021eba8008e0778004f0778009b
:106114004440a900000006000000fa0031cba900a9
:10612400f0fc2f0031aba900c5ff2f00815980007e
:106134007403200000806000730020000050a00061
:10614400025420008059880001c02700865980002d
:106154000000200085026300855988009459880056
:10616400f3598800e2598800a1598800b059880081
:10617400362bef0031eba8008e0778004f0778002c
:106184004440a900000006000800fa000002eb00e9
:106194008001eb00040f7800100798002107980095
:1061a40032079800030f7800130037001e007800b0
:1061b4009e00900000004000808040001e01780096
:1061c4006b00410011017800be0190000000400006
:1061d4008000eb0000804100020878001e01780076
:1061e4007b0041003e01900000004000000041009f
:1061f400010878001e0fe800000000009e007800ef
:10620400000000002e009000808f5000e7ff39004e
:106214003e009000ae009000210898003e019000de
:106224008081eb003e009000110020007301980073
:10623400610098008e0778004f0778004440a90059
:10624400000006000000fa000e989700e10f5000cd
:1062540016003200e10f50001d003900e20f50001b
:106264000a003200e30f50001a003a00c1218000f6
:106274003e999700f07f2000ff80600000006100dd
:106284004500dd0001007000c0218800a1218000cc
:106294002e999700f07f2000ff80600000006100cd
:1062a4004500dd0001007000a021880081218000ec
:1062b4001e999700f07f2000ff80600000006100bd
:1062c4004500dd00010070008021880001003700d6
:1062d400000037008e0778004f0778004440a9007b
:1062e400000006000000fa004e989700020120000a
:1062f400030020008000eb00820f5000838f5800c1
:1063040093003e000006010092003700870037002a
:106314007e003700750037006c00370063003700db
:106324005a00370051003700480037003f0037005b
:10633400360037002d003700240037001b003700db
:10634400120037000900370000003700e123800005
:106354004ea99700f07f2000ff80600000006100dc
:106364004500dd0001007000e0238800c1238000a7
:106374003ea99700f07f2000ff80600000006100cc
:106384004500dd0001007000c0238800a1238000c7
:106394002ea99700f07f2000ff80600000006100bc
:1063a4004500dd0001007000a023880081238000e7
:1063b4001ea99700f07f2000ff80600000006100ac
:1063c4004500dd0001007000802388006123800007
:1063d4000ea99700f07f2000ff806000000061009c
:1063e4004500dd0001007000602388004123800027
:1063f4007ea19700f07f2000ff8060000000610014
:106404004500dd0001007000402388002123800046
:106414006ea19700f07f2000ff8060000000610003
:106424004500dd0001007000202388000123800066
:106434005ea19700f07f2000ff80600000006100f3
:106444004500dd000100700000238800e122800087
:106454004ea19700f07f2000ff80600000006100e3
:106464004500dd0001007000e0228800c1228000a8
:106474003ea19700f07f2000ff80600000006100d3
:106484004500dd0001007000c0228800a1228000c8
:106494002ea19700f07f2000ff80600000006100c3
:1064a4004500dd0001007000a022880081228000e8
:1064b4001ea19700f07f2000ff80600000006100b3
:1064c4004500dd0001007000802288006122800008
:1064d4000ea19700f07f2000ff80600000006100a3
:1064e4004500dd0001007000602288004122800028
:1064f4007e999700f07f2000ff806000000061001b
:106504004500dd0001007000402288002122800047
:106514006e999700f07f2000ff806000000061000a
:106524004500dd0001007000202288000122800067
:106534005e999700f07f2000ff80600000006100fa
:106544004500dd00010070000022880001003700d2
:10655400000037008e0778004f0778004440a900f8
:10656400000006000000fa004e9897000201200087
:10657400030020008000eb00820f5000838f58003e
:10658400bf003e0000060100be003700b100370026
:10659400a5003700990037008d00370081003700cf
:1065a40075003700690037005e003700530037007c
:1065b400470037003b0037002f0037002300370027
:1065c400170037000b00370000003700d22080008e
:1065d4004eb89700f1ff230000407800810061006d
:1065e400634060000080fb004e00dd00010070008d
:1065f400d0208800d22080003eb89700f1ff2c0004
:106604000040780081006100634060000080fb006e
:10661400630060004c00dd0001007000d0208800a1
:10662400d22080002eb89700f13f2f000040780060
:1066340081006100634060000080fb006300600033
:106644004a00dd0001007000d0208800d2208000c4
:106654001eb89700f1cf2f00004078008100610040
:10666400634060000080fb00630060004800dd00c0
:1066740001007000d0208800d22080000eb897005e
:10668400f1f32f0000407800810061006340600056
:106694000080fb00630060004600dd000100700024
:1066a400d0208800d22080007eb09700f1fc2f001b
:1066b4000040780081006100634060000080fb00be
:1066c400630060004400dd0001007000d0208800f9
:1066d400d22080006eb0970031ff2f000040780078
:1066e40081006100634060000080fb006300600083
:1066f4004200dd0001007000d0208800d22080001c
:106704005eb09700c1ff2f00004078008100610057
:10671400634060000080fb006300600001007000c3
:10672400d0208800c22080004eb09700f1ff2300e3
:106734000040780081006100634060000080fb003d
:106744004e00dd0001007000c0208800c2208000df
:106754003eb09700f1ff2c000040780081006100fa
:10676400634060000080fb00630060004c00dd00bb
:1067740001007000c0208800c22080002eb0970065
:10678400f13f2f0000407800810061006340600009
:106794000080fb00630060004a00dd00010070001f
:1067a400c0208800c22080001eb09700f1cf2f00c7
:1067b4000040780081006100634060000080fb00bd
:1067c400630060004800dd0001007000c020880004
:1067d400c22080000eb09700f1f32f000040780033
:1067e40081006100634060000080fb006300600082
:1067f4004600dd0001007000c0208800c220800037
:106804007ea89700f1fc2f00004078008100610011
:10681400634060000080fb00630060004400dd0012
:1068240001007000c0208800c22080006ea897007c
:1068340031ff2f0000407800810061006340600058
:106844000080fb00630060004200dd000100700076
:10685400c0208800c22080005ea89700c1ff2f00de
:106864000040780081006100634060000080fb000c
:106874006300600001007000c02088000100370040
:10688400000037008e0778004f0778004440a900c5
:10689400000006000000fa00889fbe00322180003c
:1068a40000002f0001f0200002017000000f200002
:1068b4003221880008002f003221800007f02000d8
:1068c40082807000060f20003121880005002f000f
:1068d4003121800004f0200001007000030f20002b
:1068e4003021880002002f003021800001f02000b8
:1068f40080047800f900b300000f200039218800db
:10690400292180000904740028218800282180009e
:1069140088837300272188002721800007037300e0
:106924002621880026218000f600b3002621880055
:1069340016218000868272001521880015218000ae
:1069440005027200142188001421800084817100e2
:106954001321880013218000f300b3001321880061
:1069640003218000030171000221880002218000bc
:1069740082807000012188000121800001007000e4
:106984000021880000218000f000b300002188006d
:106994004f04be008e0778004f0778004440a900da
:1069a400000006000000fa003064a8003464a80067
:1069b4003864a8004064a9004464a9004864a9009c
:1069c4008e0778004f0778004440a90000000600b5
:1069d4000000fa004e9897000201200003002000f6
:1069e4008000eb00820f5000838f580023003e008c
:1069f40000060100220037001e0037001c0037008b
:106a04001a0037001800370016003700140037004a
:106a140012003700100037000e0037000c0037005a
:106a24000a0037000800370006003700040037006a
:106a3400020037000000370015e4a80015c4a800c0
:106a440015a4a8001584a8001564a8001544a8007e
:106a54001524a8001504a80014e4a80014c4a80070
:106a640014a4a8001484a8001464a8001444a80062
:106a74001424a8001404a800010037000000370003
:106a84008e0778004f0778004440a90000000600f4
:106a94000000fa006f05b0000004a800a0fa2f005f
:106aa4000f00400041fa2f008e8040006205200054
:106ab400c1ee0700e3fd07006f05b1006f05b000ec
:106ac40040fa2f000e004000a2fa2f000f014100ef
:106ad400800078000200780062052000b6ee07000e
:106ae40000fe07006f05b1006f05b00040fa2f00eb
:106af4000e004000a2fa2f000f0141008000780030
:106b04000200780062052000abee070095fe070046
:106b14006f05b1006f05b00040fa2f000e00400071
:106b2400a2fa2f000f0141008000780002007800d3
:106b340062052000a0ee070056ff07006f05b100b4
:106b44006f05b00040fa2f000e004000a2fa2f009b
:106b54000f014100800078000200780062052000e7
:106b640095ee07008fff07006f05b1006f05b000b9
:106b740040fa2f000e004000a2fa2f000f0141003e
:106b84008000780002007800620520008aee070089
:106b94008fff07006f05b1000004a9008e0778007d
:106ba4004f0778004440a900000006000000fa00e6
:106bb400002080004500de00674060000080fb008c
:106bc4008e0778004f0778004440a90000000600b3
:106bd4000200fa00000f7800f18f2f0002208000dd
:106be4001e0078008100610000407800674060006a
:106bf4000080fb00670060004800dd0001007000b9
:106c040000208800e9ff07009e0f5000fdff3a00b6
:106c14008e0778004f0778004440a9000000060062
:106c24000000fa0002208000010e20000002200073
:106c340081006100808f5000080032000220800033
:106c4400010e20000008200081006100808f5000a8
:106c54000200320010002000010037000000eb00a9
:106c6400004078008e0778004f0778004440a90060
:106c7400000006005e00fa00889fbe008a9fbe00e6
:106c84008c1f7800602f9800700020006f3a070076
:106c94006e2890000000e00004003a000e80e80036
:106ca4007bfb07000e80e800602f98001000200096
:106cb400a10520008e804000402f98008005200010
:106cc4000e00400001017800800078006e289000da
:106cd400c1fb0700000f78001e0078000000e000f0
:106ce400020032001e007800a5003700400020009a
:106cf400b7ff0700ee289000ee2c9000ee2b9000da
:106d0400ee2a90006e2a90006e2990006e28900062
:106d140008208000ce2990005e2b900083417800eb
:106d240006437800e1c16100080578000ab0a100bb
:106d34008381fb00f643b200e18161000684fb001d
:106d4400cb19dd00f60320008a817100060364007c
:106d54000320880008fc2f008a208000f3f32f0012
:106d6400080465008aff2f000803730078fc2f00d5
:106d740086208800f68f2f008b208000a1009000d1
:106d840003866500e3c06000f3ff210081457800bd
:106d940001fe2f00000000008b45e900e3c56500fb
:106da4008b85fb00e3856500c65ddd008c85750081
:106db4008b2088009b208000a90490000a85650030
:106dc400c24cde00e7c46400000000008944e9000e
:106dd400e7c464008984fb0000000000e7846400c9
:106de4008a8474009920880099208000a703900069
:106df40008846400c53bde00e7c3630000000000b4
:106e04008743e900e7c363008783fb0000000000b9
:106e1400e7836300c33bdd00888373009720880009
:106e240012e4a80097208000a50290000683630066
:106e3400c82ade00e7c26200000000008542e900c3
:106e4400e7c262008582fb0000000000e782620066
:106e5400c82add0086827200952088009520800073
:106e6400240290000560a1004b22de006142620012
:106e74000482fb0000000000610262004622dd0083
:106e840005027200942088003420800022019000c2
:106e9400830162004c11de00674161000281fb0046
:106ea4004d11dd0003017100322088003000900094
:106eb400322080007f406000810061000080fb0080
:106ec4007f0060000100700030208800ee289000f0
:106ed4006e28900083428000c1009000f2ff2800d9
:106ee400814078008281610067c16000f18f2f00ca
:106ef4000281fb00670161004c11dd000301710098
:106f04008242880050009000824280000040780055
:106f140081006100674060000080fb006700600042
:106f24004800dd000100700080428800cdfb0700ae
:106f340015fc07006e2890006f05b000a2fa2f0020
:106f44000f014100800078000200780062052000f3
:106f540099ed0700cefe07006f05b1000000eb00bd
:106f64001bff07002468a8000000eb000c24a80005
:106f74000c04a8000cc4a800b43907000000eb00fe
:106f8400000000004f067800000000004f05be001e
:106f9400000000004f04be008e0778004f07780001
:106fa4004440a900000006000200fa00000f780027
:106fb4001e007800e30f50002b003200e30f500056
:106fc40007003c00e10f500016003200e10f5000b2
:106fd4001d003c000000e0000a0032004d003700b4
:106fe400e50f500031003200e50f50002700350056
:106ff400e60f500036003200e70f50003c0032002c
:1070040044003700802180006800600000f0a70081
:107014000000ea000000e9004f00de0000407800b4
:107024003d00370081218000008020000080600046
:1070340000f0a7000000ea000000e9004f00de00b5
:107044000040780034003700902180006800600020
:1070540000f0a7000000ea000000e9004f00de0095
:10706400004078002c00370091218000008020002f
:107074000080600000f0a7000000ea000000e900c2
:107084004f00de000040780023003700a02180007c
:107094006800600000f0a7000000ea000000e900ba
:1070a4004f00de00004078001b003700a121800063
:1070b400008020000080600000f0a7000000ea00cb
:1070c4000000e9004f00de000040780012003700a5
:1070d400b02180006800600000f0a7000000ea0012
:1070e4000000e9004f00de00004078000a0037008d
:1070f400b1218000008020000080600000f0a70023
:107104000000ea000000e9004f00de0000407800c3
:10711400010037000040eb008e0778004f0778002d
:107124004440a900000006000200fa00000f7800a5
:107134001e007800e30f500018003200e30f5000e7
:1071440007003c00e10f500010003200e10f500036
:1071540010003c000000e0000a0032001800370074
:10716400e50f500011003200e50f50000d0035000e
:10717400e60f50000f003200e70f50000f003200fe
:107184000f0037003064a8000d0037003164a800f8
:107194000b0037003264a800090037003364a800ec
:1071a400070037003464a800050037003564a800e0
:1071b400030037003664a800010037003764a800d4
:1071c4008e0778004f0778004440a90000000600ad
:1071d4000000fa008121800080218000c308de00c5
:1071e40094218000e1c06000932180008180fb0035
:1071f400a221800068831000a1218000cb02de0060
:10720400b0218000e1c262004322de008582fb00df
:1072140061426200850253000482fb00cb19de0048
:1072240004825200e1c161004311de008381fb004e
:1072340061416100830152000281fb00cb08de0042
:1072440002815100e1c060004300de008180fb0048
:1072540061406000010151008080fb00b02180008a
:10726400810051004b00de00614060000080fb00a3
:10727400008050008e0778004f0778004440a90032
:10728400000006001c00fa00889fbe008a9fbe0012
:107294008c9fbe008083eb000003eb002007980066
:1072a4003107980042079800530798006407980034
:1072b40075079800070f7800160798000a00370032
:1072c4001e00900038ff07000004e00003003200b5
:1072d4009e009000010f7800060037001e00900009
:1072e4000000e800100798001e009000e70f50000f
:1072f400f3ff34001e007800e10f400002003a0062
:10730400c0ff2f00a1003700ae0090001e007800df
:10731400420add004400dd0008e027006100b800f7
:1073240000f0a7000120200009002000a301800034
:107334000001d0008802d000050041004220a800ce
:10734400898048004200a9004220ae004200a80003
:107354000080d3000101780000007800a2018800b9
:1073640004087800a3018800be0090001e00780085
:10737400efc060004400dd008181fb006400400038
:1073840006e02700060f98006100b80000f0a7008f
:107394000120200007002000170f9800a2018000a0
:1073a4000e0a90009e0a90000003d0008403d000cf
:1073b400070043004220a800858048004200a9003d
:1073c4004220ae004200a8000080d30001027800f1
:1073d40000007800a401880003087800a201880056
:1073e4001e007800ce0190004400dd0001e027007b
:1073f400210f98006600400002002000320f980020
:107404006100b80000f0a70001202000a201800064
:107414002e0a9000be0a90000003d0008403d0001e
:10742400070043004220a800858048004200a900cc
:107434004220ae004200a8000080d3000102780080
:1074440000007800a401880003087800a2018800e5
:107454001e007800de0190004400dd0001e02700fa
:10746400410f98006800400002002000520f98006d
:107474006100b80000f0a70001202000a2018000f4
:107484004e0a9000de0a90000003d0008403d0006e
:10749400070043004220a800858048004200a9005c
:1074a4004220ae004200a8000080d3000102780010
:1074b40000007800a401880003087800a201880075
:1074c4001e007800ee0190004400dd000ce027006f
:1074d4006a0040000d0020006100b80000f0a70021
:1074e40001202000a20180000002d0008c02d00004
:1074f400050042004220a8008d8048004200a900f7
:107504004220ae004200a8000080d30001027800af
:1075140000007800a401880003087800a201880014
:107524001e007800fe0190004400dd000ae0270000
:107534006c0040000b0020006100b80000f0a700c0
:1075440001202000a20180000003d0008a03d000a3
:10755400070043004220a8008b8048004200a90095
:107564004220ae004200a8000080d300010278004f
:1075740000007800a401880003087800a2018800b4
:107584001e007800e8fe07000000eb000000000089
:107594004f06be00000000004f05be0000000000c2
:1075a4004f04be008e0778004f0778004440a900be
:1075b400000006000000fa00318280004082800052
:1075c4000080680000f0a7000000ea000000e90065
:1075d4004f00de00004078008e0778004f077800e7
:1075e4004440a900000006000200fa003182800035
:1075f400010f780000017800a03925009e00780072
:10760400ec0ab90084007800008040008000780013
:1076140033828000020078000302e800f3032000b4
:1076240083016200338288003118780021107800c9
:10763400e480400064004000311878002110780094
:10764400e480400064004000311878002110780084
:10765400020078008e0778004f0778004440a900a4
:10766400000006000200fa00000f780010c0b3000a
:107674008e0778004f0778004440a90000000600f8
:107684000000fa000e989700e10f50001600320037
:10769400e10f50001d003900e20f50000a003200d3
:1076a400e30f50001a003a00c12980003e99970068
:1076b400f07f2000ff806000000061004500dd00d5
:1076c40001007000c0298800a12980002e9997002c
:1076d400f07f2000ff806000000061004500dd00b5
:1076e40001007000a0298800812980001e9997005c
:1076f400f07f2000ff806000000061004500dd0095
:107704000100700080298800010037000000370064
:107714008e0778004f0778004440a9000000060057
:107724000000fa004e989700020120000300200098
:107734008000eb00820f5000838f580093003e00be
:107744000006010092003700870037007e003700f2
:10775400750037006c003700630037005a003700ab
:1077640051003700480037003f003700360037002b
:107774002d003700240037001b00370012003700ab
:107784000900370000003700e12b80004ea9970064
:10779400f07f2000ff806000000061004500dd00f4
:1077a40001007000e02b8800c12b80003ea99700e7
:1077b400f07f2000ff806000000061004500dd00d4
:1077c40001007000c02b8800a12b80002ea9970017
:1077d400f07f2000ff806000000061004500dd00b4
:1077e40001007000a02b8800812b80001ea9970047
:1077f400f07f2000ff806000000061004500dd0094
:1078040001007000802b8800612b80000ea9970076
:10781400f07f2000ff806000000061004500dd0073
:1078240001007000602b8800412b80007ea197002e
:10783400f07f2000ff806000000061004500dd0053
:1078440001007000402b8800212b80006ea197005e
:10785400f07f2000ff806000000061004500dd0033
:1078640001007000202b8800012b80005ea197008e
:10787400f07f2000ff806000000061004500dd0013
:1078840001007000002b8800e12a80004ea19700bf
:10789400f07f2000ff806000000061004500dd00f3
:1078a40001007000e02a8800c12a80003ea19700f0
:1078b400f07f2000ff806000000061004500dd00d3
:1078c40001007000c02a8800a12a80002ea1970020
:1078d400f07f2000ff806000000061004500dd00b3
:1078e40001007000a02a8800812a80001ea1970050
:1078f400f07f2000ff806000000061004500dd0093
:1079040001007000802a8800612a80000ea197007f
:10791400f07f2000ff806000000061004500dd0072
:1079240001007000602a8800412a80007e99970037
:10793400f07f2000ff806000000061004500dd0052
:1079440001007000402a8800212a80006e99970067
:10795400f07f2000ff806000000061004500dd0032
:1079640001007000202a8800012a80005e99970097
:10797400f07f2000ff806000000061004500dd0012
:1079840001007000002a8800010037000000370061
:107994008e0778004f0778004440a90000000600d5
:1079a4000000fa004e989700020120000300200016
:1079b4008000eb00820f5000838f5800bf003e0010
:1079c40000060100be003700b1003700a5003700f3
:1079d400990037008d0037008100370075003700ab
:1079e400690037005e003700530037004700370056
:1079f4003b0037002f003700230037001700370003
:107a04000b00370000003700d22880004eb89700e2
:107a1400f1ff2300004078008100610063406000b2
:107a24000080fb004e00dd0001007000d0288800bb
:107a3400d22880003eb89700f1ff2c000040780067
:107a440081006100634060000080fb00630060000f
:107a54004c00dd0001007000d0288800d22880008e
:107a64002eb89700f13f2f0000407800810061009c
:107a7400634060000080fb00630060004a00dd009a
:107a840001007000d0288800d22880001eb897001a
:107a9400f1cf2f0000407800810061006340600056
:107aa4000080fb00630060004800dd0001007000fe
:107ab400d0288800d22880000eb89700f1f32f0058
:107ac4000040780081006100634060000080fb009a
:107ad400630060004600dd0001007000d0288800cb
:107ae400d22880007eb09700f1fc2f00004078007f
:107af40081006100634060000080fb00630060005f
:107b04004400dd0001007000d0288800d2288000e5
:107b14006eb0970031ff2f000040780081006100b3
:107b2400634060000080fb00630060004200dd00f1
:107b340001007000d0288800d22880005eb0970031
:107b4400c1ff2f00004078008100610063406000a5
:107b54000080fb006300600001007000d0288800f2
:107b6400c22880004eb09700f1ff23000040780047
:107b740081006100634060000080fb004e00dd0076
:107b840001007000c0288800c22880003eb0970021
:107b9400f1ff2c0000407800810061006340600028
:107ba4000080fb00630060004c00dd0001007000f9
:107bb400c0288800c22880002eb09700f13f2f0013
:107bc4000040780081006100634060000080fb0099
:107bd400630060004a00dd0001007000c0288800d6
:107be400c22880001eb09700f1cf2f00004078001b
:107bf40081006100634060000080fb00630060005e
:107c04004800dd0001007000c0288800c228800000
:107c14000eb09700f1f32f0000407800810061005e
:107c2400634060000080fb00630060004600dd00ec
:107c340001007000c0288800c22880007ea8970038
:107c4400f1fc2f0000407800810061006340600077
:107c54000080fb00630060004400dd000100700050
:107c6400c0288800c22880006ea8970031ff2f002a
:107c74000040780081006100634060000080fb00e8
:107c8400630060004200dd0001007000c02888002d
:107c9400c22880005ea89700c1ff2f000040780032
:107ca40081006100634060000080fb0063006000ad
:107cb40001007000c0288800010037000000370070
:107cc4008e0778004f0778004440a90000000600a2
:107cd4000000fa00889fbe003229800000002f00b7
:107ce40001f0200002017000000f200032298800fa
:107cf40008002f003229800007f0200082807000e5
:107d0400060f20003129880005002f00312980004a
:107d140004f0200001007000030f200030298800c7
:107d240002002f003029800001f020008004780038
:107d3400f900b300000f20003929880029298000a8
:107d44000904740028298800282980008883730086
:107d54002729880027298000070373002629880023
:107d640026298000f600b300262988001629800001
:107d74008682720015298800152980000502720088
:107d84001429880014298000848171001329880033
:107d940013298000f300b30013298800032980000d
:107da400030171000229880002298000828070008a
:107db4000129880001298000010070000029880041
:107dc40000298000f000b300002988004f04be00a1
:107dd4008e0778004f0778004440a9000000060091
:107de4000000fa003065a8003465a8003865a800d2
:107df4004065a9004465a9004865a9008e0778007c
:107e04004f0778004440a900000006000000fa0073
:107e14004e98970002012000030020008000eb0030
:107e2400820f5000838f580023003e00000601009b
:107e3400220037001e0037001c0037001a003700ec
:107e440018003700160037001400370012003700fe
:107e5400100037000e0037000c0037000a0037000e
:107e6400080037000600370004003700020037001e
:107e74000000370015e5a80015c5a80015a5a80041
:107e84001585a8001565a8001545a8001525a800a6
:107e94001505a80014e5a80014c5a80014a5a80099
:107ea4001485a8001465a8001445a8001425a8008a
:107eb4001405a80001003700000037008e07780081
:107ec4004f0778004440a900000006000000fa00b3
:107ed4006f05b0000005a800a0fa2f000f004000b5
:107ee40041fa2f008e80400062052000b2e90700ad
:107ef400e3fd07006f05b1006f05b00040fa2f00e5
:107f04000e004000a2fa2f000f014100800078000b
:107f14000200780062052000a7e9070000fe0700c0
:107f24006f05b1006f05b00040fa2f000e0040004d
:107f3400a2fa2f000f0141008000780002007800af
:107f4400620520009ce9070095fe07006f05b1005b
:107f54006f05b00040fa2f000e004000a2fa2f0077
:107f64000f014100800078000200780062052000c3
:107f740091e9070056ff07006f05b1006f05b000d7
:107f840040fa2f000e004000a2fa2f000f0141001a
:107f940080007800020078006205200086e907006e
:107fa4008fff07006f05b1006f05b00040fa2f0086
:107fb4000e004000a2fa2f000f014100800078005b
:107fc40002007800620520007be907008fff0700ac
:107fd4006f05b1000005a9008e0778004f077800ef
:107fe4004440a900000006000000fa0000288000b8
:107ff4004500de00674060000080fb008e077800cb
:108004004f0778004440a900000006000200fa006f
:10801400000f7800f18f2f00022880001e007800e6
:108024008100610000407800674060000080fb0030
:10803400670060004800dd0001007000002888002f
:10804400e9ff07009e0f5000fdff3a008e077800fd
:108054004f0778004440a900000006000000fa0021
:1080640002288000010e200000022000810061002f
:10807400808f50000800320002288000010e20008a
:108084000008200081006100808f5000020032004f
:1080940010002000010037000000eb0000407800d1
:1080a4008e0778004f0778004440a90000000600be
:1080b4005e00fa00889fbe008a9fbe008c1f780075
:1080c400602f980070002000603507006e28900033
:1080d4000000e00004003a000e80e8006cf607009f
:1080e4000e80e800602f980010002000a1052000f9
:1080f4008e804000402f9800800520000e00400034
:1081040001017800800078006e289000b2f6070024
:10811400000f78001e0078000000e000020032002a
:108124001e007800a400370040002000b7ff0700bd
:10813400ee289000ee2c9000ee2b9000ee2a90009a
:108144006e2a90006e2990006e2890000828800006
:10815400ce2990005e2b900083417800064378007e
:10816400e1c16100080578000ab0a1008381fb0029
:10817400f643b200e18161000684fb00cb19dd0007
:10818400f60320008a817100060364000328880036
:1081940008fc2f008a288000f3f32f0008046500f0
:1081a4008aff2f000803730078fc2f0086288800bc
:1081b400f68f2f008b288000a100900003866500b5
:1081c400e3c06000f3ff21008145780001fe2f0029
:1081d400000000008b45e900e3c565008b85fb00ca
:1081e400e3856500c65ddd008c8575008b288800fd
:1081f4009b288000a90490000a856500c24cde001b
:10820400e7c46400000000008944e900e7c4640096
:108214008984fb0000000000e78464008a84740001
:108224009928880099288000a70390000884640096
:10823400c53bde00e7c36300000000008743e9009c
:10824400e7c363008783fb0000000000e78363004b
:10825400c33bdd00888373009728880012e5a800db
:1082640097288000a502900006836300c82ade00d8
:10827400e7c26200000000008542e900e7c2620034
:108284008582fb0000000000e7826200c82add004e
:108294008682720095288800952880002402900028
:1082a4000560a1004b22de00614262000482fb00f3
:1082b40000000000610262004622dd000502720037
:1082c40094288800342880002201900083016200f1
:1082d4004c11de00674161000281fb004d11dd009d
:1082e4000301710032288800300090003228800099
:1082f4007f406000810061000080fb007f0060001f
:108304000100700030288800ee2890006e2890004c
:10831400e3428000c100900082ff2f00814078007a
:108324008281610067c16000f1ff28000281fb00c7
:108334006701610003017100e2428800500090006f
:10834400d2428000004078008100610067406000f4
:108354000080fb00670060004c00dd00010070003d
:10836400d042880025f707006bf707006e289000bd
:108374006f05b000a2fa2f000f01410080007800c1
:1083840002007800620520008be80700cffe07009a
:108394006f05b1000000eb001cff07002708a800d0
:1083a4000000eb000c25a8000c05a8000cc5a800d3
:1083b400a63407000000eb00000000004f06780020
:1083c400000000004f05be00000000004f04be0086
:1083d4008e0778004f0778004440a900000006008b
:1083e4000200fa00000f78001e007800e30f50002e
:1083f4002b003200e30f500007003c00e10f500057
:1084040016003200e10f50001d003c000000e000a7
:108414000a0032004d003700e50f500031003200f1
:10842400e50f500027003500e60f500036003200fb
:10843400e70f50003c0032004400370080298000e0
:108444006800600000f0a7000000ea000000e900f6
:108454004f00de00004078003d0037008129800095
:10846400008020000080600000f0a7000000ea0007
:108474000000e9004f00de000040780034003700bf
:10848400902980006800600000f0a7000000ea0066
:108494000000e9004f00de00004078002c003700a7
:1084a40091298000008020000080600000f0a70077
:1084b4000000ea000000e9004f00de000040780000
:1084c40023003700a02980006800600000f0a700a6
:1084d4000000ea000000e9004f00de0000407800e0
:1084e4001b003700a129800000802000008060006c
:1084f40000f0a7000000ea000000e9004f00de00e1
:108504000040780012003700b02980006800600045
:1085140000f0a7000000ea000000e9004f00de00c0
:10852400004078000a003700b12980000080200054
:108534000080600000f0a7000000ea000000e900ed
:108544004f00de0000407800010037000040eb00df
:108554008e0778004f0778004440a9000000060009
:108564000200fa00000f78001e007800e30f5000ac
:1085740018003200e30f500007003c00e10f5000e8
:1085840010003200e10f500010003c000000e00039
:108594000a00320018003700e50f500011003200c5
:1085a400e50f50000d003500e60f50000f003200bb
:1085b400e70f50000f0032000f0037003065a800ad
:1085c4000d0037003165a8000b0037003265a800a4
:1085d400090037003365a800070037003465a80098
:1085e400050037003565a800030037003665a8008c
:1085f400010037003765a8008e0778004f07780020
:108604004440a900000006000000fa00812980000f
:1086140080298000c308de0094298000e1c0600046
:10862400932980008180fb00a229800068831000c8
:10863400a1298000cb02de00b0298000e1c26200e3
:108644004322de008582fb00614262008502530002
:108654000482fb00cb19de0004825200e1c16100f8
:108664004311de008381fb006141610083015200fc
:108674000281fb00cb08de0002815100e1c06000f2
:108684004300de008180fb00614060000101510075
:108694008080fb00b0298000810051004b00de0087
:1086a400614060000080fb00008050008e0778006d
:1086b4004f0778004440a900000006001c00fa009f
:1086c400889fbe008a9fbe008c9fbe008083eb0003
:1086d4000003eb0020079800310798004207980038
:1086e400530798006407980075079800070f7800ef
:1086f400160798000a0037001e00900038ff070094
:108704000004e000030032009e009000010f780096
:10871400060037001e0090000000e80010079800d3
:108724001e009000e70f5000f3ff34001e00780095
:10873400e10f400002003a00c0ff2f00a100370003
:10874400ae0090001e007800420add004400dd0007
:1087540008c027006100b80000f0a7000120200035
:1087640009002000a30180000001d0008802d0008d
:10877400050041004220a800898048004200a90069
:108784004220ae004200a8000080d300010178001e
:1087940000007800a201880004087800a301880082
:1087a400be0090001e007800efc060004400dd00b1
:1087b4008181fb006400400006c02700060f98007a
:1087c4006100b80000f0a70001202000070020008d
:1087d400170f9800a20180000e0a90009e0a9000d4
:1087e4000003d0008403d000070043004220a80007
:1087f400858048004200a9004220ae004200a80043
:108804000080d3000102780000007800a4018800f1
:1088140003087800a20188001e007800ce019000b1
:108824004400dd0001c02700210f980066004000cd
:1088340002002000320f98006100b80000f0a70089
:1088440001202000a20180002e0a9000be0a9000a0
:108854000003d0008403d000070043004220a80096
:10886400858048004200a9004220ae004200a800d2
:108874000080d3000102780000007800a401880081
:1088840003087800a20188001e007800de01900031
:108894004400dd0001c02700410f9800680040003b
:1088a40002002000520f98006100b80000f0a700f9
:1088b40001202000a20180004e0a9000de0a9000f0
:1088c4000003d0008403d000070043004220a80026
:1088d400858048004200a9004220ae004200a80062
:1088e4000080d3000102780000007800a401880011
:1088f40003087800a20188001e007800ee019000b1
:108904004400dd000cc027006a0040000d00200078
:108914006100b80000f0a70001202000a20180003f
:108924000002d0008c02d000050042004220a800c2
:108934008d8048004200a9004220ae004200a800f9
:108944000080d3000102780000007800a4018800b0
:1089540003087800a20188001e007800fe01900040
:108964004400dd000ac027006c0040000b0020001a
:108974006100b80000f0a70001202000a2018000df
:108984000003d0008a03d000070043004220a8005f
:108994008b8048004200a9004220ae004200a8009b
:1089a4000080d3000102780000007800a401880050
:1089b40003087800a20188001e007800e8fe070082
:1089c4000000eb00000000004f06be0000000000a5
:1089d4004f05be00000000004f04be008e07780063
:1089e4004f0778004440a900000006000000fa0088
:1089f4001182800020828000808f500002003a00a3
:108a040010c0b300010037000040eb008e0778006f
:108a14004f0778004440a900000006000200fa0055
:108a240011828000010f780000017800a009250060
:108a34009e007800ec0ab9008400780000804000b1
:108a44008000780013828000020078000302e800ae
:108a5400f303200083016200138288003118780038
:108a640021107800e4804000640040003118780050
:108a740021107800e4804000640040003118780040
:108a840021107800020078008e0778004f077800e4
:108a94004440a900000006000200fa00000f78001c
:108aa40010c0b3008e0778004f0778004440a90037
:108ab400000006000200fa00881f78002ac8a900f6
:108ac4008080eb000080eb002126880082002000db
:108ad400002688008000eb00e024ef00204e2000f8
:108ae400bce60700dc24ef00f2092000de24ef00de
:108af400f10920008e44a90000a025003226880038
:108b04004800de00112688008040eb008ac4a800db
:108b1400014f78009004a8007026880007003700f1
:108b24001e80fb0002a02500c301dd006000b80028
:108b3400028141001e4fe8000089be001e407800fb
:108b4400f34f5000f6ff3600ca24a800cc24ef00ef
:108b5400caa4a900ca24a90091b32500a0b3250082
:108b64008200200023b32500022688000042eb0087
:108b740082b32500844978008041eb0003497800e2
:108b8400114178006041610082487800904078008b
:108b9400e0c06000014878000026800068006000a2
:108ba4000000e000ecff3a0010c0b30011c0b300b5
:108bb40013f0b7000040eb0081417800420121002e
:108bc40003497800004f78001570ef001670ef002d
:108bd4000d70ef00170037009e80fb001e80fb0025
:108be4001e84fb001e83fb001e4fe8000181400031
:108bf40061b225008002eb000102410080004000c8
:108c0400c0b125008001eb0000814000d0b32500f5
:108c14008043eb008800400020b42500874878009a
:108c2400060040008040eb00050a78000309780044
:108c3400014878001e407800e44f5000e6ff3600fb
:108c440003a12500d100200070b42500012788006d
:108c540001c02f0020d08a004000200012d08200e2
:108c640033d98a00810061000130a00011d08a004c
:108c740000d08a0000d082000070a00000d08a00da
:108c84000270ef001830ef001a30ef001c70ef0094
:108c94000030ef004f0478008e0778004f0778000b
:108ca4004440a900000006000200fa000080800091
:108cb400e10f50000b003a00512680000004200010
:108cc400008060000000e00006003a00f1fe2f0082
:108cd4002000200001268800c204a800c284a80045
:108ce4000080880040248000700060000000e000e4
:108cf4000700320050248000700060000000e00093
:108d04000300320000012000402488008e07070081
:108d140080248000620060000000e0000200320055
:108d24000ac8a900ac00370000268000610060007a
:108d34000000e0000a00320010268000610060009c
:108d44000000e000060032005aff07002ac8a8000d
:108d540041002000100020000180880000268800c7
:108d640000268000700060000000e0000500320072
:108d740010268000700060000000e0000100320056
:108d84006207070041248000000420000080600086
:108d94000000e000030032000004200040248800aa
:108da400d50a070000268000640060000000e0008f
:108db4001400320010268000640060000000e0000f
:108dc40004003200120020008000eb003007200075
:108dd4000f310700400020000026880011d0bf009a
:108de4000004e0000300320011d0bf000040e9009d
:108df40011f0b70011d0bf000004e00001003a00f8
:108e0400d8020700012680000008200000806000ce
:108e14000000e00006003200112680000008200057
:108e2400008060000000e00001003200fd06070041
:108e340000268000620060000000e0000c003200a8
:108e440010268000620060000000e000080032008c
:108e5400120020008000eb00f0ff2700ec30070038
:108e64008080eb0020002000212688000026880056
:108e740000808000e30f500002003e000ac8a900f1
:108e84005500370010268000680060000000e000f4
:108e9400500032000040eb00004f780049003700da
:108ea40000268000680060000000e00049003200f5
:108eb40041268000800020008140780081417800b4
:108ec400e200210003497800e100210000000000d5
:108ed400914078008180fb00c408de008140780066
:108ee40081417800f20021000349780000268800bf
:108ef4000ed0bf00684060000004e00014003a0097
:108f0400f1002100000000009140780020b4250009
:108f14000181fb00000041000181fb0021b4250018
:108f2400810041000000000011417800e14061002f
:108f3400104178000204a1000104a200e1c0600015
:108f4400e1c06000814071000148780013003700df
:108f5400f10021000000000091407800d0b325000a
:108f64000181fb00000041000181fb00d1b3250019
:108f7400810041000000000091417800e1c06100df
:108f8400104178000204a1000104a200e1c06000c5
:108f9400e1c0600081407100014878000fd0bf003b
:108fa4000004e00002003a00f50607000400370060
:108fb4000001eb00e10021002007200094300700ad
:108fc4001e4fe8001e407800e34f5000b4ff360007
:108fd400000037000ac8a9008e0778004f07780000
:108fe4004440a900000006000400fa00204798004d
:108ff400314798003e4090000080fb00680060000c
:109004000000e000030032008040eb002e4090009e
:109014005e030700000000003e4090000080fb005b
:10902400640060000000e0000300320011c0b300df
:109034002e40900055030700000000002e409000d1
:10904400014e20000080fb0000004000008f400023
:109054001e007800be409000014878008e0778001a
:109064004f0778004440a900000006000800fa00f9
:1090740020479800314798002207980063479800da
:109084003e4090000004e000070032002e409000b3
:1090940061b225000080fb00000040000100400098
:1090a400100f7800060037002e409000c1b1250053
:1090b4000080fb000000400001004000100f780019
:1090c4001e0078000000e00002003a000000eb00ff
:1090d4007d0037001e007800ae009000c041900073
:1090e400f20f2000e0c1610002816000c808de00c8
:1090f40002c17100424098005041900060416100fb
:1091040081407100514098001e007800ee409000ac
:10911400a04190008180fb00f43f2000f20f20006a
:1091240084806000e0c1610002816000c808de0044
:1091340002c17100e380600022409800e3c0600037
:10914400b0419000c2cfb30002c161008140710000
:10915400314098009e0078001e0078009182fb0048
:109164000404200091409000f20f20009041780008
:109174008180fb00e0c16100c808dd0081807200cd
:10918400848060000281600002c17100024878009e
:10919400c808de0010419000604161008140710008
:1091a400114098009e0078001e0078001182fb0098
:1091b400f20f200091409000904178008180fb00e4
:1091c400e0c16100c808dd00810072000130a00028
:1091d4000281600002c1710002487800c808de0004
:1091e400104190006041610081407100114098007d
:1091f4001e0078009e007800f20f20001182fb0010
:1092040091409000904178008180fb00e0c16100b2
:10921400c808dd00810072000170a00002816000b6
:10922400c808de0002c171000248780010419000b5
:109234006041610081407100114098003e409000ff
:109244000004e0000f0032002e40900061b22500bf
:109254000080fb0000004000810040002e40900090
:1092640000000000910078000080fb000001400035
:109274000130a20060b2250000004100010878001e
:109284000f003700000000002e409000c1b12500ff
:109294000080fb0000004000810040002e40900050
:1092a40000000000910078000080fb0000014000f5
:1092b4000130a200c0b1250000004100010878007f
:1092c400000000001e0078008e0778004f07780029
:1092d4004440a900000006000400fa00204798005a
:1092e400314798002e4090000004e0004f003a00ff
:1092f40030808000c1cfb300204190006041610004
:109304000234a00022409800304190008140610066
:10931400314098003080800071b42500c041900035
:10932400f20f2000e0c1610002816000c808de0085
:1093340002c17100424098005041900060416100b8
:10934400814071005140980030808000f30f20006c
:1093540090407800e0c06000c140b300014878004c
:10936400f20f200090409000e0c06000114098008f
:1093740030808000318080009182fb00000000007a
:1093840091409000104278008180fb0060426200ae
:10939400c808dd00818072000170a0008381600034
:1093a4008341720003487800c808de0090419000b1
:1093b400e0c1610081c071001140980030d9820081
:1093c40090407800e0c060000124a00001487800cb
:1093d40090409000e0c060001140980030d98200b5
:1093e40031d982001182fb000000000091409000fe
:1093f400904178008180fb00e0c16100c808dd0075
:10940400810072000170a00002816000c808de00c3
:1094140002c171000248780010419000604161006f
:1094240081407100114098005f0037002e40900089
:10943400be4090000080fb008180fb0000014000e2
:1094440000a0250081004100c408dd00008f400019
:10945400f20f20009e0078001e0078009182fb002d
:109464009140900010427800904190008180fb0070
:1094740060426200c808dd00e0c1610081807200c2
:109484000120a00002816000c808de0002417200d1
:1094940081c0710002487800114098009e00780055
:1094a4001e0078001182fb009140900090427800e9
:1094b400104190008180fb00f30f2000c808dd00fc
:1094c400e0c26200810072006042610002a02500d7
:1094d4000170a00083816000c808de0083c17200af
:1094e4008140720003487800114098002e4090009b
:1094f400be4090000080fb008180fb000000400023
:10950400010040004400dd0068004000020f4000fc
:10951400f20f20009e0078001e0078009182fb006c
:109524009140900010427800904190008180fb00af
:1095340060426200c808dd00e0c161008180720001
:109544000120a00002816000c808de000241720010
:1095540081c0710002487800114098001e00780014
:109564009e007800904178001182fb0091409000a9
:10957400f20f20008180fb00e0c16100c808dd001b
:10958400810072000170a00002816000c808de0042
:1095940002c17100024878001041900060416100ee
:1095a40081407100114098008e0778004f077800c1
:1095b4004440a900000006000200fa00889fbe0093
:1095c4008a1f7800004f7800000220005126800096
:1095d400008060000000e000b40032009e80fb00c8
:1095e4001e80fb008181400061b225000001400023
:1095f4008180410060b22500000041001101780023
:109604009001780004042000050020009384fb00ee
:109614001343900084037800234490000683fb00e6
:10962400b34190004835dd00124378008a84740009
:109634000884fb00090078008381fb0005027800a0
:10964400c81add00f30f2000850274006043630034
:10965400850078008002780001007800878362002a
:10966400040060006102b800c022dd000400200094
:109674000400be00613ab8000400700085807000e8
:10968400830160008341730003497800c801de0050
:1096940012429000f50f2000604262008582600053
:1096a400834172004808de001341980064b225002b
:1096b400a240900063b22500e0c0600085c0700045
:1096c40021419800b2409000e0c0600000c07000ea
:1096d400304198009e80fb001e80fb000181400009
:1096e40080004000040041008380400010007800a6
:1096f4000000000091007800040420000500200010
:109704009184fb00f70f2000114390002145900045
:109714000683fb0031449000c830dd00104378001c
:10972400818474008a80fb00090178000884fb00ae
:10973400604363004844dd00888070008101780044
:10974400040169008581690087006100814073001c
:1097540001487800c810de0090429000f40f200009
:10976400e0c262000482610081c072004819de0018
:109774001140980061b22500a0419000e0c1610051
:1097840084c1710023409800b0419000e0c16100a1
:1097940002c17100324098001e80fb0000004000ae
:1097a400810040001e80fb00000000009100780052
:1097b4000001400060b225000130a2000000410019
:1097c40063b225000108780062b225009e80fb0088
:1097d4001e80fb0001824000800040000300420024
:1097e40082804000100078000000000091007800a2
:1097f400040420009182fb00f20f200091409000ad
:10980400904178008180fb00e0c16100c808dd0060
:1098140081807200848060000281600002c1710056
:1098240002487800c808de001041900063b22500a9
:109834006042610062b225008140720011409800cc
:109844009e80fb001e80fb000182400080004000df
:1098540003004200828040001000780000000000f5
:1098640091007800040420009182fb00f20f200094
:1098740091409000904178008180fb00e0c161003c
:10988400c808dd0081807200848068000281600065
:1098940002c1710002487800c808de00104190003f
:1098a4006041610081407100114098004f057800cb
:1098b4004f04be008e0778004f0778004440a9008b
:1098c400000006000000fa00ca24ef00c224ef00e2
:1098d4000030ef008e0778004f0778004440a9005d
:1098e400000006000000fa00008080000000e00094
:1098f40018003a00ca24ef00f2092000c224ef0045
:10990400f1092000dc24ef00f08f2f00de24ef00ab
:109914008e44a90032268800112688008ac4a80033
:109924002ac8a800514380000080600000a0a00065
:109934005043880001003700ca04a8005026800064
:10994400610060000000e000fbff32001000200016
:10995400008088008e0778004f0778004440a900f3
:10996400000006000000fa0013d0bf000004a200ab
:109974000004e0008800320010c0b30013f0b70008
:1099840014d0bf000004a2000004e00082003200f2
:1099940010c0b30014f0b70009d0bf00e24f50006c
:1099a40026003a0030d98200c1cfb3002041900094
:1099b4006041610022409800304190008140610084
:1099c4003140980030d9820081c4b300104178003e
:1099d400604161008140710001487800f20f20006d
:1099e40090409000e0c060001140980030d982009f
:1099f40031d982001182fb000000000091409000e8
:109a0400904178008180fb00e0c16100c808dd005e
:109a1400810072000170a0000281600002c1710027
:109a240002487800c808de001041900060416100df
:109a340081407100114098005700370009d0bf00e1
:109a4400e14f500054003a00208080001070ef0075
:109a5400c1cfb30020419000604161000234a000f6
:109a640022409800304190008140610031409800cc
:109a74002080800071b42500c0419000f20f2000c6
:109a8400e0c1610002816000c808de0002c171000b
:109a94004240980050419000604161008140710053
:109aa4005140980020808000f40f200090407800fe
:109ab400e0c060000124a0000148780013c0b30096
:109ac40090409000e0c06000114098002080800029
:109ad40021808000c2cfb3001183fb00914090002d
:109ae400904278008180fb00e0c26200c808dd007b
:109af400810073000170a0000482600004c272003f
:109b040004487800c808de001042900060426200f9
:109b14008140720011409800308080000342780038
:109b24000101210084487800a0409000e0c060005a
:109b34000134a00021409800b040900082c0600031
:109b4400314098003080800071b42500c0419000fd
:109b5400f20f2000e0c1610002816000c808de004d
:109b640002c1710042409800504190006041610080
:109b7400814071005140980030808000904078000e
:109b8400e0c060000174a00001487800904090009b
:109b9400e0c06000114098008e0778004f077800fd
:109ba4004440a900000006000000fa001570ef0010
:109bb4001670ef0009d0bf00e24f500034003a00a5
:109bc40030808000c1cfb30020419000604161002b
:109bd4000234a0002240980030419000814061008e
:109be4003140980030808000f1b42500c0419000dd
:109bf400f20f2000e0c1610002816000c808de00ad
:109c040002c17100424098005041900060416100df
:109c140081407100514098003080800081c4b300bd
:109c24001041780060416100814071000148780072
:109c3400f20f200090409000e0c0600011409800b6
:109c440030808000318080001182fb000000000021
:109c540091409000904178008180fb00e0c1610058
:109c6400c808dd00810072000170a000028160005c
:109c740002c1710002487800c808de00104190005b
:109c84006041610081407100114098003b00370041
:109c9400d1b42500e0b425009180fb001081fb00c5
:109ca400a0d982004811dd0082807000808f5000ae
:109cb40007003100d0b42500e1b425001080fb007a
:109cc4009180fb00c808dd0001007000a0d98a0063
:109cd4001c01070030d98200f1b42500c041900076
:109ce400f20f2000e0c1610002816000c808de00bc
:109cf40002c17100424098005041900060416100ef
:109d0400814071005140980030d9820081c4b30071
:109d14001041780060416100814071000148780081
:109d2400f20f200090409000e0c0600011409800c5
:109d340030d9820031d982001182fb00000000007a
:109d440091409000904178008180fb00e0c1610067
:109d5400c808dd00810072000170a000028160006b
:109d640002c1710002487800c808de00104190006a
:109d74006041610081407100114098008e077800b5
:109d84004f0778004440a900000006000400fa00d0
:109d940002a02500020f7800204798003147980060
:109da4002e409000be4090000080fb008180fb00ac
:109db40000004000010040004400dd001e0f400090
:109dc4001e007800904078000174a10001487800da
:109dd4003e4090000004e00007003a002e4090004e
:109de400c1b125000080fb000000400001004000dc
:109df4001e08780007003700000000002e40900085
:109e040061b225000080fb0000004000010040001a
:109e14001e087800000000001e007800000000000a
:109e2400904078000164a100014878009e00780009
:109e340068804000904078000164a00001487800e8
:109e44008e0778004f0778004440a9000000060000
:109e54000000fa00caa4a9000008200091d98200d9
:109e6400008060000000e0005f003a0081b325003c
:109e740000c8b3009140780000c060000004e00016
:109e84000a00320020c0b30009f0b70016d0bf00aa
:109e94000004a2000004e0000100320042ff0700b9
:109ea4001470ef001370ef00a200370030808000c0
:109eb400c1cfb30020419000604161000234a00092
:109ec4002240980030419000814061003140980068
:109ed4003080800071b42500c0419000f20f200052
:109ee400e0c1610002816000c808de0002c17100a7
:109ef40042409800504190006041610081407100ef
:109f04005140980030808000f30f2000904078008a
:109f1400e0c06000c140b30001487800f20f2000a7
:109f240090409000e0c060001140980030808000b4
:109f3400318080009182fb0000000000914090007d
:109f4400104278008180fb0060426200c808dd0096
:109f5400818072000170a0008381600083417200df
:109f640003487800c808de0090419000e0c1610019
:109f740081c071001140980030d98200904078006f
:109f8400e0c060000124a0000148780090409000e7
:109f9400e0c060001140980030d9820031d98200bd
:109fa4001182fb0000000000914090009041780075
:109fb4008180fb00e0c16100c808dd0081007200ff
:109fc4000170a00002816000c808de0002c17100b7
:109fd40002487800104190006041610081407100a6
:109fe400114098005300370071b4250000c8b30035
:109ff4009140780000c060000004e0000f003200cf
:10a0040010c0b30009f0b70015d0bf000004a200cf
:10a014000004e00001003200e3fe07001470ef00ca
:10a024001370ef0012d0bf000004a2000004e0008f
:10a03400400032004bfe07003e00370030808000b5
:10a0440022c0b300c1cfb300000000000242780078
:10a054009300210084497800204190006041610010
:10a064000234a000224098003041900081406100f9
:10a07400314098003080800071b42500c0419000c8
:10a08400f20f2000e0c1610002816000c808de0018
:10a0940002c171004240980050419000604161004b
:10a0a400814071005140980030808000f20f200000
:10a0b40090407800e0c060000124a00001487800ce
:10a0c40090409000e0c06000114098003080800013
:10a0d400318080001182fb0000000000914090005c
:10a0e400904178008180fb00e0c16100c808dd0078
:10a0f400810072000170a0000281600002c1710041
:10a1040002487800c808de001041900060416100f8
:10a1140081407100114098001470ef001370ef003b
:10a1240012d0bf000004a2000004e00001003200cd
:10a134000cfe07008e0778004f0778004440a90002
:10a14400000006000200fa0081c0b300a0d982001a
:10a15400014f7800e70f50000d003e00a1d98200a6
:10a1640008d0bf00014f78000004e00003003a006b
:10a1740010c0b30008f0b7000500370008d0bf00d6
:10a18400e14f500002003a0020c0b30008f0b700cd
:10a1940030d98200a3d982001e81fb009e80fb007f
:10a1a40082815100f23f2000a3d98a00828060009e
:10a1b400a0419000f20f2000e0c161000281600024
:10a1c400c808de0002c17100e380600022409800ec
:10a1d40063c1600030429000c3cfb300f1b42500e6
:10a1e4008341620002c171003240980051808800ae
:10a1f40090d98200610060000000e00017003a007e
:10a204000900370080d98200518080001041780015
:10a21400824878001e4fe9008100e8000000e80051
:10a224005180880080d98a001e4078000004e00034
:10a23400f4ff3a000c00370080d98200518080007e
:10a2440010417800824878001e4fe9008100e80040
:10a254000000e8005180880080d98a001e40780000
:10a264000004e000f4ff3a008e0778004f077800fe
:10a274004440a900000006000200fa00208080008b
:10a2840091b3250020429000a2b32500b041900074
:10a294000480fb008381fb00e3816100c819dd00b9
:10a2a40003007000004f78001180fb009e80fb00cb
:10a2b4001281fb004811dd0002007000808f500005
:10a2c4000700360090b32500a1b325001080fb00e1
:10a2d4009180fb00c808dd0001007000004f780089
:10a2e40091b32500a0b3250092b32500a3b32500a4
:10a2f4009282fb001e81fb001383fb00f30f2000fe
:10a30400114278004833dd006042620086827200a8
:10a314000043eb001647980002815200830161005c
:10a324004811de0083417200834878009040780031
:10a33400e0c0600082c07000014878001e00370051
:10a34400000000001e40900062b3250074b3250095
:10a354000080fb00f1b425008081400061b325003a
:10a3640070b325001281fb001482fb009341780036
:10a374004822dd0004017100034978009e419000e9
:10a384008341e80013479800114278000201e80075
:10a39400f30f200060426200830161004811de0077
:10a3a400834172008348780090407800e0c06000e8
:10a3b40082c0700001487800000000001e40900038
:10a3c400000000009e4f5000ddff390090b32500cf
:10a3d400a1b325001080fb009180fb00c808dd00bc
:10a3e400010070000000e000560032003080800060
:10a3f400c1cfb30020419000604161000234a0004d
:10a404002240980030419000814061003140980022
:10a4140030808000f1b42500c0419000f20f20008c
:10a42400e0c1610002816000c808de0002c1710061
:10a4340042409800504190006041610081407100a9
:10a444005140980020808000104078000044b20001
:10a454000004e0001e003a003080800081c4b30094
:10a46400104178006041610081407100014878002a
:10a47400f20f200090409000e0c06000114098006e
:10a4840030808000318080001182fb0000000000d9
:10a4940091409000904178008180fb00e0c1610010
:10a4a400c808dd00810072000170a0000281600014
:10a4b40002c1710002487800c808de001041900013
:10a4c40060416100814071001140980066003700ce
:10a4d40030808000f20f200090407800e0c06000df
:10a4e4000134a0000148780090409000e0c0600072
:10a4f4001140980030808000318080001182fb0080
:10a504000000000091409000904178008180fb00a1
:10a51400e0c16100c808dd00810072000170a00084
:10a524000281600002c1710002487800c808de00a0
:10a534001041900060416100814071001140980019
:10a544004900370030808000c1cfb3002041900023
:10a55400604161000234a000224098003041900024
:10a5640081406100314098003080800071b4250042
:10a57400c0419000f20f2000e0c161000281600040
:10a58400c808de0002c171004240980050419000aa
:10a59400604161008140710051409800308080002a
:10a5a400f40f200090407800e0c060000124a00077
:10a5b40001487800b3b3250090409000e0c06000eb
:10a5c400114098003080800031808000c2b32500a3
:10a5d4001183fb0091409000904278008180fb0041
:10a5e400e0c26200c808dd00810073000170a000b1
:10a5f4000482600004c2720004487800c808de00c7
:10a604001042900060426200814072001140980044
:10a614001380fb009280fb00c808dd00010070007d
:10a624000000e00007003200b0b32500c1b32500ec
:10a634001080fb009180fb00c808dd000100700061
:10a644000000010080b32500904078000174a1004f
:10a654000148780012d0bf000004a2000004e0000a
:10a6640001003200bffc07008e0778004f07780016
:10a674004440a900000006000200fa0090d98200bc
:10a68400820020000070a0008000eb0090d98a00b6
:10a69400204e2000cfdf0700020a20008000eb00dc
:10a6a40000a02500cbdf07000040eb00ca24a8006f
:10a6b400004f78000b0037009e80fb001e80fb00db
:10a6c4001e4fe800d2b325008041eb000101410098
:10a6d40021b4250003497800008040008040eb004d
:10a6e400014878001e407800e44f5000f2ff360025
:10a6f400220020008000eb00a0b12500b5df070098
:10a7040091b42500ca24a90000a1250011417800b4
:10a7140001a025000000000002427800230021006f
:10a72400844978002180880030d98a002180800003
:10a7340002d0bf00318088000004e00003003a002a
:10a74400000120000080880006003700120020006d
:10a754002100210010002000ad2a07000002200083
:10a76400008088008e0778004f0778004440a900d5
:10a77400000006000000fa0071b4250000c8b30010
:10a784009140780080cf500045003a00a0b42500e5
:10a7940021b3250002ccb300824878001040780031
:10a7a4000080fb00e20f500009003200e30f50006c
:10a7b40023003200e10f500036003a0001bc2a00a9
:10a7c4002001200081d98a00a0d98a0034003700f2
:10a7d40090b42500104078000004e00014003a0012
:10a7e40090b4250021c82a00104078000080fb00a6
:10a7f400000040000100400041b325001000780033
:10a8040080d98a0080d982000081e80050b32500f5
:10a81400124178008248780081d98200e3804000a8
:10a824000000000091407800014878001c003700c7
:10a8340020b325008040eb00014878001800370061
:10a8440090b4250010407800e24f50000d003e0007
:10a8540090b4250041c82a00104078000080fb0015
:10a8640000004000010040001000780080d98a00f8
:10a8740080d98200104078000080fb00a0d98a00b3
:10a884000700370020b325008040eb000148780022
:10a894000300370020b325008040eb000148780016
:10a8a4008e0778004f0778004440a9000000060096
:10a8b4000200fa00f0b425000041eb0001b52500c8
:10a8c400024878000041eb0070b42500824878000b
:10a8d400904078007fc060000080fb00e10f5000d2
:10a8e40010003200e20f5000120032000000e000bd
:10a8f4003b003a0090d982000070a00090d98a00f1
:10a904000cd0bf000004e00033003200f1b4250095
:10a91400f0b42500914078000114a00001487800ab
:10a924002f00370090d982000070a00090d98a00cf
:10a934002b003700b1b4250092d9820000c8b300bf
:10a944000270a00092d98a009140780000c0600093
:10a954000004e00009003a00b0b42500c1b12500ac
:10a96400104178006f4061000080fb00000040004f
:10a9740001004000100f780008003700b0b4250033
:10a9840061b22500104178006f4061000080fb0037
:10a994000000400001004000100f78009e00780085
:10a9a40000c8b3009140780000c060000004e000db
:10a9b4000a0032001e0078001040780064406000f5
:10a9c4000004e00006003200f0b4250011c0b3001a
:10a9d400014878000200370001003700000037000a
:10a9e40091d9820000082000008060000000e0008f
:10a9f40008003200f1b4250040b3250081d98a0053
:10aa040021c0b30092d982000200a00092d98a002a
:10aa1400014878008e0778004f0778004440a90069
:10aa2400000006000000fa000027800062006000b9
:10aa34000000e0002f003200208080000108200088
:10aa44001081fb00104090000080fb004800dd00f6
:10aa540000007100810f500025003a0030d98200b7
:10aa6400410820001081fb00104090000080fb0092
:10aa74004800dd0000007100810f50001c003a0006
:10aa840020808000f20f200090407800e0c0600039
:10aa9400c140b3000148780090409000e0c06000dd
:10aaa4001140980020808000218080001182fb00ea
:10aab4000000000091409000904178008180fb00ec
:10aac400e0c16100c808dd00810072000170a000cf
:10aad4000281600002c1710002487800c808de00eb
:10aae4001041900060416100814071001140980064
:10aaf400e024a90000082000002688008e077800c2
:10ab04004f0778004440a900000006000000fa0046
:10ab14008a84a8000101200010c0b3000126880027
:10ab24000df0b7001c70ef000001eb008000eb009b
:10ab340050072000b62907008e0778004f077800d9
:10ab44004440a900000006000000fa000d70ef0068
:10ab54000001eb008000eb0040072000ac29070057
:10ab64008a84a90000012000402488001c70ef00a2
:10ab74008e0778004f0778004440a90000000600c3
:10ab84000000fa00d0c2b30011f0b7000ed0bf002d
:10ab94000080fb000020a1000000e00025003a0036
:10aba400e1002100000000009140780000a0250091
:10abb4008180fb00c208de00814078008180fb00b8
:10abc400c308dd00008040002080880021808000d0
:10abd4002280800040c3b30032808800328080002d
:10abe4000230a2003280880091407800c143b20054
:10abf40080cf50000d003a0020808000404190003a
:10ac0400d04090000280fb008180fb00c808dd007a
:10ac140001007000820020008000780070b42500dc
:10ac240065de07000d000700080037006c00070010
:10ac3400060037000ed0bf000080fb000020a100fa
:10ac4400e80f500001003a00a80007008e077800c2
:10ac54004f0778004440a900000006000000fa00f5
:10ac640030d9820031d982000870ef00f20f200041
:10ac74001270ef001570ef001670ef001070ef0007
:10ac84000970ef001182fb00914090009041780020
:10ac94008180fb00e0c16100c808dd008100720012
:10aca4000170a1000281600002c1710002487800b5
:10acb400c808de00104190006041610081407100cd
:10acc4001140980030d982000030a20030d98a00a7
:10acd40030d9820031d98200f20f20001182fb00aa
:10ace40091409000904178008180fb00e0c16100b8
:10acf400c808dd00810072000170a10002816000bb
:10ad040002c1710002487800c808de0010419000ba
:10ad140060416100814071001140980030808000e2
:10ad24003380800034d9820092b32500a1b325007a
:10ad340084027800f40f20000530a20035d98a007f
:10ad44001383fb0093419000904278008381fb00c1
:10ad5400e0c26200c819dd00830173000370a10022
:10ad64000482610004c2720004487800481ade00bc
:10ad74009042900023b3250060c362008042eb0040
:10ad8400044373000002eb001640980080b32500d2
:10ad9400854978008041eb00a4d98a0003487800f3
:10ada400124078006040600000497800114078004b
:10adb4006040600080487800f70007000001eb0065
:10adc4008000eb00300020001129070020fc070060
:10add4008e0778004f0778004440a9000000060061
:10ade4000000fa0009d0bf00e24f500002003a0010
:10adf40021fd0700390037000970ef0010d0bf00b3
:10ae04000004a2000004e00033003200308080001f
:10ae1400c1cfb30020419000604161000234a00022
:10ae240022409800304190008140610031409800f8
:10ae34003080800071b42500c0419000f20f2000e2
:10ae4400e0c1610002816000c808de0002c1710037
:10ae5400424098005041900060416100814071007f
:10ae64005140980030808000f20f2000904078001c
:10ae7400e0c06000c140b3000148780090409000f9
:10ae8400e0c0600011409800308080003180800074
:10ae94001182fb0000000000914090009041780076
:10aea4008180fb00e0c16100c808dd008100720000
:10aeb4000170a0000281600002c1710002487800a4
:10aec400c808de00104190006041610081407100bb
:10aed40011409800010037001070ef008e077800d1
:10aee4004f0778004440a900000006000200fa0061
:10aef40031d9820030d982009180fb00c608de007f
:10af04000030a200e1c06000014f780030d98a000f
:10af140000808000e80f50000e003a0091b4250034
:10af2400f0072000914078008180fb0000806000e1
:10af340060268800602680000000e00003003200e4
:10af4400000120000080880002003700400020003b
:10af54000080880009d0bf00e14f50006c003a0027
:10af640030d98200f1b42500c04190004809de00c8
:10af7400e0c16100f40f20008480600081c0710092
:10af840041409800d0409000e0c0600082c0700052
:10af9400514098006bfc070008d0bf00e24f5000fe
:10afa4001d003a0030d98200f20f20009040780052
:10afb400e0c060000124a0000148780090409000a7
:10afc400e0c060001140980030d9820031d982007d
:10afd4001182fb0000000000914090009041780035
:10afe4008180fb00e0c16100c808dd0081007200bf
:10aff4000170a0000281600002c171000248780063
:10b00400c808de0010419000604161008140710079
:10b01400114098005c0037001e4078000004e000f6
:10b024001e003a0030d9820081c4b3001041780078
:10b03400604161008140710001487800f20f2000f6
:10b0440090409000e0c060001140980030d9820028
:10b0540031d982001182fb00000000009140900071
:10b06400904178008180fb00e0c16100c808dd00e8
:10b07400810072000170a0000281600002c17100b1
:10b0840002487800c808de00104190006041610069
:10b0940081407100114098003b00370030d9820094
:10b0a400f20f200090407800e0c060000134a0005e
:10b0b4000148780090409000e0c060001140980082
:10b0c40030d9820031d982001182fb0000000000d7
:10b0d40091409000904178008180fb00e0c16100c4
:10b0e400c808dd00810072000170a00002816000c8
:10b0f40002c1710002487800c808de0010419000c7
:10b104006041610081407100114098001e003700c9
:10b1140081b3250000c8b3009140780000c06000ee
:10b124000004e00017003200b0b32500c1b32500cd
:10b13400000000001080fb00000000009180fb0074
:10b14400c808dd00010070000000e00009003200c2
:10b15400b0b32500c1b32500000000001080fb003f
:10b16400000000009180fb00c808dd0001007000b1
:10b174000000010080b32500904078000174a10014
:10b18400014878000970ef008e0778004f077800b7
:10b194004440a900000006000000fa0070b4250035
:10b1a400104078000046b2000004e00051003a006c
:10b1b40080b42500b2002000030020001040780075
:10b1c4000080fb00cf80de00820f5000838f580088
:10b1d40049003e000006010021003700220037002c
:10b1e40046003700200037004400370006003700cf
:10b1f4000b0037003a0037000d0037000a00370013
:10b204001b0037002a00370091d9820080002000fb
:10b214000170a00091d98a000080880037003700af
:10b2240054fd07003500370013fd070033003700d5
:10b234002100210040b3250081d98a0011c0b30048
:10b2440092d982000200a00092d98a0001487800b5
:10b2540090d982000070a00090d98a00270037009e
:10b2640093fd07002500370028000700230037005e
:10b27400b0b42500a2b125009040780040b3250069
:10b284008181fb0011c0b3000281410082d98a0090
:10b2940092d982000200a00092d98a000148780065
:10b2a40090d982000070a00090d98a001300370062
:10b2b400b0b4250091b4250093d98200a2b1250031
:10b2c4000370a00093d98a00104078009140780060
:10b2d4000080fb00000041000148780007003700af
:10b2e4000001eb008000eb0020002000c8270700cd
:10b2f4000200370001003700000037008e07780095
:10b304004f0778004440a900000006000600fa0038
:10b3140090b4250010407800e14f500010003a002e
:10b3240070b42500104078007f4060000004e00005
:10b334000b003a0080b4250091d982000170a0006e
:10b3440091d98a0010407800e34f500003003a007e
:10b3540010c0b3000cf0b700010037000c70ef0010
:10b3640090b42500104078000004e0005e013a002b
:10b3740070b42500104078007f406000e24f500018
:10b3840059013a00b0b42500104078006f406000c5
:10b394000004e00054013200b0b42500904078006d
:10b3a4006fc060000080fb00e40f50004e013c00c1
:10b3b4000180800000022000808f50004a013a0082
:10b3c400b1b4250092d9820000c8b3000270a00075
:10b3d40092d98a009140780000c060000004e00027
:10b3e40011003a00b0b42500c1b125001041780025
:10b3f4006f406100b2b425000080fb001242780067
:10b40400ef416200000140000380fb008100410025
:10b4140022b4250000004100110f7800104078008c
:10b424004047980010003700b0b4250061b22500f1
:10b43400104178006f406100b2b425000080fb0029
:10b4440012427800ef416200000140000380fb00db
:10b4540081004100d2b3250000004100110f7800a3
:10b4640010407800404798004e40900061406000d2
:10b474000004e00004003a001e0078000030a1003f
:10b48400000f7800030037001e0078000030a00091
:10b49400000f7800b1b4250000c8b30091407800d3
:10b4a40000c060000004e0000a003a00b0b42500c7
:10b4b4009e007800104178006f406100c2b1250001
:10b4c4000080fb00000040000200400001087800fa
:10b4d40009003700b0b425009e00780010427800bf
:10b4e4006f40620062b225000080fb000000400053
:10b4f400020040000108780080b425001040780064
:10b50400e34f500046003a009e00780000c8b300a4
:10b514009140780000c060000004e000190032008f
:10b52400b1b4250000c8b3009140780000c06000a9
:10b534000004e0000a003a00b1b4250020b425005c
:10b5440011417800ef4061008180fb0000804000e1
:10b55400904078000114a0000148780009003700e9
:10b56400b1b42500d0b3250011427800ef40620049
:10b574008180fb0000804000904078000114a0000e
:10b58400014878009e0078001e0078009182fb003c
:10b594009140900010427800904190008180fb001f
:10b5a400f20f2000c808dd00604262008180720052
:10b5b400e0c161000120a00002816000c808de0033
:10b5c4000241720081c07100024878001140980065
:10b5d4009e0078001e0078009182fb00914090004c
:10b5e40010427800904190008180fb00f20f20000f
:10b5f400c808dd006042620081807200e0c1610021
:10b604000170a00002816000c808de0002417200df
:10b6140081c071000248780011409800b2003700e0
:10b624001e0078000030a200000f780000c8b300ac
:10b634009e0078009140780000c060000004e000a3
:10b644002b0032009e0078001e007800114190000b
:10b654009180fb0010427800904190000281fb0031
:10b66400604262004811dd00e0c161008280700028
:10b67400f20f20000170a10002816000c808de0002
:10b684000241720081c071000248780011409800a4
:10b694009e0078001e007800114190009180fb000c
:10b6a40010427800904190000281fb0060426200e9
:10b6b4004811dd00e0c1610082807000f20f2000bb
:10b6c4000160a00002816000c808de00024172002f
:10b6d40081c07100024878001140980022002000c7
:10b6e4009e00780050002000c9260700180037008b
:10b6f400000000009e007800000000001e0078009a
:10b70400000000001181fb00000000009140900047
:10b7140000000000904190008180fb00e0c16100c6
:10b72400c808dd00810071000160a0004809de0046
:10b7340002c171001240980010417800f30f2000fc
:10b74400604161008380600081407100014878009d
:10b754009e0078004e4090000130a20062406000dc
:10b76400010f78000004e00006003a009e00780013
:10b7740000c8b3009140780000c060000004e000fd
:10b7840033003200b1b4250000c8b3009140780002
:10b7940000c060000004e0000a003a00b1b42500d3
:10b7a40020b4250011417800ef4061008180fb0046
:10b7b40000804000904078000114a1000148780006
:10b7c40009003700b1b42500d0b325001142780038
:10b7d400ef4062008180fb000080400090407800d0
:10b7e4000114a100014878009e0078001e00780032
:10b7f400114190009180fb0010427800904190002c
:10b804000281fb00604262004811dd00e0c161007a
:10b8140002817000b1f32f0082027800f20f200041
:10b824008180620002816000c808de00024172006b
:10b8340081c0710002487800114098002200200065
:10b844009e00780050002000712607001900370080
:10b85400000000009e007800000000001e00780038
:10b86400000000001181fb000000000091409000e6
:10b8740000000000904190000182fb00b1f32f0012
:10b884004822dd00e0c16100040171008100610013
:10b894004809de0002c1710012409800104178008e
:10b8a400f30f2000604161008380600081407100db
:10b8b40001487800014e2000b0b425001041780002
:10b8c4006f4061000080fb000000400000804000e9
:10b8d400100798009e0090001e0090009140780090
:10b8e4000114a100014878008e0778004f07780002
:10b8f4004440a900000006000000fa00c080800057
:10b90400d180800061004000e0804800c080880051
:10b91400d18088000dd0bf000004a2000004e00024
:10b92400080032001cd0bf000040e8001cf0b70043
:10b934001cd0bf000004e00002003a0000c0eb008d
:10b944001cf0b7008e0778004f0778004440a90028
:10b95400000006000400fa00c2808000d38080004a
:10b96400028fbe00c0808000d18080001e0178005c
:10b974009e019000800f5100818f5900f6ff3a001c
:10b984001e0078009e0090008e0778004f07780014
:10b994004440a900000006002600fa00889fbe006b
:10b9a4008a1f7800700f98000117980012179800ea
:10b9b4002317980002002000832c2400000020009c
:10b9c400812c240042079800530798002007980010
:10b9d4003107980070004700e1d32a00420020009c
:10b9e400f5da07007400470021d42a008200200001
:10b9f400f1da07000041eb008040eb000000eb00af
:10ba0400425f9800515f9800000f780044003700af
:10ba14000000eb00100798003c0037001e00900067
:10ba24001e017800f000410074004000eec0780070
:10ba34006e4078008180fb000080fb001ac0b300d8
:10ba44008089b90000002900013d2000cf91de006b
:10ba540068da07007e099000600798007107980073
:10ba64006e0090000200500000f0a7000000ea0001
:10ba7400cf80de00d3d9070002002000832c2400ed
:10ba840028da07000001be007e0890008e109000a6
:10ba94000204be00ced907000001be000800be00ab
:10baa40069d907002e019000be019000400798005c
:10bab400510798004e009000de009000a4d90700c2
:10bac4000000e000010035000045eb000a04e0003e
:10bad4000a0032001e00780000407800405f9800a1
:10bae4001e00900000407800505f98004e019000c6
:10baf400de01900022079800330798000000000040
:10bb04001e0090000000e8001007980000000000ec
:10bb14001e009000e70f5000c0ff34001e0fe80025
:10bb2400000000001e007800e30f5000b8ff34004e
:10bb3400ce5890001e10900001487800de58900006
:10bb44002e10900001487800ce5890005e58900066
:10bb54008180fb000080fb00f08040007400400006
:10bb6400eec078006e4078008181fb000081fb000c
:10bb740000002900013d20008299b900cf91de0028
:10bb84001cda070060079800710798006e009000a7
:10bb9400fe0090004f0578004f04be008e07780029
:10bba4004f0778004440a900000006000c00fa008a
:10bbb400881f78003007980041e2a90041079800e7
:10bbc4001812800052079800be0390003e039000b4
:10bbd400be0290003e0290003e0190003e009000a4
:10bbe400be009000be019000c23bde0008c0a10070
:10bbf400e1c363004333de008783fb0061436300da
:10bc0400e18363000683fb00cc3bdd00610363003a
:10bc1400888373004b33dd0017128800c42ade00ca
:10bc240017128000e1c2620007b0a1008582fb0008
:10bc340007037300e182620016128800ca2add003d
:10bc4400161280004822de0006a0a10061426200b4
:10bc5400868272000482fb00151288006102620071
:10bc6400151280004722dd000570a1004911de0095
:10bc74000502720061416100141288000281fb0018
:10bc840014128000610161000450a1004511dd001f
:10bc94004600de0004017100634060001212880057
:10bca4000080fb00121280000080d1000260a1001d
:10bcb40000407800c608de0061406000e3c0600018
:10bcc400614060006140600061c260008080fb00f0
:10bcd40004c0ea00e1806000c608dd006140600045
:10bce400828070000080fb0011128800e100600077
:10bcf40010128000c808dd00000178000280a10055
:10bd04004518de00828070006140600011128800d6
:10bd14000080fb0011128000610060008101780046
:10bd24000390a1004901dd004e009000de00900068
:10bd340003017100e5014700121288006401470005
:10bd440015ff0700008fbe00121280004e409000c5
:10bd5400c1ff2f0063406000010161008080fb008f
:10bd64005e409000e3806000674060008280700065
:10bd74000080fb001112880067006000121280002e
:10bd8400c200dd0030fe2f0033fe2f0000016100f1
:10bd94003e009000828070006140600011128800b3
:10bda4000080fb0045e2a9004f01dd004402a80029
:10bdb4001e0078009e00900041a2a90040c2a90084
:10bdc4000412800083016200c300b30003128800e0
:10bdd4000312800003f0a100030171000212880025
:10bde4004f0478008e0778004f0778004440a9007c
:10bdf400000006000c00fa00881f78003007980045
:10be040061e2a900410798001813800052079800c6
:10be1400be0390003e039000be0290003e029000dc
:10be24003e0190003e009000be009000be019000d4
:10be3400c23bde0008c0a100e1c363004333de005f
:10be44008783fb0061436300e18363000683fb0097
:10be5400cc3bdd0061036300888373004b33dd005a
:10be640017138800c42ade0017138000e1c26200a1
:10be740007b0a1008582fb0007037300e182620022
:10be840016138800ca2add00161380004822de003b
:10be940006a0a10061426200868272000482fb0057
:10bea4001513880061026200151380004722dd002b
:10beb4000570a1004911de000502720061416100b4
:10bec400141388000281fb001413800061016100d7
:10bed4000450a1004511dd004600de00040171009c
:10bee40063406000121388000080fb00121380007e
:10bef4000080d1000260a10000407800c608de0086
:10bf040061406000e3c06000614060006140600027
:10bf140061c260008080fb0004c0ea00e180600030
:10bf2400c608dd0061406000828070000080fb0074
:10bf340011138800e100600010138000c808dd00c0
:10bf4400000178000280a1004518de0082807000a4
:10bf540061406000111388000080fb001113800011
:10bf640061006000810178000390a1004901dd00b7
:10bf74004e009000de00900003017100e5014700cf
:10bf8400121388006401470083fe0700008fbe007f
:10bf9400121380004e409000c1ff2f0063406000e8
:10bfa400010161008080fb005e409000e38060003e
:10bfb40067406000828070000080fb0011138800dd
:10bfc4006700600012138000c200dd0030fe2f0005
:10bfd40033fe2f00000161003e009000828070005b
:10bfe40061406000111388000080fb0065e2a90035
:10bff4004f01dd006402a8001e0078009e0090003e
:10c0040061a2a90060c2a900041380008301620038
:10c01400c300b300031388000313800003f0a100de
:10c0240003017100021388004f0478008e07780022
:10c034004f0778004440a900000006000c00fa00f5
:10c04400881f78003007980041e2a9004107980052
:10c054001815800052079800be0390003e0390001c
:10c06400be0290003e0290003e0190003e0090000f
:10c07400be009000be019000c23bde0008c0a100db
:10c08400e1c363004333de008783fb006143630045
:10c09400e18363000683fb00cc3bdd0061036300a6
:10c0a400888373004b33dd0017158800c42ade0033
:10c0b40017158000e1c2620007b0a1008582fb0071
:10c0c40007037300e182620016158800ca2add00a6
:10c0d400161580004822de0006a0a100614262001d
:10c0e400868272000482fb001515880061026200da
:10c0f400151580004722dd000570a1004911de00fe
:10c104000502720061416100141588000281fb0080
:10c1140014158000610161000450a1004511dd0087
:10c124004600de00040171006340600012158800bf
:10c134000080fb00121580000080d1000260a10085
:10c1440000407800c608de0061406000e3c0600083
:10c15400614060006140600061c260008080fb005b
:10c1640004c0ea00e1806000c608dd0061406000b0
:10c17400828070000080fb0011158800e1006000df
:10c1840010158000c808dd00000178000280a100bd
:10c194004518de008280700061406000111588003f
:10c1a4000080fb00111580006100600081017800af
:10c1b4000390a1004901dd004e009000de009000d4
:10c1c40003017100e501470012158800640147006e
:10c1d400f1fd0700008fbe00121580004e40900054
:10c1e400c1ff2f0063406000010161008080fb00fb
:10c1f4005e409000e38060006740600082807000d1
:10c204000080fb0011158800670060001215800093
:10c21400c200dd0030fe2f0033fe2f00000161005c
:10c224003e0090008280700061406000111588001b
:10c234000080fb00a5e2a9004f01dd00a402a800d4
:10c244001e0078009e009000a1a2a900a0c2a9002f
:10c254000415800083016200c300b3000315880045
:10c264000315800003f0a10003017100021588008a
:10c274004f0478008e0778004f0778004440a900e7
:10c28400000006000c00fa00881f780030079800b0
:10c29400c1e2a900410798001816800052079800cf
:10c2a400be0390003e039000be0290003e02900048
:10c2b4003e0190003e009000be009000be01900040
:10c2c400c23bde0008c0a100e1c363004333de00cb
:10c2d4008783fb0061436300e18363000683fb0003
:10c2e400cc3bdd0061036300888373004b33dd00c6
:10c2f40017168800c42ade0017168000e1c2620007
:10c3040007b0a1008582fb0007037300e18262008d
:10c3140016168800ca2add00161680004822de00a0
:10c3240006a0a10061426200868272000482fb00c2
:10c334001516880061026200151680004722dd0090
:10c344000570a1004911de0005027200614161001f
:10c35400141688000281fb0014168000610161003c
:10c364000450a1004511dd004600de000401710007
:10c3740063406000121688000080fb0012168000e3
:10c384000080d1000260a10000407800c608de00f1
:10c3940061406000e3c06000614060006140600093
:10c3a40061c260008080fb0004c0ea00e18060009c
:10c3b400c608dd0061406000828070000080fb00e0
:10c3c40011168800e100600010168000c808dd0026
:10c3d400000178000280a1004518de008280700010
:10c3e40061406000111688000080fb001116800077
:10c3f40061006000810178000390a1004901dd0023
:10c404004e009000de00900003017100e50147003a
:10c4140012168800640147005ffd0700008fbe000c
:10c42400121680004e409000c1ff2f006340600050
:10c43400010161008080fb005e409000e3806000a9
:10c4440067406000828070000080fb001116880045
:10c454006700600012168000c200dd0030fe2f006d
:10c4640033fe2f00000161003e00900082807000c6
:10c4740061406000111688000080fb00c5e2a9003d
:10c484004f01dd00c402a8001e0078009e00900049
:10c49400c1a2a900c0c2a9000416800083016200e1
:10c4a400c300b300031688000316800003f0a10044
:10c4b40003017100021688004f0478008e0778008b
:10c4c4004f0778004440a900000006000000fa006d
:10c4d40041e2a8008e0778004f0778004440a90085
:10c4e400000006000000fa0061e2a8008e07780050
:10c4f4004f0778004440a900000006000000fa003d
:10c50400a1e2a8008e0778004f0778004440a900f4
:10c51400000006000000fa00c1e2a8008e077800bf
:10c524004f0778004440a900000006000400fa0008
:10c53400000f78001107980000128000620060006c
:10c544000000e000fcff3a001112800000402000cf
:10c55400008060000000e00002003a000000eb00f0
:10c564000100370010002000e10f500004003a00e1
:10c574001e00780010007800401288000400370084
:10c584001e007800104078000080fb0040128800f4
:10c594000112800000022000008060000000e00022
:10c5a400fbff3a0011128000004020000080600070
:10c5b4000000e00002003a000000eb000100370038
:10c5c40010002000e10f500004003a001e0090000b
:10c5d40041128000010878000400370041128000f5
:10c5e4001e00900081407800014878008e07780092
:10c5f4004f0778004440a900000006000400fa0038
:10c60400000f78001107980000138000620060009a
:10c614000000e000fcff3a001113800000402000fd
:10c62400008060000000e00002003a000000eb001f
:10c634000100370010002000e10f500004003a0010
:10c644001e007800100078004013880004003700b2
:10c654001e007800104078000080fb004013880022
:10c664000113800000022000008060000000e00050
:10c67400fbff3a001113800000402000008060009e
:10c684000000e00002003a000000eb000100370067
:10c6940010002000e10f500004003a001e0090003a
:10c6a4004113800001087800040037004113800022
:10c6b4001e00900081407800014878008e077800c1
:10c6c4004f0778004440a900000006000400fa0067
:10c6d400000f7800110798000015800062006000c8
:10c6e4000000e000fcff3a0011158000004020002b
:10c6f400008060000000e00002003a000000eb004f
:10c704000100370010002000e10f500004003a003f
:10c714001e007800100078004015880004003700df
:10c724001e007800104078000080fb00401588004f
:10c734000115800000022000008060000000e0007d
:10c74400fbff3a00111580000040200000806000cb
:10c754000000e00002003a000000eb000100370096
:10c7640010002000e10f500004003a001e00900069
:10c77400411580000108780004003700411580004d
:10c784001e00900081407800014878008e077800f0
:10c794004f0778004440a900000006000400fa0096
:10c7a400000f7800110798000016800062006000f6
:10c7b4000000e000fcff3a00111680000040200059
:10c7c400008060000000e00002003a000000eb007e
:10c7d4000100370010002000e10f500004003a006f
:10c7e4001e0078001000780040168800040037000e
:10c7f4001e007800104078000080fb00401688007e
:10c804000116800000022000008060000000e000ab
:10c81400fbff3a00111680000040200000806000f9
:10c824000000e00002003a000000eb0001003700c5
:10c8340010002000e10f500004003a001e00900098
:10c84400411680000108780004003700411680007a
:10c854001e00900081407800014878008e0778001f
:10c864004f0778004440a900000006001a00fa00af
:10c87400200f98008003eb000003eb008002eb0024
:10c88400f40f20001312800000402000310f9800a4
:10c89400420f9800070f780016079800050f9800bc
:10c8a400140f9800008061000000e00002003a00cc
:10c8b4000000eb0001003700100020007007980012
:10c8c4007e009000e10f500006003a003e08900000
:10c8d400210020000000d10041079800300f98008b
:10c8e4000200370010002000400798002e08900036
:10c8f4000000e00005003a008000eb0072004700f1
:10c90400610798002007980004003700ce009000cb
:10c9140061079800ae089000210798004e08900027
:10c924000000e00005003a008000eb0070004700c2
:10c93400510798003007980004003700ce0090009b
:10c9440051079800ce08900031079800001280002b
:10c95400620060000000e000fcff3a003000370095
:10c964001e009000e70f500013003e007e00900070
:10c97400e10f500004003a002e00900010007800ef
:10c9840040128800040037002e0090001040780008
:10c994000080fb00401288001e0fe8002e0190006a
:10c9a4009e0090006e0090008100e80000004100ad
:10c9b400110798002007980001128000000220004f
:10c9c400008060000000e00015003a007e00900046
:10c9d400e10f500004003a003e0090004112800034
:10c9e4000108780004003700411280003e009000e6
:10c9f4008140780001487800000000003e0190006a
:10ca0400000000009e009000000000005e00900006
:10ca14008100e900000041001107980030079800e8
:10ca2400000000003e089000000000009e00780016
:10ca3400808f5000caff39001a00370001128000ad
:10ca440000022000008060000000e00015003a00b1
:10ca54007e009000e10f500004003a003e00900078
:10ca64004112800001087800040037004112800060
:10ca74003e009000814078000148780000000000ea
:10ca84003e019000000000009e00900000000000a5
:10ca94005e0090008100e900000041001107980049
:10caa40030079800000000001e0090000000e00025
:10cab400e2ff3a001e0078008e0778004f077800e6
:10cac4004440a900000006001a00fa00200f980054
:10cad4008003eb000003eb008002eb00f40f200066
:10cae4001313800000402000310f9800420f98007b
:10caf400070f780016079800050f9800140f980088
:10cb0400008061000000e00002003a000000eb0039
:10cb14000100370010002000700798007e0090008c
:10cb2400e10f500006003a003e089000210020006a
:10cb34000000d10041079800300f98000200370030
:10cb440010002000400798002e0890000000e0002c
:10cb540005003a008000eb0072004700610798006e
:10cb64002007980004003700ce0090006107980069
:10cb7400ae089000210798004e0890000000e000e5
:10cb840005003a008000eb00700047005107980050
:10cb94003007980004003700ce0090005107980039
:10cba400ce089000310798000013800062006000f6
:10cbb4000000e000fcff3a00300037001e00900047
:10cbc400e70f500013003e007e009000e10f50007c
:10cbd40004003a002e0090001000780040138800f2
:10cbe400040037002e009000104078000080fb0005
:10cbf400401388001e0fe8002e0190009e00900054
:10cc04006e0090008100e8000000410011079800c8
:10cc140020079800011380000002200000806000bb
:10cc24000000e00015003a007e009000e10f500083
:10cc340004003a003e00900041138000010878008f
:10cc440004003700411380003e00900081407800ca
:10cc540001487800000000003e0190000000000040
:10cc64009e009000000000005e0090008100e9003a
:10cc740000004100110798003007980000000000f0
:10cc84003e089000000000009e007800808f500055
:10cc9400caff39001a003700011380000002200087
:10cca400008060000000e00015003a007e00900063
:10ccb400e10f500004003a003e0090004113800050
:10ccc4000108780004003700411380003e00900002
:10ccd4008140780001487800000000003e01900087
:10cce400000000009e009000000000005e00900024
:10ccf4008100e90000004100110798003007980006
:10cd0400000000001e0090000000e000e2ff3a0076
:10cd14001e0078008e0778004f0778004440a90071
:10cd2400000006001a00fa00200f98008003eb00b0
:10cd34000003eb008002eb00f40f200013158000c9
:10cd440000402000310f9800420f9800070f780030
:10cd540016079800050f9800140f980000806100d2
:10cd64000000e00002003a000000eb000100370080
:10cd740010002000700798007e009000e10f500022
:10cd840006003a003e089000210020000000d10077
:10cd940041079800300f980002003700100020006f
:10cda400400798002e0890000000e00005003a00bb
:10cdb4008000eb007200470061079800200798008c
:10cdc40004003700ce00900061079800ae08900080
:10cdd400210798004e0890000000e00005003a008a
:10cde4008000eb007000470051079800300798005e
:10cdf40004003700ce00900051079800ce08900040
:10ce04003107980000158000620060000000e00017
:10ce1400fcff3a00300037001e009000e70f50007e
:10ce240013003e007e009000e10f500004003a0021
:10ce34002e00900010007800401588000400370090
:10ce44002e009000104078000080fb004015880000
:10ce54001e0fe8002e0190009e0090006e009000ce
:10ce64008100e800000041001107980020079800a5
:10ce74000115800000022000008060000000e00036
:10ce840015003a007e009000e10f500004003a00c3
:10ce94003e0090004115800001087800040037002e
:10cea400411580003e0090008140780001487800e0
:10ceb400000000003e019000000000009e00900071
:10cec400000000005e0090008100e90000004100c5
:10ced4001107980030079800000000003e089000f9
:10cee400000000009e007800808f5000caff3900c7
:10cef4001a00370001158000000220000080600045
:10cf04000000e00015003a007e009000e10f5000a0
:10cf140004003a003e0090004115800001087800aa
:10cf240004003700411580003e00900081407800e5
:10cf340001487800000000003e019000000000005d
:10cf44009e009000000000005e0090008100e90057
:10cf5400000041001107980030079800000000000d
:10cf64001e0090000000e000e2ff3a001e0078007e
:10cf74008e0778004f0778004440a900000006009f
:10cf84001a00fa00200f98008003eb000003eb0066
:10cf94008002eb00f40f20001316800000402000f4
:10cfa400310f9800420f9800070f78001607980079
:10cfb400050f9800140f9800008061000000e00045
:10cfc40002003a000000eb000100370010002000ce
:10cfd400700798007e009000e10f500006003a00b0
:10cfe4003e089000210020000000d1004107980075
:10cff400300f98000200370010002000400798000e
:10d004002e0890000000e00005003a008000eb00cc
:10d014007200470061079800200798000400370059
:10d02400ce00900061079800ae0890002107980098
:10d034004e0890000000e00005003a008000eb007c
:10d04400700047005107980030079800040037002b
:10d05400ce00900051079800ce0890003107980048
:10d0640000168000620060000000e000fcff3a004f
:10d07400300037001e009000e70f500013003e0000
:10d084007e009000e10f500004003a002e00900052
:10d094001000780040168800040037002e0090002d
:10d0a400104078000080fb00401688001e0fe80046
:10d0b4002e0190009e0090006e0090008100e80018
:10d0c4000000410011079800200798000116800015
:10d0d40000022000008060000000e00015003a001b
:10d0e4007e009000e10f500004003a003e009000e2
:10d0f40041168000010878000400370041168000c2
:10d104003e00900081407800014878000000000053
:10d114003e019000000000009e009000000000000e
:10d124005e0090008100e9000000410011079800b2
:10d1340030079800000000003e0890000000000046
:10d144009e007800808f5000caff39001a00370013
:10d154000116800000022000008060000000e00052
:10d1640015003a007e009000e10f500004003a00e0
:10d174003e0090004116800001087800040037004a
:10d18400411680003e0090008140780001487800fc
:10d19400000000003e019000000000009e0090008e
:10d1a400000000005e0090008100e90000004100e2
:10d1b4001107980030079800000000001e0090003e
:10d1c4000000e000e2ff3a001e0078008e077800bd
:10d1d4004f0778004440a900000006000000fa0050
:10d1e4001112800000402000008060000000e00078
:10d1f40002003a000000eb0001003700100020009c
:10d204008e0778004f0778004440a900000006000c
:10d214000000fa001113800000402000008060002c
:10d224000000e00002003a000000eb0001003700bb
:10d23400100020008e0778004f0778004440a900b2
:10d24400000006000000fa001115800000402000d4
:10d25400008060000000e00002003a000000eb00e3
:10d2640001003700100020008e0778004f07780077
:10d274004440a900000006000000fa0011168000d6
:10d2840000402000008060000000e00002003a003e
:10d294000000eb0001003700100020008e0778002a
:0cd2a4004f0778004440a900000006007d
:020000040000fa
:10e00000ffff0000ffff0000ffff0000ffff000018
:10e01000ffff0000ffff0000ffff0000ffff000008
:10e02000ffff0000ffff0000ffff0000ffff0000f8
:10e03000ffff0000ffff0000ffff0000ffff0000e8
:020000040000fa
:10f000000000fa008e0778004f0778004440a900fe
:10f01000000006000600fa00000f78000421a90095
:10f020001107980004c1a900220798002208800057
:10f03000000320009e00780002017000a00f200055
:10f04000220888008088b9008000780005a1a90006
:10f050001e0090000021ef00004078001108880099
:10f0600067406000024280000080fb00f1ff280042
:10f070006700600001016100cc00dd002e009000ff
:10f0800082807000014288000068a9002068a80002
:10f090000000e000020032002e0090000100370066
:10f0a000008027008081880005e1a8008e07780095
:10f0b0004f0778004440a900000006000400fa0051
:10f0c000000f78000421a9001107980004c1a900cd
:10f0d000f0fc2f00220880009e00780000006100f4
:10f0e0006109b800000278000440a0004618dd0065
:10f0f000ca10de00810070004610dd002408880080
:10f100004d09dd004300de0000007100c308de0091
:10f1100005a1a900800078000021ef001e009000ea
:10f1200011088800004078000242800067406000bb
:10f13000f1ff28000080fb00810061006700600093
:10f140004c00dd0001007000004288000068a9004a
:10f150002068a8008e0778004f0778004440a90077
:10f16000000006000600fa00000f78001021a90038
:10f170001107980010c1a90022079800820880009a
:10f18000000320009e00780002017000a00f200004
:10f19000820888008088b9008000780011a1a90049
:10f1a0001e0090001061a900004078000621ef00c9
:10f1b00067406000610888000080fb001242800008
:10f1c000e7006000f0ff2800cc08dd0000016100ce
:10f1d0002e009000828070001142880000e8a90093
:10f1e00020e8a8000000e000020032002e0090009d
:10f1f00001003700008027009081880011e1a800fd
:10f200008e0778004f0778004440a90000000600f0
:10f210000400fa00000f78001021a90011079800df
:10f2200010c1a900f0fc2f00820880009e00780029
:10f23000000061006109b800000278000440a000ed
:10f240004618dd00ca10de00810070004610dd00a7
:10f25000840888004d09dd004300de0000007100d5
:10f26000c308de0011a1a900800078001061a90088
:10f270001e0090000621ef00004078006108880021
:10f2800067406000124280000080fb00f1ff280010
:10f2900067006000810061004c00dd00010070002b
:10f2a0001042880000e8a90020e8a8008e07780036
:10f2b0004f0778004440a900000006000600fa004d
:10f2c000000f78001221a9001107980012c1a900af
:10f2d0002207980092088000000320009e0078001a
:10f2e00002017000a00f2000920888008088b900f9
:10f2f0008000780013a1a9001e0090000a21ef00f1
:10f300000040780071088800674060002242800059
:10f310008080fb0080ff2f00e7806000000161001b
:10f320002e00900082807000214288000108a90010
:10f330002108a8000000e000020032002e0090002a
:10f340000100370000802700a081880013e1a80099
:10f350008e0778004f0778004440a900000006009f
:10f360000400fa00000f78001221a900110798008c
:10f3700012c1a900f0fc2f00920880009e007800c6
:10f38000000061006109b800000278000440a0009c
:10f390004618dd00ca10de00810070004610dd0056
:10f3a000940888004d09dd004300de000000710074
:10f3b000c308de0013a1a900800078000a21ef0035
:10f3c0001e009000710888000040780022428000f2
:10f3d0006740600081ff2f000080fb00810061001a
:10f3e0006700600001007000204288000108a90049
:10f3f0002108a8008e0778004f0778004440a90034
:10f40000000006000600fa00000f78001e21a90087
:10f41000110798001ec1a90022079800f208800079
:10f42000000320009e00780002017000a00f200061
:10f43000f20888008088b900800078001fa1a90028
:10f440001e0090001061a900004078001421ef0018
:10f4500067406000d10888000080fb0062428000a5
:10f46000e7006000f0ff2800cc08dd00000161002b
:10f470002e00900082807000614288000368a9001d
:10f480002368a8000000e000020032002e00900077
:10f490000100370000802700b08188001fe1a8002c
:10f4a0008e0778004f0778004440a900000006004e
:10f4b0000400fa00000f78001e21a900110798002f
:10f4c0001ec1a900f0fc2f00f20880009e00780009
:10f4d000000061006109b800000278000440a0004b
:10f4e0004618dd00ca10de00810070004610dd0005
:10f4f000f40888004d09dd004300de0000007100c3
:10f50000c308de001fa1a900800078001061a900d7
:10f510001e0090001421ef0000407800d108880000
:10f5200067406000624280000080fb00f1ff28001d
:10f5300067006000810061004c00dd000100700088
:10f54000604288000368a9002368a8008e0778003d
:10f550004f0778004440a900000006000600fa00aa
:10f56000000f78002021a9001107980020c1a900f0
:10f570002207980002098000000320009e00780006
:10f5800002017000a00f2000020988008088b900e5
:10f590008000780021a1a9001e0090001821ef0032
:10f5a00000407800e10888006740600072428000f7
:10f5b0008080fb0080ff2f00e78060000001610079
:10f5c0002e00900082807000714288000388a9009c
:10f5d0002388a8000000e000020032002e00900006
:10f5e0000100370000802700c081880021e1a800c9
:10f5f0008e0778004f0778004440a90000000600fd
:10f600000400fa00000f78002021a90011079800db
:10f6100020c1a900f0fc2f00020980009e007800a4
:10f62000000061006109b800000278000440a000f9
:10f630004618dd00ca10de00810070004610dd00b3
:10f64000040988004d09dd004300de000000710060
:10f65000c308de0021a1a900800078001821ef0076
:10f660001e009000e108880000407800724280008f
:10f670006740600081ff2f000080fb008100610077
:10f680006700600001007000704288000388a900d4
:10f690002388a8008e0778004f0778004440a9000f
:10f6a000000006000600fa00000f78002c21a900d7
:10f6b000110798002cc1a900220798006209800058
:10f6c000000320009e00780002017000a00f2000bf
:10f6d000620988008088b900800078002da1a90007
:10f6e0001e0090002c61a900004078002221ef004c
:10f6f00067406000410988000080fb00b242800042
:10f70000e7006000f0ff2800cc08dd000001610088
:10f710002e00900082807000b142880005e8a900a8
:10f7200025e8a8000000e000020032002e00900052
:10f730000100370000802700d08188002de1a8005b
:10f740008e0778004f0778004440a90000000600ab
:10f750000400fa00000f78002c21a900110798007e
:10f760002cc1a900f0fc2f00620980009e007800e7
:10f77000000061006109b800000278000440a000a8
:10f780004618dd00ca10de00810070004610dd0062
:10f79000640988004d09dd004300de0000007100af
:10f7a000c308de002da1a900800078002c61a9000b
:10f7b0001e0090002221ef000040780041098800df
:10f7c00067406000b24280000080fb00f1ff28002b
:10f7d00067006000810061004c00dd0001007000e6
:10f7e000b042880005e8a90025e8a8008e07780047
:10f7f0004f0778004440a900000006000600fa0008
:10f80000000f78002e21a900110798002ec1a90031
:10f810002207980072098000000320009e007800f3
:10f8200002017000a00f2000720988008088b900d2
:10f83000800078002fa1a9001e0090002621ef0073
:10f84000004078005109880067406000c242800093
:10f850008080fb0080ff2f00e780600000016100d6
:10f860002e00900082807000c14288000608a90026
:10f870002608a8000000e000020032002e009000e0
:10f880000100370000802700e08188002fe1a800f8
:10f890008e0778004f0778004440a900000006005a
:10f8a0000400fa00000f78002e21a900110798002b
:10f8b0002ec1a900f0fc2f00720980009e00780084
:10f8c000000061006109b800000278000440a00057
:10f8d0004618dd00ca10de00810070004610dd0011
:10f8e000740988004d09dd004300de00000071004e
:10f8f000c308de002fa1a900800078002621ef00b8
:10f900001e0090005109880000407800c24280002b
:10f910006740600081ff2f000080fb0081006100d4
:10f920006700600001007000c04288000608a9005e
:10f930002608a8008e0778004f0778004440a900e9
:10f94000000006000600fa00000f78003a21a90026
:10f95000110798003ac1a90022079800d209800037
:10f96000000320009e00780002017000a00f20001c
:10f97000d20988008088b900800078003ba1a900e6
:10f980001e0090003a61a900004078003021ef008d
:10f9900067406000b10988000080fb00c24280001f
:10f9a000e7006000f0ff2800cc08dd0000016100e6
:10f9b0002e00900082807000c14288000668a90075
:10f9c0002668a8000000e000020032002e0090002f
:10f9d0000100370000802700f08188003be1a8008b
:10f9e0008e0778004f0778004440a9000000060009
:10f9f0000400fa00000f78003a21a90011079800ce
:10fa00003ac1a900f0fc2f00d20980009e007800c6
:10fa1000000061006109b800000278000440a00005
:10fa20004618dd00ca10de00810070004610dd00bf
:10fa3000d40988004d09dd004300de00000071009c
:10fa4000c308de003ba1a900800078003a61a9004c
:10fa50001e0090003021ef0000407800b1098800be
:10fa600067406000c24280000080fb00f1ff280078
:10fa700067006000810061004c00dd000100700043
:10fa8000c04288000668a9002668a8008e07780092
:10fa90004f0778004440a900000006000600fa0065
:10faa000000f78003c21a900110798003cc1a90073
:10fab00022079800e2098000000320009e007800e1
:10fac00002017000a00f2000e20988008088b900c0
:10fad000800078003da1a9001e0090003421ef00b5
:10fae00000407800c109880067406000d242800071
:10faf0008080fb0080ff2f00e78060000001610034
:10fb00002e00900082807000d14288000688a900f3
:10fb10002688a8000000e000020032002e009000bd
:10fb20000100370000802700008288003de1a80026
:10fb30008e0778004f0778004440a90000000600b7
:10fb40000400fa00000f78003c21a900110798007a
:10fb50003cc1a900f0fc2f00e20980009e00780063
:10fb6000000061006109b800000278000440a000b4
:10fb70004618dd00ca10de00810070004610dd006e
:10fb8000e40988004d09dd004300de00000071003b
:10fb9000c308de003da1a900800078003421ef00f9
:10fba0001e009000c109880000407800d242800009
:10fbb0006740600081ff2f000080fb008100610032
:10fbc0006700600001007000d04288000688a9002c
:10fbd0002688a8008e0778004f0778004440a900c7
:10fbe000000006000000fa0005e1a8008e0778007a
:10fbf0004f0778004440a900000006000000fa000a
:10fc000011e1a8008e0778004f0778004440a90052
:10fc1000000006000000fa0013e1a8008e0778003b
:10fc20004f0778004440a900000006000000fa00d9
:10fc30001fe1a8008e0778004f0778004440a90014
:10fc4000000006000000fa0021e1a8008e077800fd
:10fc50004f0778004440a900000006000000fa00a9
:10fc60002de1a8008e0778004f0778004440a900d6
:10fc7000000006000000fa002fe1a8008e077800bf
:10fc80004f0778004440a900000006000000fa0079
:10fc90003be1a8008e0778004f0778004440a90098
:10fca000000006000000fa003de1a8008e07780081
:10fcb0004f0778004440a900000006000000fa0049
:10fcc00005e1a9008e0778004f0778004440a9009d
:10fcd000000006000000fa0011e1a9008e0778007c
:10fce0004f0778004440a900000006000000fa0019
:10fcf00013e1a9008e0778004f0778004440a9005f
:10fd0000000006000000fa001fe1a9008e0778003d
:10fd10004f0778004440a900000006000000fa00e8
:10fd200021e1a9008e0778004f0778004440a90020
:10fd3000000006000000fa002de1a9008e077800ff
:10fd40004f0778004440a900000006000000fa00b8
:10fd50002fe1a9008e0778004f0778004440a900e2
:10fd6000000006000000fa003be1a9008e077800c1
:10fd70004f0778004440a900000006000000fa0088
:10fd80003de1a9008e0778004f0778004440a900a4
:10fd9000000006000000fa000021ef008e07780046
:10fda0004f0778004440a900000006000000fa0058
:10fdb0000621ef008e0778004f0778004440a90025
:10fdc000000006000000fa000a21ef008e0778000c
:10fdd0004f0778004440a900000006000000fa0028
:10fde0001421ef008e0778004f0778004440a900e7
:10fdf000000006000000fa001821ef008e077800ce
:10fe00004f0778004440a900000006000000fa00f7
:10fe10002221ef008e0778004f0778004440a900a8
:10fe2000000006000000fa002621ef008e0778008f
:10fe30004f0778004440a900000006000000fa00c7
:10fe40003021ef008e0778004f0778004440a9006a
:10fe5000000006000000fa003421ef008e07780051
:0cfe60004f0778004440a9000000060095
:020000040000fa
:10d2b0000a00fa00889fbe008a9fbe00000f780017
:10d2c00022079800091980009e0578009e037800c7
:10d2d0001e0578001e0478001e0178001e037800e9
:10d2e0009e0278002e0090001107980033079800e6
:10d2f00044079800e1c0650009d0a1008141780091
:10d300008700d10083c1ea00e3c060008180fb0098
:10d31000e1c16100e38060008381fb00c808dd009b
:10d32000e1816100f4cf2f00cd1bdd00c351de0091
:10d3300089837300e7c16100071988008381fb00be
:10d340002143a800e781610007198000c519dd00ad
:10d3500084836300f4f12f0087837000c640de00f1
:10d3600007198800e1c060002083a9008180fb00cc
:10d3700007198000e180600004826300c208dd00bc
:10d38000848171004711de00031988006341610048
:10d3900003198000674161000320a1000281fb00a6
:10d3a000838070004d11dd0001198800f3ff21001a
:10d3b00014198000c930de0083016200e1c0600002
:10d3c000030171008180fb001219880061816000f7
:10d3d000111980004a11dd008101780003a0a1002d
:10d3e000ca28de0003017100efc060001219880036
:10d3f000ffc06000131980008180fb0032f82f000d
:10d40000ff80600002816100c208dd0000407800fa
:10d41000828070007f406000111988000080fb004e
:10d420002223a9007f0060002203a900c800dd00bc
:10d4300023198000f20f2e0010c0b300028161009a
:10d44000828070002119880025e3a900be009000a9
:10d450009e019000814078001e019000814278007a
:10d4600044322000054a7800ce0090003303a90022
:10d47000c308de00f3708800e1c0600082198800f4
:10d480000181fb00011980004f11dd00810178004e
:10d4900003f0a100ce00900003017100e7c060001e
:10d4a000021988008180fb0001a8a9000100e000aa
:10d4b00001003c000040eb00014180000080fb00c7
:10d4c0000101780002d0a100e10060004e00900050
:10d4d000cd08dd0067406000828070000080fb00a6
:10d4e0000141880067006000324280004400dd0096
:10d4f000f1f82f00810061000100700030428800c7
:10d500004f05be004f04be008e0778004f0778001d
:10d510004440a900000006000000fa008e077800d1
:10d520004f0778004440a900000006000200fa00fe
:10d53000000f78001e007800ef0f50000200360048
:10d540000080eb00050037001e007800013020004d
:10d550000000400001004000100078008e077800b5
:10d560004f0778004440a900000006000000fa00c0
:10d5700021e3a8008e0778004f0778004440a900f7
:10d58000000006000000fa0021e3a9008e077800e1
:10d590004f0778004440a900000006000000fa0090
:10d5a0002023a8008e0778004f0778004440a90088
:10d5b000000006000000fa002023a9008e07780072
:10d5c0004f0778004440a900000006000000fa0060
:10d5d00000198000610060000000e000fcff3200e4
:10d5e0008e0778004f0778004440a900000006002d
:10d5f0000200fa00000f780092ff2f001e00780052
:10d6000081032000900178000300a0000308780047
:10d610001e007800f4e72f0090017800028161007d
:10d62000020878001e007800f23f2c00900178007c
:10d6300083807000010878001e007800130020002d
:10d64000900078000160a000010878001e007800ba
:10d6500081ff2f00900278000482620004087800a5
:10d660001e007800100278000490a00004087800e2
:10d670001e007800100278000201620002087800a3
:10d680001e0078001e0178001301980040019000f0
:10d69000810061005100b300410098001e00780035
:10d6a000c00090000130a000410098008e07780073
:10d6b0004f0778004440a900000006000200fa006d
:10d6c000000f780001fe2f00421980001e00780034
:10d6d00081006100004078007f4060000080fb0016
:10d6e0007f00600001007000401988008e077800fc
:10d6f0004f0778004440a900000006001c00fa0013
:10d7000070079800240f9800350f9800020f9800ba
:10d71000130f9800410f98003e0a90002e089000c9
:10d72000ae089000e001b900560f98004325200094
:10d730004025200083a2b9000008b8000202420080
:10d7400002712200030020000102420084007800e0
:10d7500029d307005e09900061004000e080480086
:10d7600010079800210798000200e00002003a002c
:10d7700020002000410137002e099000be099000d2
:10d78000a006200001002000800f5100818f590069
:10d7900007003e002e099000be099000f000200016
:10d7a00001002000800f5100818f590002003e00cf
:10d7b00030002000310137000e0990009e099000d2
:10d7c0001e009000ae009000800f5100818f590024
:10d7d0000200310010002000280137000e099000df
:10d7e0009e09900000092d0031002000800f51009b
:10d7f000818f5900020036000000eb001f01370046
:10d800003e0a90002e089000ae089000e001b9009a
:10d81000b3b92300b0b9230083a2b9000008b8004f
:10d82000020242000e0990009e099000010242008f
:10d8300084007800f0d207001821ef00300798002c
:10d84000410798003e009000ce009000e00f50008d
:10d85000e08f58001f0032003e019000ce01900082
:10d86000703e200001002000800f5100818f590080
:10d8700018003e00050980003e0a90002e08900026
:10d88000ae089000ef00b900f2fc2f000324240042
:10d890000281620083a2b9000209880000024200ee
:10d8a000002424000e0990009e0990000008b80092
:10d8b0000102420084007800cfd207000000780007
:10d8c0000000e90050079800de009000e1088800a1
:10d8d0007a003700000000003e019000ce01900069
:10d8e000703e200001002000800f5100818f590000
:10d8f000200036003e019000ce019000f0f32100a0
:10d9000001002000800f5100818f590019003e0056
:10d91000050980003e0a90002e089000ae08900095
:10d92000e101b900f0fc2f0083842e00008062002a
:10d9300083a2b9000040a000020242000009880052
:10d9400080842e000e0990009e0990000008b80007
:10d950000102420084007800a7d20700000078008e
:10d960000000e900500798005e019000e20888007e
:10d9700052003700000000003e019000ce019000f0
:10d98000f0f3210001002000800f5100818f590029
:10d99000200036003e019000ce019000f09f2f0045
:10d9a00001002000800f5100818f590019003e00b6
:10d9b000050980003e0a90002e089000ae089000f5
:10d9c000e001b900f0fc2f0093d02300008062003a
:10d9d00083a2b9000050a0000202420000098800a2
:10d9e00090d023000e0990009e0990000008b80016
:10d9f00001024200840078007fd207000000780016
:10da00000000e90050079800de019000e30888005c
:10da10002a003700000000003e019000ce01900077
:10da2000f09f2f0001002000800f5100818f5900ce
:10da3000220036003e019000ce019000f07f2e00c3
:10da400031002000800f5100818f59001b003e00e3
:10da5000050980003e0a90002e089000ae08900054
:10da6000ef00b90002032000032424000501710027
:10da700083a2b900020988000002420000242400a9
:10da80000e0b90009e0b90000008b8004839dd0096
:10da9000c831de00830171004831dd00010242001f
:10daa0008400780054d20700000078000000e900ec
:10dab00050079800de009000e10888000000000098
:10dac0000388a90000000000be09900000000000cb
:10dad0002388a900000000002e089000000000002c
:10dae000ae089000e001b9000002eb00c008200081
:10daf000040f7800809ab900c0082000020242009a
:10db00000008b800823e200003002000010242000d
:10db10008400780038d207005e0990002023ef00cf
:10db20002223ef00600798002423ef003223ef0048
:10db30002823ef002e23ef003023ef00120078009f
:10db40000000a000000978005e08900091ff2f00ff
:10db50001001780081006100010878005e089000e3
:10db600071fc2f0010017800810061000150a000bd
:10db7000010878005e089000f2e72f00900078001e
:10db80000160a000010878005e0890008000eb00b2
:10db90009001780002816100020878005e08900020
:10dba000100178000290a00002087800010f7800b0
:10dbb0000b0037001e007800fe0090000008de0019
:10dbc00061006000004078000004e00003003200c3
:10dbd000c08280000000e800c08288001e0fe800bc
:10dbe0001e007800ef0f5000f2ff36005e08900034
:10dbf000c18280009001780081407800f23f2c00c3
:10dc00008140e90002816100efc060008180fb007b
:10dc1000ef806000ca08dd00828070000108780093
:10dc20005e0890005e099000de089000ee01900012
:10dc3000330198007e01900092009800ce08900079
:10dc4000c00190008140780082ff2f00e7c0600093
:10dc5000028161008180fb00e780600082807000ab
:10dc600041009800de089000400020004101900033
:10dc70000230a000c200980021e1a8008e077800c1
:10dc80004f0778004440a900000006002c00fa006d
:10dc9000043020008001eb003017980041179800f5
:10dca0005217980024079800030f78000a003700e5
:10dcb000ae0090001e007800910078001e0fe80072
:10dcc0002e019000000040000281e8006600400044
:10dcd00022079800013778009e007800c0828000fb
:10dce000808f5000f2ff3900c0828000ce1090007b
:10dcf000808f50000a003e004e119000de10900010
:10dd0000c0828000810041000000e800808f500048
:10dd100003003e003e1090000000e00002003a00c8
:10dd2000100020001d0037000000eb00ce10900016
:10dd3000010f7800100798000e0037000000000067
:10dd40001e00780000004000e60040001e00900029
:10dd50003e11900000004000ee807800000041007d
:10dd6000010878001e0fe8001e0090000000e80087
:10dd700010079800000000009e00780000000000de
:10dd80004e119000000000005e1090000000410065
:10dd9000808f5000e9ff39000000eb008e0778000b
:0cdda0004f0778004440a9000000060076
:020000040000fa
:10fe6c001200fa00881f7800000f98000e0990000d
:10fe7c000040220041c72400c201900032019000d2
:10fe8c006fc8070002002000031824006cc807008c
:10fe9c000200200003f823000bc80700acc80700c1
:10feac000e099000000f7800c20190003201900002
:10febc000040220041c7240061c807000200200056
:10fecc00030824005ec807000200200003f823008a
:10fedc00fdc707009ec807001e01e8001007980028
:10feec008001eb0000902000d10320003fc90700e7
:10fefc001e0190000201e800200798008001eb0031
:10ff0c0000402200410f200038c907002e0290004b
:10ff1c000001be006120b80032079800aac8070093
:10ff2c000e099000c201900032019000e6c7070054
:10ff3c000e099000c20190003201900040c80700e9
:10ff4c0002002000832c2400f4c807003e0190001e
:10ff5c0040079800510798006110b8009ac8070034
:10ff6c000e099000c201900032019000d6c7070024
:10ff7c000e099000c20190003201900018c0b3002d
:10ff8c002fc8070002002000832c2400e3c80700c0
:10ff9c000200200003f82300000000006007980016
:10ffac00710798004e009000de00900066c80700b4
:10ffbc000000e000010035000044eb000804e00004
:10ffcc000b003a000200200003f823006e009000a2
:10ffdc00fe00900018c0b3005bc807000000e000f2
:10ffec00010035000044eb000804e0002100320061
:10fffc00000000006e019000fe0190000000000067
:020000040001f9
:10000c004e009000de00900018c0b3004ec80700f0
:10001c000000e000010035000044eb000804e000a3
:10002c00090032008e0890000e0990000000eb00d1
:10003c009e01780063019800710190000200a100fc
:10004c00f20098000c003700000000008e089000b1
:10005c00000000000e0990000000eb009e019000d3
:10006c0063019800710190000200a000f20098005a
:10007c00010037000080eb00000000004f04780006
:10008c008e0778004f0778004440a9000000060056
:10009c000200fa00889fbe00000f78001e00780056
:1000ac006fff0700e10f400002003a000080eb00f8
:1000bc00850037009e0178001e0178001e00780034
:1000cc009e00780021e2a80021a2a9002182a900ab
:1000dc002162a9002102a9002122a90020e2a80086
:1000ec0020c2a90020a2a90004118000d301900015
:1000fc000440a100e181610003f0a7008301ea0044
:10010c008301e900cf19de00000000008341780074
:10011c008381fb0000000000e1816100c419dd0057
:10012c00848171000311880003118000720190001a
:10013c000330a100614161000281fb00000000005e
:10014c00610161004311dd0003017100021188009f
:10015c0002118000100078000210a100004078000d
:10016c006140600061406000614060000080fb0005
:10017c006100600000004000020070000011880067
:10018c001100780001118000620060000120a100c4
:10019c000000d10000407800614060000080fb004e
:1001ac00610060004200dd00010070000011880059
:1001bc001e0078009e0378001e0378009e027800d3
:1001cc000111800010009000810478000900a1004a
:1001dc0000407800f4f32f000040e900f3ff280002
:1001ec0061406000020025000080fb000107200038
:1001fc00610460000000eb00090474000811880021
:10020c0023a2a90023e2a90018118000d7039000b3
:10021c0008e0a100e283630007f0a7008703ea006f
:10022c008703e900cf3bde00000000008743780025
:10023c008783fb0000000000e1836300ce3bdd0000
:10024c0088837300171188001711800046439000b3
:10025c0007a0a1000604a2000683fb00000000001a
:10026c0006437800614363000683fb000000000036
:10027c00610363004a33dd00070373001611880025
:10028c002362a90022a2a900e50290004511880072
:10029c001511800004826200141188000168a90005
:1002ac002168a800244280008301620003017100d0
:1002bc00224288000828a9002828a80002438000b0
:1002cc008280700001438800000000004f04be00d3
:1002dc008e0778004f0778004440a9000000060004
:1002ec000200fa00889fbe00000f78001e00780004
:1002fc00dbfe0700e10f400002003a000080eb003b
:10030c00850037009e0178001e0178001e007800e1
:10031c009e00780031e2a80031a2a9003182a90028
:10032c003162a9003102a9003122a90030e2a800f3
:10033c0030c2a90030a2a90084118000d301900022
:10034c000440a100e181610003f0a7008301ea00f1
:10035c008301e900cf19de00000000008341780022
:10036c008381fb0000000000e1816100c419dd0005
:10037c0084817100831188008311800072019000c8
:10038c000330a100614161000281fb00000000000c
:10039c00610161004311dd000301710082118800cd
:1003ac0082118000100078000210a100004078003b
:1003bc006140600061406000614060000080fb00b3
:1003cc006100600000004000020070008011880095
:1003dc001100780081118000620060000120a100f2
:1003ec000000d10000407800614060000080fb00fc
:1003fc00610060004200dd00010070008011880087
:10040c001e0078009e0378001e0378009e02780080
:10041c008111800010009000810478000900a10077
:10042c0000407800f4f32f000040e900f38f2f0018
:10043c0061406000025020000080fb000170200031
:10044c00610460000000eb0009047400881188004e
:10045c0033a2a90033e2a90098118000d7039000c1
:10046c0008e0a100e283630007f0a7008703ea001d
:10047c008703e900cf3bde000000000087437800d3
:10048c008783fb0000000000e1836300ce3bdd00ae
:10049c008883730097118800971180004643900061
:1004ac0007a0a1000604a2000683fb0000000000c8
:1004bc0006437800614363000683fb0000000000e4
:1004cc00610363004a33dd00070373009611880053
:1004dc003362a90032a2a900e5029000c511880080
:1004ec0095118000048262009411880003c8a90051
:1004fc0023c8a800744280008301620003017100cc
:10050c00724288000848a9002848a80002438000cd
:10051c008280700001438800000000004f04be0080
:10052c008e0778004f0778004440a90000000600b1
:10053c000000fa0021e2a8008e0778004f0778002f
:10054c004440a900000006000000fa0031e2a800b7
:10055c008e0778004f0778004440a9000000060081
:10056c000000fa0021e2a9008e0778004f077800fe
:10057c004440a900000006000000fa0031e2a90086
:10058c008e0778004f0778004440a9000000060051
:10059c000000fa0010118000610060000000e00013
:1005ac00020032000040eb000100370010c0b30025
:1005bc008e0778004f0778004440a9000000060021
:1005cc000000fa0090118000610060000000e00063
:1005dc00020032000040eb000100370010c0b300f5
:1005ec008e0778004f0778004440a90000000600f1
:1005fc000400fa00100798001e009000e10f500054
:10060c0003003200e20f50000500320008003700f2
:10061c0030118000004f78001e4078000500370034
:10062c00b0118000004f78001e40780001003700a8
:10063c000040eb008e0778004f0778004440a9007b
:10064c00000006000000fa00218f25000001780050
:10065c0002007800114878008100e8000000e800f2
:10066c00114878008100e8000000e800114878008b
:10067c00020078008e0778004f0778004440a900ec
:10068c00000006000000fa00618f250000017800d0
:10069c0002007800114878008100e8000000e800b2
:1006ac00114878008100e8000000e800114878004b
:1006bc00020078008e0778004f0778004440a900ac
:1006cc00000006000200fa0051828000010f780041
:1006dc00a17d25001e0078000000400001024000b2
:1006ec0051828000f0a02e000101e800630420007c
:1006fc000010b800140278004608de008440780030
:10070c008380b900000051005082880001407800bd
:10071c008e0778004f0778004440a90000000600bf
:10072c000200fa0071828000010f780061862500ba
:10073c001e00780000004000010240007182800021
:10074c00f0a02e000101e800630420000010b800a6
:10075c00140278004608de00844078008380b900db
:10076c000000510070828800014078008e077800ec
:10077c004f0778004440a900000006000000fa0072
:10078c005182800060828000808f500002003a000d
:10079c0010c0b300010037000040eb008e0778005a
:1007ac004f0778004440a900000006000000fa0042
:1007bc007182800080828000808f500002003a009d
:1007cc0010c0b300010037000040eb008e0778002a
:1007dc004f0778004440a900000006000400fa000e
:1007ec00000f78001e017800e40141001e02780021
:1007fc001e80e8009e027800668142001107980076
:10080c00940278009e0090001e02900085087800eb
:10081c009e009000900278001e0090001502980037
:10082c0093017800a30098009200780031009800a2
:10083c008e0778004f0778004440a900000006009e
:10084c000400fa00000f78001e017800e40141005a
:10085c001e0278001e80e8009e027800668142002d
:10086c0011079800940278009e0090001e029000e0
:10087c00850878009e009000900278001e00900081
:10088c001502980093017800a3009800920078005c
:10089c00310098008e0778004f0778004440a9007b
:1008ac00000006000400fa00889fbe008a1f780032
:1008bc00000f78001e017800e40141001e00780052
:1008cc001e0278009e0478001e84e8001e83e80057
:1008dc009e027800668142001107980001ff2300f8
:1008ec00100078009e029000ce03de001e009000e7
:1008fc00870a78009e03900014027800f53f2000d0
:10090c00810062001e029000440dde009e009000eb
:10091c001a0098001e0090009904780018047800c2
:10092c00ef8464004a44de00c64cdd000904740008
:10093c00a80398001603780085026300350298001e
:10094c0093017800c3009800920078005100980041
:10095c004f0578004f04be008e0778004f077800d3
:10096c004440a900000006000400fa00000f7800c3
:10097c00110798001e0078009e009000100078006f
:10098c0011017800004078000200a1006140600075
:10099c0061406000614060000080fb00610060000d
:1009ac0002007000800878009e0078001e00900005
:1009bc009100780010017800e28060000210a10024
:1009cc008100d10081407800e1c060008180fb0093
:1009dc00e180600081804000828070000108780016
:1009ec009e0078001e0090009100780010017800a5
:1009fc00e48060000220a100c208de008140780083
:100a0c00e1c060008180fb00e1806000c208dd0075
:100a1c0082807000010878009e0078001e00900013
:100a2c009100780010017800e88060000230a1008d
:100a3c00c308de0081407800e1c060008180fb00cb
:100a4c00e1806000c308dd0082807000010878003e
:100a5c009e0078001e009000910078001001780034
:100a6c00f08060000240a100c408de0081407800e4
:100a7c00e1c060008180fb00e1806000c408dd0003
:100a8c0082807000010878009e0078001e009000a3
:100a9c009101780010017800010220000250a100a1
:100aac0081806100c508de0081407800e1c06000f3
:100abc008180fb00e1806000c508dd008280700051
:100acc00010878009e0078001e00900091017800cb
:100adc0010017800010420000260a10081806100f7
:100aec00c608de0081407800e1c060008180fb0018
:100afc00e1806000c608dd0082807000010878008b
:100b0c009e0078001e009000910178001001780082
:100b1c00010820000270a10081806100c708de007e
:100b2c0081407800e1c060008180fb00e1806000c2
:100b3c00c708dd0082807000010878009e007800f4
:100b4c001e00900091017800100178000110200027
:100b5c000280a10081806100c808de00814078001d
:100b6c00e1c060008180fb00e1806000c808dd000e
:100b7c0082807000010878009e0078001e009000b2
:100b8c009101780010017800012020000290a10052
:100b9c0081806100c908de0081407800e1c06000fe
:100bac008180fb00e1806000c908dd00828070005c
:100bbc00010878009e0078001e00900091017800da
:100bcc00100178000140200002a0a100818061008a
:100bdc00ca08de0081407800e1c060008180fb0023
:100bec00e1806000ca08dd00828070000108780096
:100bfc009e0078001e009000910178001001780092
:100c0c000180200002b0a10081806100cb08de00d1
:100c1c0081407800e1c060008180fb00e1806000d1
:100c2c00cb08dd0082807000010878009e007800ff
:100c3c001e00900091017800100178000100210045
:100c4c0002c0a10081806100cc08de0081407800e8
:100c5c00e1c060008180fb00e1806000cc08dd0019
:100c6c0082807000010878009e0078001e009000c1
:100c7c0091017800100178000100220002d0a1003f
:100c8c0081806100cd08de0081407800e1c0600009
:100c9c008180fb00e1806000cd08dd008280700067
:100cac00010878009e0078001e00900091017800e9
:100cbc00100178000100240002e0a1008180610095
:100ccc00ce08de0081407800e1c060008180fb002e
:100cdc00e1806000ce08dd008280700001087800a1
:100cec001e80e8009e009000100078001101780032
:100cfc000040780002f0a10061406000614060009b
:100d0c00614060000080fb004f00dd0002007000bd
:100d1c00800878009e80e8001e009000910078000a
:100d2c0010019000e28060000200a1008100d1005f
:100d3c0081407800e1c060008180fb00e1806000b0
:100d4c0082807000110098009e80e8001e009000c8
:100d5c009100780010019000e48060000210a10066
:100d6c00c208de0081407800e1c060008180fb0099
:100d7c00e18060008180400082807000110098004a
:100d8c009e80e8001e0090009100780010019000f9
:100d9c00e88060000220a100c308de0081407800da
:100dac00e1c060008180fb00e1806000c208dd00d2
:100dbc0082807000110098009e80e8001e00900058
:100dcc009100780010019000f08060000230a100ca
:100ddc00c408de0081407800e1c060008180fb0027
:100dec00e1806000c308dd00828070001100980073
:100dfc009e80e8001e009000910178001001900088
:100e0c00010220000240a10081806100c508de00c3
:100e1c0081407800e1c060008180fb00e1806000cf
:100e2c00c408dd0082807000110098009e80e800ec
:100e3c001e00900091017800100190000104200028
:100e4c000250a10081806100c608de00814078005c
:100e5c00e1c060008180fb00e1806000c508dd001e
:100e6c0082807000110098009e80e8001e009000a7
:100e7c009101780010019000010820000270a1007f
:100e8c0081806100c708de0081407800e1c060000d
:100e9c008180fb00e1806000c708dd00828070006b
:100eac00110098009e80e8001e00900091017800cf
:100ebc0010019000011020000260a10081806100ef
:100ecc00c808de0081407800e1c060008180fb0032
:100edc00e1806000c608dd0082807000110098007f
:100eec008e0778004f0778004440a90000000600e8
:100efc000400fa00000f78009e0178006481410024
:100f0c001e0078009e81e8001107980010027800fe
:100f1c001e0090009e009000040878001e009000b7
:100f2c0093017800a30098009200780011009800bb
:100f3c008e0778004f0778004440a9000000060097
:100f4c000e00fa00000f7800110798001e007800c0
:100f5c00220798004500de0033079800f043b200ea
:100f6c004407980055079800660798000080fb001e
:100f7c0021022000810f50001900320021022000b4
:100f8c00810f500006003c00eb0f50000b003200ac
:100f9c0011022000810f50000c0032001e0037009f
:100fac0031022000810f500012003200410220005b
:100fbc00810f50001400320017003700ee00900033
:100fcc006400470005fe070013003700ee00900098
:100fdc0064004700e880400019fe07000e0037004f
:100fec00ee00900064004700f08040002dfe0700ea
:100ffc0009003700ee00900064004700fc804000c0
:10100c0059fe070004003700ee0090006400470012
:10101c000102b000b6ff07008e0778004f0778007a
:10102c004440a900000006000400fa00000f7800fc
:10103c00110798009e0078001e0090009100780027
:10104c0010017800e18060000200a10001f0a7000f
:10105c008100ea008100ea00cf08de0081407800c0
:10106c008180fb00e18060008280700001087800c4
:10107c009e0078001e00900091007800100178000e
:10108c008100d1000210a100e180600001f0a700f6
:10109c008100ea008100ea00cf08de008140780080
:1010ac008180fb00e18060008180400082807000c4
:1010bc00010878009e0078001e00900091007800d6
:1010cc0010017800c208de000220a100e18060005f
:1010dc0001f0a7008100ea008100ea00cf08de00e1
:1010ec00814078008180fb00e1806000c208dd0057
:1010fc0082807000010878009e0078001e0090002d
:10110c009100780010017800c308de000230a100c5
:10111c00e180600001f0a7008100ea008100ea0094
:10112c00cf08de00814078008180fb00e180600008
:10113c00c308dd0082807000010878009e007800f2
:10114c001e0090009100780010017800c408de00a9
:10115c000240a100e180600001f0a7008100ea00dc
:10116c008100ea00cf08de00814078008180fb001e
:10117c00e1806000c408dd00828070000108780006
:10118c009e0078001e0090009100780010017800fd
:10119c00c508de000250a100e180600001f0a7004c
:1011ac008100ea008100ea00cf08de00814078006f
:1011bc008180fb00e1806000c508dd00828070004a
:1011cc00010878009e0078001e00900091007800c5
:1011dc0010017800c608de000260a100e18060000a
:1011ec0001f0a7008100ea008100ea00cf08de00d0
:1011fc00814078008180fb00e1806000c608dd0042
:10120c0082807000010878009e0078001e0090001b
:10121c009100780010017800c708de000270a10070
:10122c00e180600001f0a7008100ea008100ea0083
:10123c00cf08de00814078008180fb00e1806000f7
:10124c00c708dd0082807000010878009e007800dd
:10125c001e0090009100780010017800c808de0094
:10126c000280a100e180600001f0a7008100ea008b
:10127c008100ea00cf08de00814078008180fb000d
:10128c00e1806000c808dd008280700001087800f1
:10129c009e0078001e0090009100780010017800ec
:1012ac00c908de000290a100e180600001f0a700f7
:1012bc008100ea008100ea00cf08de00814078005e
:1012cc008180fb00e1806000c908dd008280700035
:1012dc00010878009e0078001e00900091007800b4
:1012ec0010017800ca08de0002a0a100e1806000b5
:1012fc0001f0a7008100ea008100ea00cf08de00bf
:10130c00814078008180fb00e1806000ca08dd002c
:10131c0082807000010878009e0078001e0090000a
:10132c009100780010017800cb08de0002b0a1001b
:10133c00e180600001f0a7008100ea008100ea0072
:10134c00cf08de00814078008180fb00e1806000e6
:10135c00cb08dd0082807000010878009e007800c8
:10136c001e0090009100780010017800cc08de007f
:10137c0002c0a100e180600001f0a7008100ea003a
:10138c008100ea00cf08de00814078008180fb00fc
:10139c00e1806000cc08dd008280700001087800dc
:1013ac009e0078001e0090009100780010017800db
:1013bc00cd08de0002d0a100e180600001f0a700a2
:1013cc008100ea008100ea00cf08de00814078004d
:1013dc008180fb00e1806000cd08dd008280700020
:1013ec00010878009e0078001e00900091007800a3
:1013fc0010017800ce08de0002e0a100e180600060
:10140c0001f0a7008100ea008100ea00cf08de00ad
:10141c00814078008180fb00e1806000ce08dd0017
:10142c0082807000010878009e80e8001e00900009
:10143c009100780010019000e18060000200a10092
:10144c0001f0a7008100ea008100ea00cf08de006d
:10145c00814078008180fb00e18060008280700018
:10146c00110098009e80e8001e009000910078000a
:10147c00100190008100d1000210a100e1806000f9
:10148c0001f0a7008100ea008100ea00cf08de002d
:10149c00814078008180fb00e18060008180400009
:1014ac0082807000110098009e80e8001e00900061
:1014bc009100780010019000c208de000220a1000b
:1014cc00e180600001f0a7008100ea008100ea00e1
:1014dc00cf08de00814078008180fb00e180600055
:1014ec00c208dd0082807000110098009e80e80028
:1014fc001e0090009100780010019000c308de00df
:10150c000230a100e180600001f0a7008100ea0038
:10151c008100ea00cf08de00814078008180fb006a
:10152c00e1806000c308dd0082807000110098002b
:10153c009e80e8001e009000910078001001900041
:10154c00c408de000240a100e180600001f0a700a9
:10155c008100ea008100ea00cf08de0081407800bb
:10156c008180fb00e1806000c408dd008280700097
:10157c00110098009e80e8001e00900091007800f9
:10158c0010019000c508de000250a100e18060004f
:10159c0001f0a7008100ea008100ea00cf08de001c
:1015ac00814078008180fb00e1806000c508dd008f
:1015bc0082807000110098009e80e8001e00900050
:1015cc009100780010019000c608de000260a100b6
:1015dc00e180600001f0a7008100ea008100ea00d0
:1015ec00cf08de00814078008180fb00e180600044
:1015fc00c608dd0082807000110098009e80e80013
:10160c001e0090009100780010019000c708de00c9
:10161c000270a100e180600001f0a7008100ea00e7
:10162c008100ea00cf08de00814078008180fb0059
:10163c00e1806000c708dd00828070001100980016
:10164c009e80e8001e009000910078001001900030
:10165c00c808de000280a100e180600001f0a70054
:10166c008100ea008100ea00cf08de0081407800aa
:10167c008180fb00e1806000c808dd008280700082
:10168c00110098001e80e8009e0090001000780069
:10169c00910190004900de00f21f2000004078000c
:1016ac00028161000074a100614060000074a1001f
:1016bc000080fb004900dd000200700090009800e3
:1016cc009e007800648040001e017800e600410016
:1016dc00900178001e0190001e00900023019800dc
:1016ec0091007800310098008e0778004f07780041
:1016fc004440a900000006000400fa00000f780026
:10170c00110798001e0078009e80e8009001780078
:10171c001e0190001e0090000309780091007800d3
:10172c00110098008e0778004f0778004440a900fc
:10173c00000006000e00fa00000f78001107980058
:10174c001e00780022079800330798004407980081
:10175c0055079800660798007f006000e80f50005e
:10176c0014003a001e007800010220004500de0043
:10177c00f043b2000080fb00810f500004003200e7
:10178c0011022000810f50000500320009003700c3
:10179c00ee0090006400470023fe070005003700b0
:1017ac00ee00900064004700e8804000d2ff070084
:1017bc00000037008e0778004f0778004440a900de
:1017cc00000006000600fa00100798001e009000aa
:1017dc0021079800900078002e009000814078003e
:1017ec00f143b200014878001e0090008080e800b0
:1017fc001e00900000000000910078006400400082
:10180c00010f7800ae009000100178001e007800e7
:10181c00920098004f81de00b14721000180b90091
:10182c004388de0002005000cf80de0063c2070058
:10183c002e01900020019800310198008e0778004d
:10184c004f0778004440a900000006000a00fa0087
:10185c0020079800ae0190003107980042079800cd
:10186c002e009000ae0090000080e800e480400064
:10187c002e0290000001eb0066024200020f78007d
:10188c000001eb001207980013017800020f78009a
:10189c003e019000900178001e00780063019800d2
:1018ac00ce019000910078004f81de001107980066
:1018bc00b1472100140278000180b900e4019800be
:1018cc004388de0002005000cf80de003bc20700e0
:1018dc0072a321001e029000be02900002a1b9006a
:1018ec004fa2de004a99de00c0029800d102980097
:1018fc0004005100cf80de0030c207004e01900082
:10190c000089be008e0778004f0778004440a9007c
:10191c00000006000a00fa0020079800ae019000b3
:10192c00310798002e009000ae0090000080e80077
:10193c00648140000002eb008000eb00040f780093
:10194c001107980093007800010f7800be009000fa
:10195c0041079800100078009e017800100798004d
:10196c00803e20001201780000027800110009006e
:10197c008401d800ce009000f2009800cf80de00e9
:10198c000ec20700823e20003e0290009e01900095
:10199c00008abe00110009008201d800cf80de0051
:1019ac0006c207003e01900020019800310198000a
:1019bc008e0778004f0778004440a900000006000d
:1019cc000a00fa0020079800ae0190003107980039
:1019dc002e009000ae0090000080e8006481400072
:1019ec000002eb008000eb00040f78001107980058
:1019fc0093007800010f7800be009000410798001a
:101a0c00100078009e01780010079800803e20009e
:101a1c001201780000027800110009008401d8003e
:101a2c00ce009000f2009800cf80de00e3c10700ea
:101a3c00823e20003e0290009e0190002002980001
:101a4c0031029800110009008201d800cf80de001d
:101a5c00dac107003e019000400198005101980046
:101a6c008e0778004f0778004440a900000006005c
:101a7c000a00fa0030079800be0190003e0090006a
:101a8c000081e800410798003e0090009300780028
:101a9c0064004000010f7800be0090001201780035
:101aac00e6804000020f7800ce0190001001780013
:101abc001e007800120798004f81de00110278009a
:101acc0071662600e40198000180b9004288de00ae
:101adc0002005000cf80de00b8c1070072662600fd
:101aec002e029000ce02900002a1b9004fa2de009f
:101afc004299de00808abe0004005100cf80de00d7
:101b0c00aec10700726626001e029000ce02900045
:101b1c0002a1b9004fa2de004299de00a00298009b
:101b2c00b102980004005100cf80de00a3c1070071
:101b3c004e01900040019800510198008e077800ea
:101b4c004f0778004440a900000006000c00fa0082
:101b5c00400798004e019000510798004e009000ed
:101b6c00920078000080e800010f7800ce00900011
:101b7c006481400010007800de009000100798008f
:101b8c001e00780012017800c801de001e007800eb
:101b9c0043479800504798001e0090009e0190000b
:101bac004800de0073479800604798004e40900054
:101bbc00820898000000fb00cf80de007fc1070088
:101bcc00de0190005e4190008089be000200fb00a7
:101bdc00cf80de0079c10700de0190006e419000dd
:101bec00a0019800b10198000200fb00cf80de003c
:101bfc0072c10700de0190007e419000c001980088
:101c0c00d10198000200fb00cf80de006bc1070001
:101c1c005e01900060019800710198008e077800b9
:101c2c004f0778004440a900000006000a00fa00a3
:101c3c00300798003e019000410798003e0090004c
:101c4c00920078000080e800010f7800be00900040
:101c5c003e019000e48040006602410010017800d3
:101c6c001e00780012079800ce01900091007800b9
:101c7c004f81de0021079800b14721001402780043
:101c8c000180b900c40998004388de0002005000ae
:101c9c00cf80de0049c10700b24721001e02900030
:101cac00ce02900002a1b9004fa2de004399de00e3
:101cbc00808abe0004005100cf80de003fc10700c7
:101ccc00b24721002e029000ce02900002a1b90072
:101cdc004fa2de004399de00a0029800b1029800ea
:101cec0004005100cf80de0034c107004e0190008b
:101cfc0040019800510198008e0778004f0778003a
:101d0c004440a900000006000a00fa0030079800c1
:101d1c003e019000410798003e0090009200780030
:101d2c000080e800010f7800be0090003e0190009a
:101d3c00e480400066024100100178001e0078002b
:101d4c0012079800ce019000910078004f81de00c0
:101d5c002107980071a32100140278000180b900ba
:101d6c00d40998004a88de0002005000cf80de00c3
:101d7c0012c1070072a321001e029000ce02900037
:101d8c0002a1b9004fa2de004a99de00e0029800e1
:101d9c00f102980004005100cf80de0007c107005b
:101dac00b24721002e029000ce02900002a1b90091
:101dbc004fa2de004399de00800a9800910a980039
:101dcc0004005100cf80de00fcc007004e019000e3
:101ddc0020099800310998008e0778004f07780089
:101dec004440a900000006000e00fa00000f780025
:101dfc00110798001e0078002207980033079800fe
:101e0c004407980055079800660798007f0060000b
:101e1c00f40f500049003a001e00780031022000f7
:101e2c004500de00f043b2000080fb00810f500043
:101e3c002900320031022000810f50000a003c00c2
:101e4c0011022000810f50001800320011022000f6
:101e5c00810f50001c003c0001022000810f50003b
:101e6c000e0032003500370051022000810f500067
:101e7c002300320051022000810f50001b0035005e
:101e8c0061022000810f50002200320071022000fc
:101e9c00810f50002400320028003700ee00900023
:101eac006400470047fe070024003700ee00900056
:101ebc006e00900078814000e8004000640047000c
:101ecc0062fe07001d003700ee0090006400470022
:101edc00e88040008ffe0700ee0090006400470091
:101eec00f8804000b6fe070014003700ee009000aa
:101efc00640047008102b000ddfe07000f003700d0
:101f0c00ee009000640047006103b0000fff070073
:101f1c000a003700ee009000640047008104b00016
:101f2c0042ff070005003700ee00900064004700f8
:101f3c008104b00074ff0700000037008e077800a2
:101f4c004f0778004440a900000006000000fa008a
:101f5c00889fbe008a9fbe0070b425001040780098
:101f6c007f406000e14f500076003a0071b42500cc
:101f7c0000c2b300914078000146b20080cf5000ff
:101f8c0071003a00b0b42500104078000004e00065
:101f9c0004003200b0b4250010407800e14f50002e
:101fac006a003a0080b4250001022000104078003d
:101fbc000080fb00810f5000200032000102200045
:101fcc00810f500005003c000000e0000a003200c8
:101fdc00e10f5000130032005c00370011022000aa
:101fec00810f50004300320021022000810f50006d
:101ffc004800320055003700c198250080002000b1
:10200c0081d98a00a0d98a0090d982000000a00052
:10201c0090d98a0090d982000070a00090d98a00d3
:10202c004a003700c098250080d98a0090d98200d8
:10203c000070a00090d98a004400370096b32500a8
:10204c00a5b3250064b3250073b32500b2b32500f6
:10205c00c1b3250080b32500d7b42500e9b4250011
:10206c001784fb00a79725009984fb00fa0f20002a
:10207c0096457800c84cdd00e0c565000904740085
:10208c00f90f2000898463000a0564004844de00cf
:10209c000ac57500c83bde000a4b78001543780072
:1020ac006043630008437300864a780094427800ca
:1020bc00e0c2620089c27200054a780013427800bf
:1020cc0060426200074272008449780092417800b5
:1020dc00e0c1610003497800114178006041610062
:1020ec0082487800904078000174a0000148780084
:1020fc0016003700a09725007100200080d98a00b7
:10210c0020b32500a1d98a0011ccb3000148780076
:10211c000e00370090b42500a1b425001080fb0000
:10212c001181fb0091d982004811dd000170a000e3
:10213c000200700091d98a00004078002af0b700a4
:10214c0002003700010037000000370000000000db
:10215c004f05be00000000004f04be008e07780043
:10216c004f0778004440a900000006000000fa0068
:10217c0051c1b30002b0240003002000e0972500f9
:10218c00d2cb8a00e3cb8a008041eb00f29725008a
:10219c00034878008041eb00009825000349780043
:1021ac0082c0b3001e70ef000248780010c0b3006c
:1021bc008bdb0700d1c1b30020c0b30088db070064
:1021cc0003c4b300a29325008040eb0020c0b300f1
:1021dc00a4db07002830ef00308188001f70ef006f
:1021ec008e0778004f0778004440a90000000600d5
:1021fc000600fa00000f78001107980022079800db
:10220c001e007800e50f500012003a00308180006b
:10221c009e009000808f500006003a0003c4b3006b
:10222c00a29325008040eb0020c0b3008ddb07009b
:10223c0030818800408180009e009000808f50008b
:10224c0002003a001f70ef002470ef0010c0b300c2
:10225c00010037000040eb008e0778004f07780034
:10226c004440a900000006000400fa00000f7800aa
:10227c00214798001e70ef00308180000000e000c4
:10228c0007003200308180008000780000c8b30065
:10229c009140780000c060000004e0002f003a007c
:1022ac0030818000ae409000204190008180fb0086
:1022bc000281fb00304090000080fb006300600056
:1022cc004800dd0000007100808f500009003400d0
:1022dc003081800020419000b04090000280fb00d3
:1022ec008180fb00e3806000c808dd000100700005
:1022fc00204798001e70ef000c0037001ed0bf0066
:10230c00a19325000080fb00808040001ed0bf0000
:10231c00914078000080fb001e00400001487800ce
:10232c001ed0bf000040e8001ef0b700e101210004
:10233c0000000000914078002e40900080cf5000ab
:10234c00eeff390003c4b300a29325008040eb00dc
:10235c0020c0b30043db0700308188001ed0bf00d3
:10236c008e0778004f0778004440a9000000060053
:10237c000400fa00000f7800214798002ac8a90031
:10238c001fd0bf000004e0000b003a009e00780054
:10239c0001818800ae41900042022100034978007f
:1023ac0011c0b30010c0b30081417800520221006b
:1023bc00034978001ff0b7002ac8a8008e077800e0
:1023cc004f0778004440a900000006000600fa0000
:1023dc00200798002ac8a9001fd0bf000004e00005
:1023ec00020032002ac8a80020003700ae0090007e
:1023fc00110798000040eb00004f78001e4fe800da
:10240c001e407800e14f40000c0032001e0090008e
:10241c009e009000104078008100e8000080fb00d6
:10242c00110798000000ea004f00de000040780021
:10243c000004e000f1ff3a00000037009e417800f4
:10244c0042022100034978002e01900011c0b30014
:10245c0010c0b30002818800814178005202210033
:10246c00034978001ff0b7002ac8a8008e0778002f
:10247c004f0778004440a900000006000200fa0053
:10248c002ac8a900408180000000e0000900320049
:10249c00408180008000780000c8b3009140780033
:1024ac0000c060000004e000020032002ac8a8004e
:1024bc006a0037001fd0bf00e34f500001003a0004
:1024cc001f70ef001fd0bf000004e00002003a00b4
:1024dc002ac8a800610037001fd0bf00e24f50008f
:1024ec000b003a008041eb000001eb0011c0b3007f
:1024fc0020c0b300dbda070031c0b3004081880094
:10250c0081417800f2012100034978005200370024
:10251c001fd0bf00e14f50004f003a004102210094
:10252c00000000009140780000c4b30080cf500040
:10253c000300360000c4b300004f780004003700dd
:10254c00410221000000000091407800014f78000a
:10255c0024d0bf00a18f2500000000001e405000b9
:10256c001181880024f0b7001e41780012479800b2
:10257c0025d0bf000004e00020003a000d00370019
:10258c000181800010818000914078000148780022
:10259c001e4090000040e900104798001181800017
:1025ac00008180008100e8000000e80011818800b3
:1025bc0000818800000000001e4090000004e00034
:1025cc00efff3a001100370001818000108180007c
:1025dc0091407800014878001e4090000040e900ce
:1025ec001047980011818000008180008100e80074
:1025fc000000e800118188000081880000000000c4
:10260c001e4090000004e000efff3a0024d0bf0011
:10261c000004e00009003a0000c4b3009e407800ba
:10262c0080cf500003003a0020c0b3001ff0b70069
:10263c000200370030c0b3001ff0b70000000000ec
:10264c009e417800a28f250011c0b30020c0b300ba
:10265c0084da0700408188002ac8a8008e07780019
:10266c004f0778004440a900000006000e00fa0055
:10267c00000f780022079800660798002e01900042
:10268c006e0090006f0161001107980033079800ed
:10269c004407980055079800020878008e077800c8
:1026ac004f0778004440a900000006000e00fa0015
:1026bc00000f780022079800660798002e01900002
:1026cc006e009000024178001107980033079800c3
:1026dc004407980055079800024878008e07780048
:1026ec004f0778004440a900000006000e00fa00d5
:1026fc00000f780022079800660798002e019000c2
:10270c006e00900002417800110798003307980082
:10271c004407980055079800024878008e07780007
:10272c004f0778004440a900000006000e00fa0094
:10273c00000f780022079800660798002e01900081
:10274c006e009000024178007f41610002487800e1
:10275c002e0190006e0090004511de0002417800c1
:10276c007f416100124098001107980033079800d0
:10277c0044079800550798008e0778004f0778009b
:10278c004440a900000006000e00fa00000f78007b
:10279c0022079800660798002e0190006e009000aa
:1027ac0011079800330798004407980055079800c4
:1027bc00020878008e0778004f0778004440a90083
:1027cc00000006000e00fa00000f780022079800a7
:1027dc00660798002e0190006e009000110798007b
:1027ec0033079800440798005507980002087800b2
:1027fc008e0778004f0778004440a90000000600bf
:10280c000e00fa00000f7800220798006607980067
:10281c002e0190006e00900011079800330798006d
:10282c004407980055079800020878008e07780036
:10283c004f0778004440a900000006000e00fa0083
:10284c00000278008e0178009e027800414f9800bb
:10285c0001fe2f004e489000818062007f40600096
:10286c000080fb007f00600001007000000f78000a
:10287c001e0390009e03780004007800f1812f0065
:10288c00053a20008183630001ff2f0087827200cc
:10289c0081006300050f78000110a000110798005b
:1028ac003318780023107800e48141006400400064
:1028bc00524f9800de4890008180fb002107980061
:1028cc003318780023107800e48141006400400044
:1028dc003318780023107800040078008e077800f5
:1028ec004f0778004440a900000006001000fa00d1
:1028fc00881f7800800278000e0278001e03780092
:10290c00414f980001fe2f004e489000810063005b
:10291c007f4060000080fb007f00600001007000c1
:10292c00000f78009e0390001e04780005007800cc
:10293c00f1812f00063e20000104640001ff2f00ee
:10294c000803730081806300060f78000110a0005b
:10295c0011079800341878002410780064024200a3
:10296c0064004000524f9800634f98005e499000fd
:10297c00ee4890000281fb008180fb00c508dd0061
:10298c008280700021079800341878002410780099
